:100000000C94D5080C94FD080C94FD080C94FD0884
:100010000C94FD080C94FD080C94FD080C94FD084C
:100020000C94FD080C94FD080C94E4100C945311EE
:100030000C94FD080C94FD080C94FD080C94FD082C
:100040000C94FD080C94FD080C94FD080C94FD081C
:100050000C94FD080C94FD080C94FD080C94851379
:100060000C94FD080C94FD080C94FD080C94FD08FC
:100070000C94FD080C94FD080C94FD080C94FD08EC
:100080000C94FD080C94FD080C94FD080C94FD08DC
:100090000C94FD080C94FD080C94FD080C94FD08CC
:1000A0000C94FD080C94FD080C94FD080000000061
:1000B0002300260029002C002F0000000002000968
:1000C0000F0000030401000C00000000000000000D
:1000D000000000000000000000080B000202020007
:1000E00000090400000102020000052400100105BF
:1000F00024010101042402060524060001070581EC
:100100000310004009040100020A00000007050274
:1001100002400000070583024000000403090412A6
:10012000010002EF02014041233780000101020378
:100130000141726475696E6F204C4C4300417264DA
:1001400075696E6F204D6963726F000000000025B5
:100150000028002B002E00310000000000240027A2
:10016000002A002D003000040404040403040502E6
:100170000202020403020202020606060606060442
:10018000040202020404040802011040804010200E
:10019000408040800802040180402010020110804D
:1001A00010204040200180000000000000000000FE
:1001B000000000018003C0000000000000000000FB
:1001C00000000003C0074000000000000000000025
:1001D00000000002E006E000000000000000000057
:1001E00000000007608843000000000000000000DD
:1001F0000000000211F04480000000000000000038
:10020000000000020F8648400000000000000000CF
:100210000000000261BC4847000000000000000030
:10022000000000023D8088488000000000000000BF
:1002300000000001018104908000003B800000006C
:1002400000000000817E03108000000FE400000029
:10025000000000007EFFF0110E00007EFE00000096
:100260000000000FFF001C0E110000DC3A0000002F
:1002700000000038000007002080000FCA000000C6
:10028000000000E0000001C02080000773000000B3
:1002900000000380000000701107E000B380000040
:1002A00000000E000000001C0E0E70CA83C000008B
:1002B0000000380000000007000C30CA8600000073
:1002C0000000E00000000001C01818BF8C00000012
:1002D0000003800000018000701818800C000000EE
:1002E000000E00018003C0001C1818838E0000005F
:1002F00000380003C0074000001818468C000000BA
:1003000000000002E006E00001FFFF3D8F0000005A
:10031000000000076088400001FFFF064E0000005B
:100320000000000211F0400001FFFF99CF800000A3
:10033000000000020F86400001FCFFCF48000000D3
:100340000000000261BC400001FE3DC0C80000008A
:10035000000000023D80800001FF19409F00000066
:10036000000000010181000000FFC321F9800000AE
:1003700000000000817E000000F803A10E80000054
:10038000000000007EFFF000007F00D1E980000047
:100390000000000FFF001C00007F80731C80000025
:1003A0000000003800000700003F1C3A9A8000005F
:1003B000000000E0000001C0001C7F1E75800000EE
:1003C00000000380000000700007E1C7E3000000A8
:1003D00000000E000000001C0000007057800000AC
:1003E0000000380000000007000000184E800000E8
:1003F0000000E00000000001C000000E5CC0000032
:10040000000380000000000070000005F1400000C3
:10041000000E0000000000001C00000E064000005E
:1004200000380000000000000000000988C0000043
:1004300000000000000000000000000C71400000FF
:1004400000000000000000000000000B024000005F
:10045000000000000000000000000008FC40000058
:1004600000000000000000000000001C00FF000071
:10047000000000000000000000000036E181E00004
:10048000000000000000000000000063FF002000EA
:100490000000000000000000000001C0E00020009B
:1004A000000000000000000000000700003C2000E9
:1004B000000000000000000000001C0FFFE820000A
:1004C000000000000000000000003038000820009C
:1004D0000000000000000000000020F000082700DD
:1004E00000000000000000000000202000183F80F5
:1004F0000000000000000000000020300010E0803C
:10050000000000000000000000003018003381806F
:1005100000000000000000000000180C00267F0012
:10052000000000000000000000001806002D8600FA
:1005300000000000000000000000083F007A3800C2
:1005400000000000000000000003FFF300746000E2
:10055000000000000000000000026503006CC00005
:100560000000000000000000000300060071800091
:1005700000000000000000000001FFFC001F000060
:10058000000000000000000000000000000000006B
:10059000000000000000000000000000000000005B
:1005A00000000000000180000000000000000000CA
:1005B000000000018003C0000000000000000000F7
:1005C00000000003C0074000000000000000000021
:1005D00000000002E006E000000000000000000053
:1005E00000000007608843000000000000000000D9
:1005F0000000000211F04480000000000000000034
:10060000000000020F8648400000000000000000CB
:100610000000000261BC484700000000000000002C
:10062000000000023D8088488000000000000000BB
:1006300000000001018104908000003B8000000068
:1006400000000000817E03108000000FE400000025
:10065000000000007EFFF0110E00007EFE00000092
:100660000000000FFF001C0E110000DC3A0000002B
:1006700000000038000007002080000FCA000000C2
:10068000000000E0000001C02080000773000000AF
:10069000000003800000007011000000B380000023
:1006A00000000E000000001C0E0000C083C000000F
:1006B0000000380000000007000000CA86000000AB
:1006C0000000E00000000001C00000BF8C0000003E
:1006D0000003800000018000700000800C0000001A
:1006E000000E00018003C000180000838E0000008F
:1006F00000380003C0074000000000468C000000E6
:1007000000000002E006E0000000003D8F00000055
:100710000000000760884000000000064E00000056
:100720000000000211F0400000000019CF8000001E
:10073000000000020F8640000000000F480000008B
:100740000000000261BC400000000000C800000082
:10075000000000023D808000000000009F000000BB
:10076000000000010181000000000001F98000008C
:1007700000000000817E0000000000010E800000EB
:10078000000000007EFFF000000F8001E980000003
:100790000000000FFF001C000E1BC0031C800000A7
:1007A0000000003800000700113060069A80000049
:1007B000000000E0000001C020B077077580000055
:1007C000000003800000007020B03F8DC3000000D7
:1007D00000000E000000001C11307EF79780000022
:1007E00000003800000000070E31FE4CCE800000F3
:1007F0000000E00000000001C01BFE705CC00000B3
:100800000003800000000000701F8E007140000097
:10081000000E0000000000001C3FC001C6400000A8
:10082000003800000000000000FFF80708C00000CA
:10083000000000000000000000FFF01C71400000FC
:100840000000000000000000007FE06B024000009C
:100850000000000000000000007F84E8FC40000071
:100860000000000000000000003FF9DC00FF000075
:100870000000000000000000001FF9B6E181E00068
:100880000000000000000000000FF363FF002000E4
:1008900000000000000000000007FDC0E000200094
:1008A00000000000000000000001F700003C2000F4
:1008B000000000000000000000001C0FFFE8200006
:1008C0000000000000000000000030380008200098
:1008D0000000000000000000000020F000082700D9
:1008E00000000000000000000000202000183F80F1
:1008F0000000000000000000000020300010E08038
:10090000000000000000000000003018003381806B
:1009100000000000000000000000180C00267F000E
:10092000000000000000000000001806002D8600F6
:1009300000000000000000000000083F007A3800BE
:1009400000000000000000000003FFF300746000DE
:10095000000000000000000000026503006CC00001
:10096000000000000000000000030006007180008D
:1009700000000000000000000001FFFC001F00005C
:100980000000000000000000000000000000000067
:100990000000000000000000000000000000000057
:1009A00000000000000180000000000000000000C6
:1009B000000000018003C0000000000000000000F3
:1009C00000000003C007400000000000000000001D
:1009D00000000002E006E00000000000000000004F
:1009E00000000007608843000000000000000000D5
:1009F0000000000211F04480000000000000000030
:100A0000000000020F8648400000000000000000C7
:100A10000000000261BC4847000000000000000028
:100A2000000000023D8088488000000000000000B7
:100A300000000001018104908000003B8000000064
:100A400000000000817E03108000000FE400000021
:100A5000000000007EFFF0110E00007EFE0000008E
:100A60000000000FFF001C0E110000DC3A00000027
:100A700000000038000007002080000FCA000000BE
:100A8000000000E0000001C020800007F30000002B
:100A9000000003800000007011000001B38000001E
:100AA00000000E000000001C0E0000CA83C0000001
:100AB0000000380000000007000000CA86000000A7
:100AC0000000E00000000001C00000BF8C0000003A
:100AD0000003800000018000700000800C00000016
:100AE000000E00018003C000180000838E0000008B
:100AF00000380003C0074000000000468C000000E2
:100B000000000002E006E0000000003D8F00000051
:100B10000000000760884000000000064E00000052
:100B20000000000211F0400000000019CF8000001A
:100B3000000000020F8640000000000F4800000087
:100B40000000000261BC400000000000C80000007E
:100B5000000000023D808000000000009F000000B7
:100B6000000000010181000000000001F980000088
:100B700000000000817E0000000000010E800000E7
:100B8000000000007EFFF000000F8001E9800000FF
:100B90000000000FFF001C000E1BC0031C800000A3
:100BA0000000003800000700113060069A80000045
:100BB000000000E0000001C020B0770F7580000049
:100BC000000003800000007020A03BB5C3000000BF
:100BD00000000E000000001C113072E7978000003A
:100BE00000003800000000070E31824CCE8000006B
:100BF0000000E00000000001C01BFE705CC00000AF
:100C00000003800000000000701C8600714000009E
:100C1000000E0000000000001C21C001C6400000C2
:100C2000003800000000000000C0380708C00000C5
:100C300000000000000000000080101C7140000057
:100C400000000000000000000040E06B02400000D7
:100C50000000000000000000004184C8FC400000CB
:100C600000000000000000000020F99C00FF0000D0
:100C70000000000000000000001009B6E181E00063
:100C80000000000000000000000833E3FF00200027
:100C9000000000000000000000061FC0E00020006F
:100CA000000000000000000000018F00003C200058
:100CB000000000000000000000006C0FFFE82000B2
:100CC0000000000000000000000030380008200094
:100CD0000000000000000000000020F000082700D5
:100CE00000000000000000000000202000183F80ED
:100CF0000000000000000000000020300010E08034
:100D00000000000000000000000030180033818067
:100D100000000000000000000000180C00267F000A
:100D2000000000000000000000001806002D8600F2
:100D300000000000000000000000083F007A3800BA
:100D400000000000000000000003FFF300746000DA
:100D5000000000000000000000026503006CC000FD
:100D60000000000000000000000300060071800089
:100D700000000000000000000001FFFC001F000058
:100D80000000000000000000000000000000000063
:100D90000000000000000000000000000000000053
:100DA00000000000000180000000000000000000C2
:100DB000000000018003C0000000000000000000EF
:100DC00000000003C0074000000000000000000019
:100DD00000000002E006E00000000000000000004B
:100DE00000000007608843000000000000000000D1
:100DF0000000000211F0448000000000000000002C
:100E0000000000020F8648400000000000000000C3
:100E10000000000261BC4847000000000000000024
:100E2000000000023D8088488000000000000000B3
:100E300000000001018104908000003B8000000060
:100E400000000000817E03108000000FE40000001D
:100E5000000000007EFFF0110E00007EFE0000008A
:100E60000000000FFF001C0E110000DC3A00000023
:100E700000000038000007002080000FCA000000BA
:100E8000000000E0000001C02080000773000000A7
:100E900000000380000000701107E000B380000034
:100EA00000000E000000001C0E0E70CA83C000007F
:100EB0000000380000000007000C30CA8600000067
:100EC0000000E00000000001C01818BF8C00000006
:100ED0000003800000018000701818800C000000E2
:100EE000000E00018003C0001C1818838E00000053
:100EF00000380003C0074000001818468C000000AE
:100F000000000002E006E00001FFFF3D8F0000004E
:100F10000000000760884000010001064E0000004C
:100F20000000000211F0400001070199CF8000008D
:100F3000000000020F8640000104C7CF48000000F7
:100F40000000000261BC400001032DC0C800000089
:100F5000000000023D808000010199409F000000D8
:100F600000000001018100000087C321F98000001A
:100F700000000000817E0000008803A10E800000B8
:100F8000000000007EFFF000004700D1E980000073
:100F90000000000FFF001C00004180731C80000057
:100FA000000000380000070000371C3A9A8000005B
:100FB000000000E0000001C0000C771E75800000FA
:100FC00000000380000000700003C1C7E3000000C0
:100FD00000000E000000001C0000007057800000A0
:100FE0000000380000000007000000184E800000DC
:100FF0000000E00000000001C000000E5CC0000026
:10100000000380000000000070000005F1400000B7
:10101000000E0000000000001C00000E0640000052
:1010200000380000000000000000000988C0000037
:1010300000000000000000000000000C71400000F3
:1010400000000000000000000000000B0240000053
:10105000000000000000000000000008FC4000004C
:1010600000000000000000000000001C00FF000065
:10107000000000000000000000000036E181E000F8
:10108000000000000000000000000063FF002000DE
:101090000000000000000000000001C0E00020008F
:1010A000000000000000000000000700003C2000DD
:1010B000000000000000000000001C0FFFE82000FE
:1010C0000000000000000000000030380008200090
:1010D0000000000000000000000020F000082700D1
:1010E00000000000000000000000202000183F80E9
:1010F0000000000000000000000020300010E08030
:101100000000000000000000000030180033818063
:1011100000000000000000000000180C00267F0006
:10112000000000000000000000001806002D8600EE
:1011300000000000000000000000083F007A3800B6
:1011400000000000000000000003FFF300746000D6
:10115000000000000000000000026503006CC000F9
:101160000000000000000000000300060071800085
:1011700000000000000000000001FFFC001F000054
:10118000000000000000000000000000000000005F
:10119000000000000000000000000000000000004F
:1011A000000000000000CF13141711241FBECFEF62
:1011B000DAE0DEBFCDBF11E0A0E0B1E0E4EDFEE299
:1011C00002C005900D92A433B107D9F726E0A4E33D
:1011D000B1E001C01D92AC33B207E1F718E0C4EDF5
:1011E000D8E004C02197FE010E943C17C33DD107FF
:1011F000C9F70E94B8140C945D170C9400008EBDC2
:1012000000000DB407FEFDCF0895CF93C62F0E94B6
:10121000FF088C2FCF910C94FF0890E0FC01EA5757
:10122000FE4F249189599E4FFC018491882399F0A7
:1012300090E0880F991FFC01E75AFE4FA591B491E9
:10124000FC01E55BFE4F859194918FB7F894EC918A
:10125000E22BEC938FBF0895FC018091530188230A
:1012600011F13FB7F89482E08093E9002091F200F9
:10127000822F90E01816190614F481E090E088237C
:1012800039F0289A44E6409352014091F10040839E
:10129000222339F02091F200211103C02BE6209384
:1012A000E8003FBF08958FEF9FEF08952FB7F894A0
:1012B00083E08093E9009091E800892F807295FF88
:1012C00004C09091F20080E4891B2FBF08958091A3
:1012D0004A0181110DC082E08093460184E0809331
:1012E0004701109249011092480181E080934A0120
:1012F00086E491E008954091400150914101209190
:101300003E0130913F0142175307B4F49091E80039
:101310009570E1F39091E80092FD19C08093F1007F
:10132000809140019091410101968F739927892BFB
:1013300019F48EEF8093E800809140019091410173
:101340000196909341018093400181E0089580E0EF
:101350000895EF92FF920F931F93CF93DF93F82E90
:10136000192FE62E042F81E0860F880F0E947B093B
:1013700083E00E947B09CF2DD12FEC0EFD2EF11CB6
:10138000CE15DF05B9F007FF13C0FE0184910E945E
:101390007B09182F80E00E947B098123219681110F
:1013A000EFCFDF91CF911F910F91FF90EF900895B4
:1013B0008881EDCF81E0F5CFDF92EF92FF920F931E
:1013C0001F93CF93DF93D82E8A01EB017B01E40EAC
:1013D000F51ECE15DF0559F0D7FE12C0FE0184912F
:1013E0000E947B0921968111F4CF0FEF1FEFC801F6
:1013F000DF91CF911F910F91FF90EF90DF900895B3
:101400008881EECF0F931F93CF93DF931F92CDB7B9
:10141000DEB782E0898342E450E069ED70E080E865
:101420000E94DC090E946709DC0112960D911C9153
:101430000115110589F0D801ED91FC910280F3812D
:10144000E02DBE016F5F7F4FC801099597FD04C075
:10145000F80100851185ECCF89810F90DF91CF9144
:101460001F910F910895615030F02091F100FC011F
:1014700020830196F8CF289A84E68093520108953C
:10148000CF93DF931F92CDB7DEB76983DC01ED9177
:10149000FC910280F381E02D41E050E0BE016F5FDE
:1014A0007F4F09950F90DF91CF91089583E080934E
:1014B000E9008091F200882319F08AE38093E80024
:1014C00008950E94560990E00895CF93DF931F92EC
:1014D000CDB7DEB7FC018485958597FD08C02FEF59
:1014E0003FEF358724870F90DF91CF910895CE018C
:1014F00001960E942C09019719F4898190E0F3CF9D
:101500008FEF9FEFF0CF0F931F93CF93DF931F9237
:10151000CDB7DEB78C01FC018485958597FF0BC0A4
:10152000CE0101960E942C09019771F4898190E007
:10153000F80195878487F801848595850F90DF9160
:10154000CF911F910F9108958FEF9FEFF1CFFC0185
:101550008485958597FD0BC09FB7F89482E08093B2
:10156000E9008091F2009FBF90E0019608959FB737
:10157000F89482E08093E9008091F2009FBF90E0B0
:10158000089581508F3008F047C0E82FF0E0E55310
:10159000F54F0C943C17E80AEC0ADA0AE00AE40A70
:1015A0000C0B0C0B0C0BEF0AF50AF90AFD0A030BE6
:1015B0000C0B070B809180008F778093800008953B
:1015C000809180008F7DF9CF80918000877FF5CF5B
:1015D00084B58F7784BD089584B58F7DFBCF8091CE
:1015E00090008F77809390000895809190008F7D78
:1015F000F9CF80919000877FF5CF8091C0008F77E1
:101600008093C00008958091C0008F7DF9CF8091B4
:10161000C200877F8093C20008951F93CF93DF930A
:10162000282F30E0F901E654FF4F8491F901EA5781
:10163000FE4FD491F901E959FE4FC491CC23A9F092
:10164000162F81110E94C10AEC2FF0E0EE0FFF1F50
:10165000E55BFE4FA591B4918FB7F894EC91111111
:1016600008C0D095DE23DC938FBFDF91CF911F910F
:101670000895DE2BF8CF1F93CF93DF9310EBCAEEC4
:10168000D1E060E082E10E940D0B812F0E94FF08F3
:1016900060E182E00E94050961E082E10E940D0B99
:1016A000CE0180589F4FC817D90731F029912EBD20
:1016B0000DB407FEFDCFF7CF1F5F85E0CA3ED80708
:1016C00001F7DF91CF911F9108953FB7F894809172
:1016D000390190913A01A0913B01B0913C0126B5AE
:1016E000A89B05C02F3F19F00196A11DB11D3FBF5A
:1016F000BA2FA92F982F8827BC01CD01620F711D29
:10170000811D911D42E0660F771F881F991F4A9522
:10171000D1F708958F929F92AF92BF92CF92DF92AE
:10172000EF92FF924B015C010E94650B6B017C0103
:101730000E94650B6C197D098E099F09683E7340F4
:1017400081059105A8F321E0821A9108A108B1084A
:1017500088EEC80E83E0D81EE11CF11C81149104B0
:10176000A104B10429F7FF90EF90DF90CF90BF90D4
:10177000AF909F908F9008958F929F92AF92BF925B
:10178000CF92DF92EF92FF920F931F93CF93DF934D
:101790006C017B018A0180910B01882309F45CC0F4
:1017A00080915301882309F457C08091440180FF40
:1017B00005C08091E00082608093E000E801B12CD8
:1017C0008AEFA82E93E0892E2AE3922E209711F417
:1017D000BB20D9F10E94560981110AC0AA94AA20FF
:1017E000D9F161E070E080E090E00E948A0BEECFDA
:1017F0008C171D0611F00CF08C2F9FB7F894809277
:10180000E9002091E80025FD02C09FBFDFCF282F0F
:1018100030E0C21BD30BF701815020F0419140937F
:10182000F100FACFE20EF31EBB2021F09092E80007
:10183000B12CEBCF8091E80085FDE7CF9092E800D6
:10184000BB24B394209709F3F3CF5D9A84E6809389
:101850004501101611063CF081E090E0F6019383FB
:10186000828310E000E0C801DF91CF911F910F91BA
:10187000FF90EF90DF90CF90BF90AF909F908F90B0
:1018800008956F927F928F929F92AF92BF92CF9264
:10189000DF92EF92FF920F931F93CF93DF93FB01A1
:1018A000EA01C501A8E08A2E912CB4010E942817F4
:1018B00097E0981B492F60E870E002C07595679526
:1018C0009A95E2F7609584918C1A9D0A8E189F086C
:1018D00001C0880F8A94EAF71C2FD601115080F0BE
:1018E0009C919623782F7078E72EF12C042E02C05D
:1018F000F594E7940A94E2F79E299D93880FEECF22
:101900003E016C0C7D1CCF010196D3017901FC01D5
:1019100071E0E71AF108E8F014916D0179E0B72E53
:10192000BA94BB2099F0E60178817623D12FD07844
:101930008D2E912C042E02C0959487940A94E2F780
:101940007829E60179936E01110FEACF1896319646
:10195000DFCF690153E0CC0CDD1C5A95E1F7E301C0
:10196000CC0DDD1DFC01E20FF31FE491015078F076
:10197000888186232E2F207830E0042E02C03595F2
:1019800027950A94E2F7822B8993EE0FEFCFDF9130
:10199000CF911F910F91FF90EF90DF90CF90BF906C
:1019A000AF909F908F907F906F9008952F923F926D
:1019B0004F925F926F927F928F929F92AF92BF925F
:1019C000CF92DF92EF92FF920F931F93CF93DF930B
:1019D000CDB7DEB7A6970FB6F894DEBF0FBECDBF6A
:1019E0004C01E982FA820B831C832D833E834F8353
:1019F000588769877A8709811A81D4010D90BC9133
:101A0000A02DBC87AB87B7FEEFC00A191B09512C6C
:101A1000412C8D819E818A0D9B1D2B853C858217D3
:101A200093070CF49C01121613060CF095C16B8001
:101A30007C80D4011296ED90FC90D7FEDDC06C182E
:101A40007D08F0E0E0E08F8198858C0D9D1D8E155E
:101A50009F050CF47C011E141F040CF07DC1241999
:101A6000350917012E1A3F0A78E0A72EB12CC801BC
:101A7000B5010E942817A501481B590B5E874D87A9
:101A8000241735070CF4BEC0C901800F911FB501A2
:101A90000E9428179C8B8B8B188E1F8AAD85BE8564
:101AA0002A1B3B0B4B895C89241B350B37FF02C07B
:101AB000295F3F4FC90163E0959587956A95E1F7E6
:101AC0009E8F8D8FA985BA858D919C91119797FDD9
:101AD00007969C0153E0359527955A95E1F7388B89
:101AE0002F8717FF02C0095F1F4FC80133E095958C
:101AF00087953A95E1F74F855889469D8001479D26
:101B0000100D569D100D1124080F191F14968D915C
:101B10009C91DC01A00FB11FBE8BAD8B9F0143E0F8
:101B2000359527954A95E1F74B855C85249FC00143
:101B3000259F900D349F900D1124480E591ED401FD
:101B400014968D919C919C01240D351D3A8B298B07
:101B5000CF018770992728E030E03901681A790AA7
:101B6000261437040CF459C0A701477055275C8F21
:101B70004B8F261837088B8D9C8D281A390A37FE13
:101B800003C097E0290E311C9C868B86D10123E08F
:101B9000B595A7952A95E1F7B8A3AF8F93012E0FBE
:101BA0003F1F3A8F298F5F018D889E88498D5A8DFE
:101BB0004A155B05B1F125015FEF451A550AC98841
:101BC000DA88EF88F88C0B891C892D8D3E8D4D8528
:101BD0005E85B4018B859C850E94410C8F85988918
:101BE000880E991E5201E2CFEB85FC85AE16BF062A
:101BF0000CF0B2C025010DCFCE14DF040CF0ACC048
:101C0000F60121CF8D859E85821B930B988F8F8B3C
:101C10003E872D871C8A1B8A41CF31011C8E1B8E6B
:101C2000A8CFAF85B8896A9E40016B9E900C7A9EC2
:101C3000900C1124ED89FE89E80DF91DFE8BED8BCA
:101C4000AB85BC854D905C90E989FA894E0E5F1E8C
:101C50002F85388993E0220F331F9A95E1F73AA335
:101C600029A34F8D58A15A8B498B298C3A8C6D88AA
:101C70007E8889899A8901979A8B898B019631F19F
:101C8000F1013896FCA3EBA351014301EBA1FCA1A8
:101C9000EA15FB0509F452C095012F5F3F4F3EA3A3
:101CA0002DA36201EF88F88C0B891C892D8D3E8D48
:101CB0004D855E85B4018B859C850E94410C4F85C6
:101CC0005889840E951EADA0BEA0E0CF29A13AA1EF
:101CD0004F8D58A1249F4001259F900C349F900C5C
:101CE00011248D899E89880E991E5A0183E0AA0CC1
:101CF000BB1C8A95E1F7A98DBA8DAA0EBB1E6B8C11
:101D00007C8C6A0C7B1C6A147B0431F11501BFEFDB
:101D10002B1A3B0A6201EF88F88C0B891C892D8DE8
:101D20003E8D4D855E85B4018B859C850E94410C5E
:101D3000EF85F8898E0E9F1E5101E5CF58E0250EE4
:101D4000311C89A19AA1680E791EAB85BC858D9145
:101D50009C91480E591E8DCFA6960FB6F894DEBF03
:101D60000FBECDBFDF91CF911F910F91FF90EF90EC
:101D7000DF90CF90BF90AF909F908F907F906F90AB
:101D80005F904F903F902F9008950F931F93CF93A4
:101D9000DF938C01EB0188819981009731F02885D0
:101DA000253019F4EC81FD810995D8018D939D931F
:101DB00086E0FE01329601900D928A95E1F78885C2
:101DC000F8018087DF91CF911F910F910895DC0179
:101DD0002D913C9111972115310581F118969C9117
:101DE0001897923061F02CF4992349F0913039F032
:101DF00008959430D9F01CF09530D9F008951496D8
:101E00004D915C911597CA0195958795820F931F07
:101E10001296ED91FC9140FF08C0DC012D913C91A0
:101E2000E20FF31F0190F081E02D0994862FF90154
:101E300009941296ED91FC91C901F7CF089526E01F
:101E4000FC0111922A95E9F70895CF92DF92FF9253
:101E50000F931F93CF93DF9300D000D000D0CDB766
:101E6000DEB78C01DC018D919C911197009749F0B0
:101E700018962C911897253021F41696ED91FC9127
:101E80000995F80180819181892BC9F01182108216
:101E900086E0F82ECE0101966C01DC01EF2D1D923B
:101EA000EA95E9F70E941F0FF601D80112960190FA
:101EB0000D92FA94E1F78FEFD80118968C9326963D
:101EC0000FB6F894DEBF0FBECDBFDF91CF911F914B
:101ED0000F91FF90DF90CF9008950F931F93CF93B2
:101EE000DF938C01EB010E94250F88819981009777
:101EF00031F02885253019F4EC81FD810995D80150
:101F00008D939D9386E0FE01329601900D928A9505
:101F1000E1F78885F8018087DF91CF911F910F91BC
:101F20000895EF92FF921F93CF93DF93EC01162F4A
:101F30007901698302968417950719F0BA010E9406
:101F40006D0FCE010B968E159F0519F0B7010E94FB
:101F50006D0F62E0812FDF91CF911F91FF90EF9085
:101F60000C940D0BEF92FF920F931F93CF93DF937F
:101F7000CDB7DEB762970FB6F894DEBF0FBECDBF08
:101F80008C017B01CE0101960E94C50EB801CE01E5
:101F90000A960E94C50E9E012F5F3F4FAE01465F1D
:101FA0005F4F64E08CEE95E00E94910FCE010A969F
:101FB0000E94250FCE0101960E94250FB701CE0188
:101FC00001960E94C50EB801CE010A960E94C50E68
:101FD0009E012F5F3F4FAE01465F5F4F65E080E09F
:101FE00096E00E94910FCE010A960E94250FCE0125
:101FF00001960E94250FB701CE0101960E94C50EE1
:10200000B801CE010A960E94C50E9E012F5F3F4F78
:10201000AE01465F5F4F66E084E196E00E94910F5B
:10202000CE010A960E94250FCE0101960E94250F2F
:10203000B701CE0101960E94C50EB801CE010A96E5
:102040000E94C50E9E012F5F3F4FAE01465F5F4F5E
:1020500067E088E296E00E94910FCE010A960E9406
:10206000250FCE0101960E94250F62960FB6F894B7
:10207000DEBF0FBECDBFDF91CF911F910F91FF90BB
:10208000EF900895AF92BF92CF92DF92EF92FF92BE
:102090000F931F93CF93DF93EC01162F2881398183
:1020A0008A819B81289FA001299F500D389F500D48
:1020B000112457FF02C0495F5F4F33E055954795A4
:1020C0003A95E1F770E060E08C819D810E9456179F
:1020D000153009F447C068F4143049F1DF91CF910D
:1020E0001F910F91FF90EF90DF90CF90BF90AF9036
:1020F0000895163009F44FC0173081F783E0A82EF9
:10210000B12C6501E090A401F090A5010091A60119
:102110001091A7012091A8013091A9014091AA0135
:102120005091AB016091AC017091AD0117C0A12C31
:10213000B12C6501E090D401F090D5010091D60159
:102140001091D7012091D8013091D9014091DA0145
:102150005091DB016091DC017091DD01CE010E94A4
:10216000D60CBCCFAA24A394B12C6501E090C40185
:10217000F090C5010091C6011091C7012091C801DE
:102180003091C9014091CA015091CB016091CC01BD
:102190007091CD01E3CF92E0A92EB12C6501E090C2
:1021A000B401F090B5010091B6011091B7012091F2
:1021B000B8013091B9014091BA015091BB016091D1
:1021C000BC017091BD01CACF1F920F920FB60F9242
:1021D00011248F939F938091E1009091E100937F70
:1021E0009093E10083FF0FC01092E90091E090937B
:1021F000EB001092EC0092E39093ED0010925301EB
:1022000098E09093F00082FF22C093E09093E90061
:102210009091F200992319F09AE39093E80090913D
:102220004501992341F090914501915090934501CA
:10223000911101C05D9890915201992341F09091C4
:102240005201915090935201911101C0289884FF3E
:1022500018C08091E2008E7E81608093E2008091C0
:10226000E1008F7E8093E100809144018E7E806149
:10227000809344019F918F910F900FBE0F901F90FC
:10228000189580FFF7CF8091E2008E7E8061809369
:10229000E2008091E1008E7E8093E1008091440114
:1022A0008E7E8160E5CF1F920F920FB60F921124A0
:1022B000CF92DF92EF92FF920F931F932F933F9352
:1022C0004F935F936F937F938F939F93AF93BF933E
:1022D000EF93FF93CF93DF93CDB7DEB76C97DEBF5D
:1022E000CDBF1092E9008091E80083FF25C068E02F
:1022F000CE0145960E94330A82EF8093E8008D89D3
:1023000087FF39C09091E80090FFFCCF982F90761E
:1023100009F034C19E894F89588D2F89F88C91110D
:1023200031C0803861F5809143018093F1001092B3
:10233000F1008EEF8093E8006C960FB6F894DEBF44
:102340000FBECDBFDF91CF91FF91EF91BF91AF91C4
:102350009F918F917F916F915F914F913F912F91BD
:102360001F910F91FF90EF90DF90CF900F900FBED5
:102370000F901F9018959EEF9093E800C7CF109292
:10238000F100D5CF913059F48111D3CF41305105AF
:1023900081F6809143018D7F80934301CACF9330B2
:1023A00049F48111C6CF4130510519F6809143019E
:1023B0008260F2CF953041F48091E80080FFFCCF3D
:1023C00020682093E300B5CF963009F0A9C00B8DAB
:1023D0001C8D22E01092E900109241011092400100
:1023E000F2122EC010923F0110923E010E94020A8A
:1023F0001F8299E09983FA8291E09E8390EA988700
:102400009AEF99872091400130914101275F3F4F1A
:102410003C832B838D831092E9001092410110922E
:10242000400110933F0100933E0149E050E0BE019E
:102430006F5F7F4F80E00E94DC090E94020A79CF23
:1024400010933F0100933E010E946709DC01129640
:102450000D911C910115110509F451C1D801ED919F
:10246000FC910480F581E02DBE016B5E7F4FC801B9
:102470000995009709F03EC1F80100851185EACF62
:10248000F3E0FF120EC08F89882309F440C0823028
:1024900061F440E86DE08DE391E00E94A9098111AB
:1024A00048CF81E28093EB0047CF813029F440E8A8
:1024B0006BE081E391E0F1CF833099F70E946709E7
:1024C000DC011296ED90FC908E010F5F1F4F6801AA
:1024D000E114F10479F0D701ED91FC910680F781C8
:1024E000E02DB801C7010995080F111DF701E0841F
:1024F000F184EECFD8011C92F60101900020E9F79B
:102500003197BF016C197D0940E0C601C6CF6BE170
:1025100071E0FB01449150E080E80E94DC0909CFA2
:10252000973009F4BECF983021F481E08093F10018
:1025300000CF993009F0FDCE837009F0B2CFEDE005
:10254000F1E081E031E096E32191222371F0809364
:10255000E9003093EB00DF0111972C912093EC0000
:102560009093ED008F5F873079F78EE78093EA00D4
:102570001092EA008F8980935301DBCE8B8D9C8D66
:102580001092E900109241011092400190933F0196
:1025900080933E01898D811192C08E899D89913AE7
:1025A00049F4813209F07DCF47E050E064E071E00A
:1025B00080E0B3CF913209F074CF833269F48F8910
:1025C000988DB0E0A0E08093000190930101A0936A
:1025D0000201B0930301ADCE803269F48091E8002E
:1025E00082FFFCCF67E084E091E00E94330A8BEF2A
:1025F0008093E8009ECE823209F09BCE8F89809333
:102600000B01EEEFFFE7859194918B3F9C4D51F1CB
:10261000E0E0F8E08091040190910501A0910601AD
:10262000B0910701803B9440A105B105F1F4809180
:102630000B0180FD1AC0EE3F8AE0F80789F587E7B5
:1026400097E791838083809160008093420188E1C5
:102650009BE00FB6F894A895809360000FBE90930E
:10266000600067CEEEEFFAE0D5CF808191818737A9
:10267000974709F05ECEA8958091600088618093AD
:1026800060008091420180936000EE3F2AE0F207F3
:1026900089F08091FE0A9091FF0A9183808349CE50
:1026A000808191818737980751F29093FF0A809338
:1026B000FE0AC5CF1092FF0A1092FE0A3ACE0E947F
:1026C0006709DC0112960D911C910115110509F4A1
:1026D000E8CED801ED91FC910190F081E02DBE0192
:1026E0006B5E7F4FC8010995811123CEF8010085EB
:1026F0001185EBCF181619060CF41BCED2CEF1E0E3
:10270000FF12BECE6FE171E004CF1F920F920FB6A1
:102710000F9211242F933F938F939F93AF93BF9367
:102720008091350190913601A0913701B091380127
:102730003091340123E0230F2D3758F50196A11D68
:10274000B11D209334018093350190933601A093FD
:102750003701B09338018091390190913A01A091ED
:102760003B01B0913C010196A11DB11D809339013F
:1027700090933A01A0933B01B0933C01BF91AF917C
:102780009F918F913F912F910F900FBE0F901F90AF
:10279000189526E8230F0296A11DB11DD2CF1F93D5
:1027A000CF93DF93109257011092560188EE93E079
:1027B000A0E0B0E08093580190935901A0935A0192
:1027C000B0935B0187E191E09093550180935401B0
:1027D0008FEF9FEF9093610180936001A0E8B0E0DC
:1027E000B093DF01A093DE01E0E4F0E0F093E101BB
:1027F000E093E00185EA9DE09093E3018093E2019C
:1028000063E070E07093D5016093D40144E050E040
:102810005093D7014093D60129E730E03093D90196
:102820002093D80185E390E09093DB018093DA0157
:10283000CEEDD1E0D093DD01C093DC01B093CF01A8
:10284000A093CE01F093D101E093D001C5EAD9E085
:10285000D093D301C093D2017093C5016093C4019A
:102860005093C7014093C6013093C9012093C8011A
:102870009093CB018093CA01CEECD1E0D093CD01EF
:10288000C093CC01B093BF01A093BE01F093C101EE
:10289000E093C001C5EAD5E0D093C301C093C20163
:1028A0007093B5016093B4015093B7014093B601A2
:1028B0003093B9012093B8019093BB018093BA0182
:1028C000CEEBD1E0D093BD01C093BC01B093AF017A
:1028D000A093AE01F093B101E093B001E5EAF1E01D
:1028E000F093B301E093B2017093A5016093A4014A
:1028F0005093A7014093A6013093A9012093A8010A
:102900009093AB018093AA018EEA91E09093AD0180
:102910008093AC011092E5011092E4011092E7015E
:102920001092E6011092E9011092E80180E580938F
:10293000EA0581E08093EB05CCEED5E01FEF18822D
:1029400019831B821A82CE0104960E941F0F1A87D8
:102950001C861B86CE010D960E941F0F1B8B649652
:1029600086E0CC33D80759F7DF91CF911F910895B6
:10297000CF93DF93CDB7DEB7AE970FB6F894DEBF37
:102980000FBECDBF789484B5826084BD84B581606C
:1029900084BD85B5826085BD85B5816085BD80912A
:1029A0006E00816080936E001092810080918100A2
:1029B000826080938100809181008160809381009A
:1029C000809180008160809380008091910082607E
:1029D000809391008091910081608093910080911B
:1029E00090008160809390008091C100846080930A
:1029F000C1008091C10082608093C1008091C100BC
:102A000081608093C1008091C30081608093C30086
:102A10008091C00082608093C0008091C20081607C
:102A20008093C20080917A00846080937A008091C4
:102A30007A00826080937A0080917A00816080932E
:102A40007A0080917A00806880937A001092530116
:102A500010924301109244018091D70081608093CD
:102A6000D70080EA8093D80089B5806189BD89B597
:102A7000826089BD09B400FEFDCF61E070E080E0B6
:102A800090E00E948A0B8091D8008F7C80618093B7
:102A9000D8008091E000807F8093E0008091E10089
:102AA0008E7E8093E1008DE08093E200559A209A1B
:102AB0005D9828988EE00E940D0982E10E940D0920
:102AC0008AE00E940D091FB7F89480913D018111A1
:102AD00024C0E8E7F1E08491E7E9F1E09491E82F80
:102AE000F0E0EE0FFF1FE75AFE4FA591B491EC9175
:102AF000E92321F461E081E10E940D0B81E10E9454
:102B00000D098CB580618CBD8CB580648CBD8FE067
:102B10000E940D0980E10E940D0980913D018F5FA7
:102B200080933D011FBF60E08AE00E940D0B61E0D1
:102B30008EE00E940D0B6AE070E080E090E00E9461
:102B40008A0B60E08EE00E940D0B6AE070E080E08E
:102B500090E00E948A0B61E08EE00E940D0B909144
:102B6000EA058091EB059CBD8DBD60E082E10E948D
:102B70000D0B8EEA0E94FF0880E40E94FF0864E6C5
:102B800081E80E94050981EA0E94FF0888EC0E9402
:102B9000FF0887EA0E94FF086FE388EA0E940509A0
:102BA0006BE88DEA0E94050982E30E94FF0860E05D
:102BB00083ED0E94050960E885ED0E94050962EF3A
:102BC00089ED0E94050962E18AED0E94050960E431
:102BD0008BED0E94050984EA0E94FF088FEA0E949B
:102BE000FF0864E670E080E090E00E948A0B64EFEA
:102BF00071E080E090E00E948A0B61E081E10E9438
:102C00000D0B61E08EE10E940D0B80E890E0909347
:102C1000E5018093E40180E490E09093E7018093E4
:102C2000E6018AEE91E09093E9018093E8018E013C
:102C3000065F1F4F89E0F80111928A95E9F7CE01EE
:102C40000C960E941F0FFF24FA94FA8A1A821982A6
:102C5000CE0103960E941F0FF986CE0101960E94B5
:102C6000250F84EE91E09A8389831EA21DA2CE01D6
:102C70004A960E941F0F82E490E19AA389A31CA2A6
:102C80001BA286E0FE01B196DE015A9601900D92DC
:102C90008A95E1F786E0FE017A96DE01539601906F
:102CA0000D928A95E1F7198E87E0FE017396DE0199
:102CB0005A9601900D928A95E1F787E0FE017A9687
:102CC000DE01919601900D928A95E1F787E0FE0171
:102CD000B196DE01989601900D928A95E1F786E013
:102CE000FE01B896DE01139601900D928A95E1F7E8
:102CF0001986B801CE0101960E94B20FCE0101964D
:102D00000E94250FC8010E94250F8FEF9FEF90931F
:102D10006101809360014DE050E065E271E084E57F
:102D200091E00E94BC0B41E050E061E371E084E57A
:102D300091E00E94BC0B2091E4013091E50180916B
:102D4000E6019091E701289FA001299F500D389F2F
:102D5000500D112457FF02C0495F5F4F93E0559516
:102D600047959A95E1F770E060E08091E8019091D5
:102D7000E9010E9456170E943B0B20E0E22E20E062
:102D8000F22E0CEE15E0F801218130E0F901E65455
:102D9000FF4F8491F901EA57FE4FD490F901E959A8
:102DA000FE4FC490CC2009F439C081110E94C10AA1
:102DB000EC2DF0E0EE0FFF1FE455FF4FA591B4910D
:102DC000EC91DE2231E020E009F430E0832F922FF5
:102DD0009C01F1E02F272170F8013081231741F089
:102DE00020836181892BE9F4C80102960E94E70ED5
:102DF0000C5E1F4FF6E00C331F0709F0C4CF0E9492
:102E00003B0B6AE070E080E090E00E948A0BE114E6
:102E1000F10409F4B6CF0E940000B3CF90E080E047
:102E2000D7CFC8010B96E2CFCF93DF93CCE3D6E0A8
:102E30006497CE010B960E94250FCE0102960E9448
:102E4000250F85E0CC3ED80799F7DF91CF91089503
:102E500097FB072E16F4009407D077FD09D00E9447
:102E6000421707FC05D03EF4909581959F4F089539
:102E7000709561957F4F0895EE0FFF1F0590F491B7
:102E8000E02D0994AA1BBB1B51E107C0AA1FBB1F61
:102E9000A617B70710F0A61BB70B881F991F5A95E6
:102EA000A9F780959095BC01CD010895DC0101C082
:102EB0006D9341505040E0F7089518E0C4EDD8E01C
:102EC00004C0FE010E943C172196C53DD107C9F7F9
:042ED000F894FFCFA4
:102ED400FFFFFFFF00E100000000000000C180814F
:102EE40000000000000000400ABC0B610A560AA75B
:102EF4000A650A830A4F4C4544204578616D706C1D
:042F0400650A00005A
:00000001FF
