:100000000C94D4180C94FC180C94FC180C94FC1848
:100010000C94FC180C94FC180C94FC180C94FC1810
:100020000C94FC180C94FC180C9405200C9474206F
:100030000C94FC180C94FC180C94FC180C94FC18F0
:100040000C94FC180C94FC180C94FC180C94FC18E0
:100050000C94FC180C94FC180C94FC180C94A6221C
:100060000C94FC180C94FC180C94FC180C94FC18C0
:100070000C94FC180C94FC180C94FC180C94FC18B0
:100080000C94FC180C94FC180C94FC180C94FC18A0
:100090000C94FC180C94FC180C94FC180C94FC1890
:1000A0000C94FC180C94FC180C94FC18080B00021F
:1000B0000202000009040000010202000005240001
:1000C0001001052401010104240206052406000193
:1000D0000705810310004009040100020A00000026
:1000E00007050202400000070583024000000403E8
:1000F000090412010002EF02014041233780000190
:100100000102030141726475696E6F204C4C43001B
:1001100041726475696E6F204D6963726F000000F3
:1001200000002300260029002C002F000000000200
:1001300000090F0000030401000C00000000000093
:10014000000000000000000000000000000000258A
:100150000028002B002E00310000000000240027A2
:10016000002A002D003000040404040403040502E6
:100170000202020403020202020606060606060442
:10018000040202020404040802011040804010200E
:10019000408040800802040180402010020110804D
:1001A00010204040200180000000000000000000FE
:1001B000000000018003C0000000000000000000FB
:1001C00000000003C0074000000000000000000025
:1001D00000000002E006E000000000000000000057
:1001E00000000007608843000000000000000000DD
:1001F0000000000211F04480000000000000000038
:10020000000000020F8648400000000000000000CF
:100210000000000261BC4847000000000000000030
:10022000000000023D8088488000000000000000BF
:1002300000000001018104908000003B800000006C
:1002400000000000817E03108000000FE400000029
:10025000000000007EFFF0110E00007EFE00000096
:100260000000000FFF001C0E110000DC3A0000002F
:1002700000000038000007002080000FCA000000C6
:10028000000000E0000001C02080000773000000B3
:1002900000000380000000701107E000B380000040
:1002A00000000E000000001C0E0E70CA83C000008B
:1002B0000000380000000007000C30CA8600000073
:1002C0000000E00000000001C01818BF8C00000012
:1002D0000003800000018000701818800C000000EE
:1002E000000E00018003C0001C1818838E0000005F
:1002F00000380003C0074000001818468C000000BA
:1003000000000002E006E00001FFFF3D8F0000005A
:10031000000000076088400001FFFF064E0000005B
:100320000000000211F0400001FFFF99CF800000A3
:10033000000000020F86400001FCFFCF48000000D3
:100340000000000261BC400001FE3DC0C80000008A
:10035000000000023D80800001FF19409F00000066
:10036000000000010181000000FFC321F9800000AE
:1003700000000000817E000000F803A10E80000054
:10038000000000007EFFF000007F00D1E980000047
:100390000000000FFF001C00007F80731C80000025
:1003A0000000003800000700003F1C3A9A8000005F
:1003B000000000E0000001C0001C7F1E75800000EE
:1003C00000000380000000700007E1C7E3000000A8
:1003D00000000E000000001C0000007057800000AC
:1003E0000000380000000007000000184E800000E8
:1003F0000000E00000000001C000000E5CC0000032
:10040000000380000000000070000005F1400000C3
:10041000000E0000000000001C00000E064000005E
:1004200000380000000000000000000988C0000043
:1004300000000000000000000000000C71400000FF
:1004400000000000000000000000000B024000005F
:10045000000000000000000000000008FC40000058
:1004600000000000000000000000001C00FF000071
:10047000000000000000000000000036E181E00004
:10048000000000000000000000000063FF002000EA
:100490000000000000000000000001C0E00020009B
:1004A000000000000000000000000700003C2000E9
:1004B000000000000000000000001C0FFFE820000A
:1004C000000000000000000000003038000820009C
:1004D0000000000000000000000020F000082700DD
:1004E00000000000000000000000202000183F80F5
:1004F0000000000000000000000020300010E0803C
:10050000000000000000000000003018003381806F
:1005100000000000000000000000180C00267F0012
:10052000000000000000000000001806002D8600FA
:1005300000000000000000000000083F007A3800C2
:1005400000000000000000000003FFF300746000E2
:10055000000000000000000000026503006CC00005
:100560000000000000000000000300060071800091
:1005700000000000000000000001FFFC001F000060
:10058000000000000000000000000000000000006B
:10059000000000000000000000000000000000005B
:1005A00000000000000180000000000000000000CA
:1005B000000000018003C0000000000000000000F7
:1005C00000000003C0074000000000000000000021
:1005D00000000002E006E000000000000000000053
:1005E00000000007608843000000000000000000D9
:1005F0000000000211F04480000000000000000034
:10060000000000020F8648400000000000000000CB
:100610000000000261BC484700000000000000002C
:10062000000000023D8088488000000000000000BB
:1006300000000001018104908000003B8000000068
:1006400000000000817E03108000000FE400000025
:10065000000000007EFFF0110E00007EFE00000092
:100660000000000FFF001C0E110000DC3A0000002B
:1006700000000038000007002080000FCA000000C2
:10068000000000E0000001C02080000773000000AF
:10069000000003800000007011000000B380000023
:1006A00000000E000000001C0E0000C083C000000F
:1006B0000000380000000007000000CA86000000AB
:1006C0000000E00000000001C00000BF8C0000003E
:1006D0000003800000018000700000800C0000001A
:1006E000000E00018003C000180000838E0000008F
:1006F00000380003C0074000000000468C000000E6
:1007000000000002E006E0000000003D8F00000055
:100710000000000760884000000000064E00000056
:100720000000000211F0400000000019CF8000001E
:10073000000000020F8640000000000F480000008B
:100740000000000261BC400000000000C800000082
:10075000000000023D808000000000009F000000BB
:10076000000000010181000000000001F98000008C
:1007700000000000817E0000000000010E800000EB
:10078000000000007EFFF000000F8001E980000003
:100790000000000FFF001C000E1BC0031C800000A7
:1007A0000000003800000700113060069A80000049
:1007B000000000E0000001C020B077077580000055
:1007C000000003800000007020B03F8DC3000000D7
:1007D00000000E000000001C11307EF79780000022
:1007E00000003800000000070E31FE4CCE800000F3
:1007F0000000E00000000001C01BFE705CC00000B3
:100800000003800000000000701F8E007140000097
:10081000000E0000000000001C3FC001C6400000A8
:10082000003800000000000000FFF80708C00000CA
:10083000000000000000000000FFF01C71400000FC
:100840000000000000000000007FE06B024000009C
:100850000000000000000000007F84E8FC40000071
:100860000000000000000000003FF9DC00FF000075
:100870000000000000000000001FF9B6E181E00068
:100880000000000000000000000FF363FF002000E4
:1008900000000000000000000007FDC0E000200094
:1008A00000000000000000000001F700003C2000F4
:1008B000000000000000000000001C0FFFE8200006
:1008C0000000000000000000000030380008200098
:1008D0000000000000000000000020F000082700D9
:1008E00000000000000000000000202000183F80F1
:1008F0000000000000000000000020300010E08038
:10090000000000000000000000003018003381806B
:1009100000000000000000000000180C00267F000E
:10092000000000000000000000001806002D8600F6
:1009300000000000000000000000083F007A3800BE
:1009400000000000000000000003FFF300746000DE
:10095000000000000000000000026503006CC00001
:10096000000000000000000000030006007180008D
:1009700000000000000000000001FFFC001F00005C
:100980000000000000000000000000000000000067
:100990000000000000000000000000000000000057
:1009A00000000000000180000000000000000000C6
:1009B000000000018003C0000000000000000000F3
:1009C00000000003C007400000000000000000001D
:1009D00000000002E006E00000000000000000004F
:1009E00000000007608843000000000000000000D5
:1009F0000000000211F04480000000000000000030
:100A0000000000020F8648400000000000000000C7
:100A10000000000261BC4847000000000000000028
:100A2000000000023D8088488000000000000000B7
:100A300000000001018104908000003B8000000064
:100A400000000000817E03108000000FE400000021
:100A5000000000007EFFF0110E00007EFE0000008E
:100A60000000000FFF001C0E110000DC3A00000027
:100A700000000038000007002080000FCA000000BE
:100A8000000000E0000001C020800007F30000002B
:100A9000000003800000007011000001B38000001E
:100AA00000000E000000001C0E0000CA83C0000001
:100AB0000000380000000007000000CA86000000A7
:100AC0000000E00000000001C00000BF8C0000003A
:100AD0000003800000018000700000800C00000016
:100AE000000E00018003C000180000838E0000008B
:100AF00000380003C0074000000000468C000000E2
:100B000000000002E006E0000000003D8F00000051
:100B10000000000760884000000000064E00000052
:100B20000000000211F0400000000019CF8000001A
:100B3000000000020F8640000000000F4800000087
:100B40000000000261BC400000000000C80000007E
:100B5000000000023D808000000000009F000000B7
:100B6000000000010181000000000001F980000088
:100B700000000000817E0000000000010E800000E7
:100B8000000000007EFFF000000F8001E9800000FF
:100B90000000000FFF001C000E1BC0031C800000A3
:100BA0000000003800000700113060069A80000045
:100BB000000000E0000001C020B0770F7580000049
:100BC000000003800000007020A03BB5C3000000BF
:100BD00000000E000000001C113072E7978000003A
:100BE00000003800000000070E31824CCE8000006B
:100BF0000000E00000000001C01BFE705CC00000AF
:100C00000003800000000000701C8600714000009E
:100C1000000E0000000000001C21C001C6400000C2
:100C2000003800000000000000C0380708C00000C5
:100C300000000000000000000080101C7140000057
:100C400000000000000000000040E06B02400000D7
:100C50000000000000000000004184C8FC400000CB
:100C600000000000000000000020F99C00FF0000D0
:100C70000000000000000000001009B6E181E00063
:100C80000000000000000000000833E3FF00200027
:100C9000000000000000000000061FC0E00020006F
:100CA000000000000000000000018F00003C200058
:100CB000000000000000000000006C0FFFE82000B2
:100CC0000000000000000000000030380008200094
:100CD0000000000000000000000020F000082700D5
:100CE00000000000000000000000202000183F80ED
:100CF0000000000000000000000020300010E08034
:100D00000000000000000000000030180033818067
:100D100000000000000000000000180C00267F000A
:100D2000000000000000000000001806002D8600F2
:100D300000000000000000000000083F007A3800BA
:100D400000000000000000000003FFF300746000DA
:100D5000000000000000000000026503006CC000FD
:100D60000000000000000000000300060071800089
:100D700000000000000000000001FFFC001F000058
:100D80000000000000000000000000000000000063
:100D90000000000000000000000000000000000053
:100DA00000000000000180000000000000000000C2
:100DB000000000018003C0000000000000000000EF
:100DC00000000003C0074000000000000000000019
:100DD00000000002E006E00000000000000000004B
:100DE00000000007608843000000000000000000D1
:100DF0000000000211F0448000000000000000002C
:100E0000000000020F8648400000000000000000C3
:100E10000000000261BC4847000000000000000024
:100E2000000000023D8088488000000000000000B3
:100E300000000001018104908000003B8000000060
:100E400000000000817E03108000000FE40000001D
:100E5000000000007EFFF0110E00007EFE0000008A
:100E60000000000FFF001C0E110000DC3A00000023
:100E700000000038000007002080000FCA000000BA
:100E8000000000E0000001C02080000773000000A7
:100E900000000380000000701107E000B380000034
:100EA00000000E000000001C0E0E70CA83C000007F
:100EB0000000380000000007000C30CA8600000067
:100EC0000000E00000000001C01818BF8C00000006
:100ED0000003800000018000701818800C000000E2
:100EE000000E00018003C0001C1818838E00000053
:100EF00000380003C0074000001818468C000000AE
:100F000000000002E006E00001FFFF3D8F0000004E
:100F10000000000760884000010001064E0000004C
:100F20000000000211F0400001070199CF8000008D
:100F3000000000020F8640000104C7CF48000000F7
:100F40000000000261BC400001032DC0C800000089
:100F5000000000023D808000010199409F000000D8
:100F600000000001018100000087C321F98000001A
:100F700000000000817E0000008803A10E800000B8
:100F8000000000007EFFF000004700D1E980000073
:100F90000000000FFF001C00004180731C80000057
:100FA000000000380000070000371C3A9A8000005B
:100FB000000000E0000001C0000C771E75800000FA
:100FC00000000380000000700003C1C7E3000000C0
:100FD00000000E000000001C0000007057800000A0
:100FE0000000380000000007000000184E800000DC
:100FF0000000E00000000001C000000E5CC0000026
:10100000000380000000000070000005F1400000B7
:10101000000E0000000000001C00000E0640000052
:1010200000380000000000000000000988C0000037
:1010300000000000000000000000000C71400000F3
:1010400000000000000000000000000B0240000053
:10105000000000000000000000000008FC4000004C
:1010600000000000000000000000001C00FF000065
:10107000000000000000000000000036E181E000F8
:10108000000000000000000000000063FF002000DE
:101090000000000000000000000001C0E00020008F
:1010A000000000000000000000000700003C2000DD
:1010B000000000000000000000001C0FFFE82000FE
:1010C0000000000000000000000030380008200090
:1010D0000000000000000000000020F000082700D1
:1010E00000000000000000000000202000183F80E9
:1010F0000000000000000000000020300010E08030
:101100000000000000000000000030180033818063
:1011100000000000000000000000180C00267F0006
:10112000000000000000000000001806002D8600EE
:1011300000000000000000000000083F007A3800B6
:1011400000000000000000000003FFF300746000D6
:10115000000000000000000000026503006CC000F9
:101160000000000000000000000300060071800085
:1011700000000000000000000001FFFC001F000054
:10118000000000000000000000000000000000005F
:10119000000000000000000000000000000000004F
:1011A00000000000000180000000000000000000BE
:1011B000000000018003C0000000000000000000EB
:1011C00000000003C0074000000000000000000015
:1011D00000000002E006E000000000000000000047
:1011E00000000007608843000000000000000000CD
:1011F0000000000211F04480000000000000000028
:10120000000000020F8648400000000000000000BF
:101210000000000261BC4847000000000000000020
:10122000000000023D8088488000000000000000AF
:1012300000000001018104908000003B800000005C
:1012400000000000817E03108000000FE400000019
:10125000000000007EFFF0110E00007EFE00000086
:101260000000000FFF001C0E110000DC3A0000001F
:1012700000000038000007002080000FCA000000B6
:10128000000000E0000001C02080000773000000A3
:1012900000000380000000701107E000B380000030
:1012A00000000E000000001C0E0E70CA83C000007B
:1012B0000000380000000007000C30CA8600000063
:1012C0000000E00000000001C01818BF8C00000002
:1012D0000003800000018000701818800C000000DE
:1012E000000E00018003C0001C1818838E0000004F
:1012F00000380003C0074000001818468C000000AA
:1013000000000002E006E00001FFFF3D8F0000004A
:10131000000000076088400001FFFF064E0000004B
:101320000000000211F0400001FFFF99CF80000093
:10133000000000020F86400001FCFFCF48000000C3
:101340000000000261BC400001FE3DC0C80000007A
:10135000000000023D80800001FF19409F00000056
:10136000000000010181000000FFC321F98000009E
:1013700000000000817E000000F803A10E80000044
:10138000000000007EFFF000007F00D1E980000037
:101390000000000FFF001C00007F80731C80000015
:1013A0000000003800000700003F1C3A9A8000004F
:1013B000000000E0000001C0001C7F1E75800000DE
:1013C00000000380000000700007E1C7E300000098
:1013D00000000E000000001C00000070578000009C
:1013E0000000380000000007000000184E800000D8
:1013F0000000E00000000001C000000E5CC0000022
:10140000000380000000000070000005F1400000B3
:10141000000E0000000000001C00000E064000004E
:1014200000380000000000000000000988C0000033
:1014300000000000000000000000000C71400000EF
:1014400000000000000000000000000B024000004F
:10145000000000000000000000000008FC40000048
:1014600000000000000000000000001C00FF000061
:10147000000000000000000000000036E181E000F4
:10148000000000000000000000000063FF002000DA
:101490000000000000000000000001C0E00020008B
:1014A000000000000000000000000700003C2000D9
:1014B000000000000000000000001C0FFFE82000FA
:1014C000000000000000000000003038000820008C
:1014D0000000000000000000000020F000082700CD
:1014E00000000000000000000000202000183F80E5
:1014F0000000000000000000000020300010E0802C
:10150000000000000000000000003018003381805F
:1015100000000000000000000000180C00267F0002
:10152000000000000000000000001806002D8600EA
:1015300000000000000000000000083F007A3800B2
:1015400000000000000000000003FFF300746000D2
:10155000000000000000000000026503006CC000F5
:101560000000000000000000000300060071800081
:1015700000000000000000000001FFFC001F000050
:10158000000000000000000000000000000000005B
:10159000000000000000000000000000000000004B
:1015A00000000000000180000000000000000000BA
:1015B000000000018003C0000000000000000000E7
:1015C00000000003C0074000000000000000000011
:1015D00000000002E006E000000000000000000043
:1015E00000000007608843000000000000000000C9
:1015F0000000000211F04480000000000000000024
:10160000000000020F8648400000000000000000BB
:101610000000000261BC484700000000000000001C
:10162000000000023D8088488000000000000000AB
:1016300000000001018104908000003B8000000058
:1016400000000000817E03108000000FE400000015
:10165000000000007EFFF0110E00007EFE00000082
:101660000000000FFF001C0E110000DC3A0000001B
:1016700000000038000007002080000FCA000000B2
:10168000000000E0000001C020800007730000009F
:10169000000003800000007011000000B380000013
:1016A00000000E000000001C0E0000C083C00000FF
:1016B0000000380000000007000000CA860000009B
:1016C0000000E00000000001C00000BF8C0000002E
:1016D0000003800000018000700000800C0000000A
:1016E000000E00018003C000180000838E0000007F
:1016F00000380003C0074000000000468C000000D6
:1017000000000002E006E0000000003D8F00000045
:101710000000000760884000000000064E00000046
:101720000000000211F0400000000019CF8000000E
:10173000000000020F8640000000000F480000007B
:101740000000000261BC400000000000C800000072
:10175000000000023D808000000000009F000000AB
:10176000000000010181000000000001F98000007C
:1017700000000000817E0000000000010E800000DB
:10178000000000007EFFF000000F8001E9800000F3
:101790000000000FFF001C000E1BC0031C80000097
:1017A0000000003800000700113060069A80000039
:1017B000000000E0000001C020B077077580000045
:1017C000000003800000007020B03F8DC3000000C7
:1017D00000000E000000001C11307EF79780000012
:1017E00000003800000000070E31FE4CCE800000E3
:1017F0000000E00000000001C01BFE705CC00000A3
:101800000003800000000000701F8E007140000087
:10181000000E0000000000001C3FC001C640000098
:10182000003800000000000000FFF80708C00000BA
:10183000000000000000000000FFF01C71400000EC
:101840000000000000000000007FE06B024000008C
:101850000000000000000000007F84E8FC40000061
:101860000000000000000000003FF9DC00FF000065
:101870000000000000000000001FF9B6E181E00058
:101880000000000000000000000FF363FF002000D4
:1018900000000000000000000007FDC0E000200084
:1018A00000000000000000000001F700003C2000E4
:1018B000000000000000000000001C0FFFE82000F6
:1018C0000000000000000000000030380008200088
:1018D0000000000000000000000020F000082700C9
:1018E00000000000000000000000202000183F80E1
:1018F0000000000000000000000020300010E08028
:10190000000000000000000000003018003381805B
:1019100000000000000000000000180C00267F00FE
:10192000000000000000000000001806002D8600E6
:1019300000000000000000000000083F007A3800AE
:1019400000000000000000000003FFF300746000CE
:10195000000000000000000000026503006CC000F1
:10196000000000000000000000030006007180007D
:1019700000000000000000000001FFFC001F00004C
:101980000000000000000000000000000000000057
:101990000000000000000000000000000000000047
:1019A00000000000000180000000000000000000B6
:1019B000000000018003C0000000000000000000E3
:1019C00000000003C007400000000000000000000D
:1019D00000000002E006E00000000000000000003F
:1019E00000000007608843000000000000000000C5
:1019F0000000000211F04480000000000000000020
:101A0000000000020F8648400000000000000000B7
:101A10000000000261BC4847000000000000000018
:101A2000000000023D8088488000000000000000A7
:101A300000000001018104908000003B8000000054
:101A400000000000817E03108000000FE400000011
:101A5000000000007EFFF0110E00007EFE0000007E
:101A60000000000FFF001C0E110000DC3A00000017
:101A700000000038000007002080000FCA000000AE
:101A8000000000E0000001C020800007F30000001B
:101A9000000003800000007011000001B38000000E
:101AA00000000E000000001C0E0000CA83C00000F1
:101AB0000000380000000007000000CA8600000097
:101AC0000000E00000000001C00000BF8C0000002A
:101AD0000003800000018000700000800C00000006
:101AE000000E00018003C000180000838E0000007B
:101AF00000380003C0074000000000468C000000D2
:101B000000000002E006E0000000003D8F00000041
:101B10000000000760884000000000064E00000042
:101B20000000000211F0400000000019CF8000000A
:101B3000000000020F8640000000000F4800000077
:101B40000000000261BC400000000000C80000006E
:101B5000000000023D808000000000009F000000A7
:101B6000000000010181000000000001F980000078
:101B700000000000817E0000000000010E800000D7
:101B8000000000007EFFF000000F8001E9800000EF
:101B90000000000FFF001C000E1BC0031C80000093
:101BA0000000003800000700113060069A80000035
:101BB000000000E0000001C020B0770F7580000039
:101BC000000003800000007020A03BB5C3000000AF
:101BD00000000E000000001C113072E7978000002A
:101BE00000003800000000070E31824CCE8000005B
:101BF0000000E00000000001C01BFE705CC000009F
:101C00000003800000000000701C8600714000008E
:101C1000000E0000000000001C21C001C6400000B2
:101C2000003800000000000000C0380708C00000B5
:101C300000000000000000000080101C7140000047
:101C400000000000000000000040E06B02400000C7
:101C50000000000000000000004184C8FC400000BB
:101C600000000000000000000020F99C00FF0000C0
:101C70000000000000000000001009B6E181E00053
:101C80000000000000000000000833E3FF00200017
:101C9000000000000000000000061FC0E00020005F
:101CA000000000000000000000018F00003C200048
:101CB000000000000000000000006C0FFFE82000A2
:101CC0000000000000000000000030380008200084
:101CD0000000000000000000000020F000082700C5
:101CE00000000000000000000000202000183F80DD
:101CF0000000000000000000000020300010E08024
:101D00000000000000000000000030180033818057
:101D100000000000000000000000180C00267F00FA
:101D2000000000000000000000001806002D8600E2
:101D300000000000000000000000083F007A3800AA
:101D400000000000000000000003FFF300746000CA
:101D5000000000000000000000026503006CC000ED
:101D60000000000000000000000300060071800079
:101D700000000000000000000001FFFC001F000048
:101D80000000000000000000000000000000000053
:101D90000000000000000000000000000000000043
:101DA00000000000000180000000000000000000B2
:101DB000000000018003C0000000000000000000DF
:101DC00000000003C0074000000000000000000009
:101DD00000000002E006E00000000000000000003B
:101DE00000000007608843000000000000000000C1
:101DF0000000000211F0448000000000000000001C
:101E0000000000020F8648400000000000000000B3
:101E10000000000261BC4847000000000000000014
:101E2000000000023D8088488000000000000000A3
:101E300000000001018104908000003B8000000050
:101E400000000000817E03108000000FE40000000D
:101E5000000000007EFFF0110E00007EFE0000007A
:101E60000000000FFF001C0E110000DC3A00000013
:101E700000000038000007002080000FCA000000AA
:101E8000000000E0000001C0208000077300000097
:101E900000000380000000701107E000B380000024
:101EA00000000E000000001C0E0E70CA83C000006F
:101EB0000000380000000007000C30CA8600000057
:101EC0000000E00000000001C01818BF8C000000F6
:101ED0000003800000018000701818800C000000D2
:101EE000000E00018003C0001C1818838E00000043
:101EF00000380003C0074000001818468C0000009E
:101F000000000002E006E00001FFFF3D8F0000003E
:101F10000000000760884000010001064E0000003C
:101F20000000000211F0400001070199CF8000007D
:101F3000000000020F8640000104C7CF48000000E7
:101F40000000000261BC400001032DC0C800000079
:101F5000000000023D808000010199409F000000C8
:101F600000000001018100000087C321F98000000A
:101F700000000000817E0000008803A10E800000A8
:101F8000000000007EFFF000004700D1E980000063
:101F90000000000FFF001C00004180731C80000047
:101FA000000000380000070000371C3A9A8000004B
:101FB000000000E0000001C0000C771E75800000EA
:101FC00000000380000000700003C1C7E3000000B0
:101FD00000000E000000001C000000705780000090
:101FE0000000380000000007000000184E800000CC
:101FF0000000E00000000001C000000E5CC0000016
:10200000000380000000000070000005F1400000A7
:10201000000E0000000000001C00000E0640000042
:1020200000380000000000000000000988C0000027
:1020300000000000000000000000000C71400000E3
:1020400000000000000000000000000B0240000043
:10205000000000000000000000000008FC4000003C
:1020600000000000000000000000001C00FF000055
:10207000000000000000000000000036E181E000E8
:10208000000000000000000000000063FF002000CE
:102090000000000000000000000001C0E00020007F
:1020A000000000000000000000000700003C2000CD
:1020B000000000000000000000001C0FFFE82000EE
:1020C0000000000000000000000030380008200080
:1020D0000000000000000000000020F000082700C1
:1020E00000000000000000000000202000183F80D9
:1020F0000000000000000000000020300010E08020
:102100000000000000000000000030180033818053
:1021100000000000000000000000180C00267F00F6
:10212000000000000000000000001806002D8600DE
:1021300000000000000000000000083F007A3800A6
:1021400000000000000000000003FFF300746000C6
:10215000000000000000000000026503006CC000E9
:102160000000000000000000000300060071800075
:1021700000000000000000000001FFFC001F000044
:10218000000000000000000000000000000000004F
:10219000000000000000000000000000000000003F
:1021A00000000000000180000000000000000000AE
:1021B000000000018003C0000000000000000000DB
:1021C00000000003C0074000000000000000000005
:1021D00000000002E006E000000000000000000037
:1021E00000000007608843000000000000000000BD
:1021F0000000000211F04480000000000000000018
:10220000000000020F8648400000000000000000AF
:102210000000000261BC4847000000000000000010
:10222000000000023D80884880000000000000009F
:1022300000000001018104908000003B800000004C
:1022400000000000817E03108000000FE400000009
:10225000000000007EFFF0110E00007EFE00000076
:102260000000000FFF001C0E110000DC3A0000000F
:1022700000000038000007002080000FCA000000A6
:10228000000000E0000001C0208000077300000093
:1022900000000380000000701107E000B380000020
:1022A00000000E000000001C0E0E70CA83C000006B
:1022B0000000380000000007000C30CA8600000053
:1022C0000000E00000000001C01818BF8C000000F2
:1022D0000003800000018000701818800C000000CE
:1022E000000E00018003C0001C1818838E0000003F
:1022F00000380003C0074000001818468C0000009A
:1023000000000002E006E00001FFFF3D8F0000003A
:10231000000000076088400001FFFF064E0000003B
:102320000000000211F0400001FFFF99CF80000083
:10233000000000020F86400001FCFFCF48000000B3
:102340000000000261BC400001FE3DC0C80000006A
:10235000000000023D80800001FF19409F00000046
:10236000000000010181000000FFC321F98000008E
:1023700000000000817E000000F803A10E80000034
:10238000000000007EFFF000007F00D1E980000027
:102390000000000FFF001C00007F80731C80000005
:1023A0000000003800000700003F1C3A9A8000003F
:1023B000000000E0000001C0001C7F1E75800000CE
:1023C00000000380000000700007E1C7E300000088
:1023D00000000E000000001C00000070578000008C
:1023E0000000380000000007000000184E800000C8
:1023F0000000E00000000001C000000E5CC0000012
:10240000000380000000000070000005F1400000A3
:10241000000E0000000000001C00000E064000003E
:1024200000380000000000000000000988C0000023
:1024300000000000000000000000000C71400000DF
:1024400000000000000000000000000B024000003F
:10245000000000000000000000000008FC40000038
:1024600000000000000000000000001C00FF000051
:10247000000000000000000000000036E181E000E4
:10248000000000000000000000000063FF002000CA
:102490000000000000000000000001C0E00020007B
:1024A000000000000000000000000700003C2000C9
:1024B000000000000000000000001C0FFFE82000EA
:1024C000000000000000000000003038000820007C
:1024D0000000000000000000000020F000082700BD
:1024E00000000000000000000000202000183F80D5
:1024F0000000000000000000000020300010E0801C
:10250000000000000000000000003018003381804F
:1025100000000000000000000000180C00267F00F2
:10252000000000000000000000001806002D8600DA
:1025300000000000000000000000083F007A3800A2
:1025400000000000000000000003FFF300746000C2
:10255000000000000000000000026503006CC000E5
:102560000000000000000000000300060071800071
:1025700000000000000000000001FFFC001F000040
:10258000000000000000000000000000000000004B
:10259000000000000000000000000000000000003B
:1025A00000000000000180000000000000000000AA
:1025B000000000018003C0000000000000000000D7
:1025C00000000003C0074000000000000000000001
:1025D00000000002E006E000000000000000000033
:1025E00000000007608843000000000000000000B9
:1025F0000000000211F04480000000000000000014
:10260000000000020F8648400000000000000000AB
:102610000000000261BC484700000000000000000C
:10262000000000023D80884880000000000000009B
:1026300000000001018104908000003B8000000048
:1026400000000000817E03108000000FE400000005
:10265000000000007EFFF0110E00007EFE00000072
:102660000000000FFF001C0E110000DC3A0000000B
:1026700000000038000007002080000FCA000000A2
:10268000000000E0000001C020800007730000008F
:10269000000003800000007011000000B380000003
:1026A00000000E000000001C0E0000C083C00000EF
:1026B0000000380000000007000000CA860000008B
:1026C0000000E00000000001C00000BF8C0000001E
:1026D0000003800000018000700000800C000000FA
:1026E000000E00018003C000180000838E0000006F
:1026F00000380003C0074000000000468C000000C6
:1027000000000002E006E0000000003D8F00000035
:102710000000000760884000000000064E00000036
:102720000000000211F0400000000019CF800000FE
:10273000000000020F8640000000000F480000006B
:102740000000000261BC400000000000C800000062
:10275000000000023D808000000000009F0000009B
:10276000000000010181000000000001F98000006C
:1027700000000000817E0000000000010E800000CB
:10278000000000007EFFF000000F8001E9800000E3
:102790000000000FFF001C000E1BC0031C80000087
:1027A0000000003800000700113060069A80000029
:1027B000000000E0000001C020B077077580000035
:1027C000000003800000007020B03F8DC3000000B7
:1027D00000000E000000001C11307EF79780000002
:1027E00000003800000000070E31FE4CCE800000D3
:1027F0000000E00000000001C01BFE705CC0000093
:102800000003800000000000701F8E007140000077
:10281000000E0000000000001C3FC001C640000088
:10282000003800000000000000FFF80708C00000AA
:10283000000000000000000000FFF01C71400000DC
:102840000000000000000000007FE06B024000007C
:102850000000000000000000007F84E8FC40000051
:102860000000000000000000003FF9DC00FF000055
:102870000000000000000000001FF9B6E181E00048
:102880000000000000000000000FF363FF002000C4
:1028900000000000000000000007FDC0E000200074
:1028A00000000000000000000001F700003C2000D4
:1028B000000000000000000000001C0FFFE82000E6
:1028C0000000000000000000000030380008200078
:1028D0000000000000000000000020F000082700B9
:1028E00000000000000000000000202000183F80D1
:1028F0000000000000000000000020300010E08018
:10290000000000000000000000003018003381804B
:1029100000000000000000000000180C00267F00EE
:10292000000000000000000000001806002D8600D6
:1029300000000000000000000000083F007A38009E
:1029400000000000000000000003FFF300746000BE
:10295000000000000000000000026503006CC000E1
:10296000000000000000000000030006007180006D
:1029700000000000000000000001FFFC001F00003C
:102980000000000000000000000000000000000047
:102990000000000000000000000000000000000037
:1029A00000000000000180000000000000000000A6
:1029B000000000018003C0000000000000000000D3
:1029C00000000003C00740000000000000000000FD
:1029D00000000002E006E00000000000000000002F
:1029E00000000007608843000000000000000000B5
:1029F0000000000211F04480000000000000000010
:102A0000000000020F8648400000000000000000A7
:102A10000000000261BC4847000000000000000008
:102A2000000000023D808848800000000000000097
:102A300000000001018104908000003B8000000044
:102A400000000000817E03108000000FE400000001
:102A5000000000007EFFF0110E00007EFE0000006E
:102A60000000000FFF001C0E110000DC3A00000007
:102A700000000038000007002080000FCA0000009E
:102A8000000000E0000001C020800007F30000000B
:102A9000000003800000007011000001B3800000FE
:102AA00000000E000000001C0E0000CA83C00000E1
:102AB0000000380000000007000000CA8600000087
:102AC0000000E00000000001C00000BF8C0000001A
:102AD0000003800000018000700000800C000000F6
:102AE000000E00018003C000180000838E0000006B
:102AF00000380003C0074000000000468C000000C2
:102B000000000002E006E0000000003D8F00000031
:102B10000000000760884000000000064E00000032
:102B20000000000211F0400000000019CF800000FA
:102B3000000000020F8640000000000F4800000067
:102B40000000000261BC400000000000C80000005E
:102B5000000000023D808000000000009F00000097
:102B6000000000010181000000000001F980000068
:102B700000000000817E0000000000010E800000C7
:102B8000000000007EFFF000000F8001E9800000DF
:102B90000000000FFF001C000E1BC0031C80000083
:102BA0000000003800000700113060069A80000025
:102BB000000000E0000001C020B0770F7580000029
:102BC000000003800000007020A03BB5C30000009F
:102BD00000000E000000001C113072E7978000001A
:102BE00000003800000000070E31824CCE8000004B
:102BF0000000E00000000001C01BFE705CC000008F
:102C00000003800000000000701C8600714000007E
:102C1000000E0000000000001C21C001C6400000A2
:102C2000003800000000000000C0380708C00000A5
:102C300000000000000000000080101C7140000037
:102C400000000000000000000040E06B02400000B7
:102C50000000000000000000004184C8FC400000AB
:102C600000000000000000000020F99C00FF0000B0
:102C70000000000000000000001009B6E181E00043
:102C80000000000000000000000833E3FF00200007
:102C9000000000000000000000061FC0E00020004F
:102CA000000000000000000000018F00003C200038
:102CB000000000000000000000006C0FFFE8200092
:102CC0000000000000000000000030380008200074
:102CD0000000000000000000000020F000082700B5
:102CE00000000000000000000000202000183F80CD
:102CF0000000000000000000000020300010E08014
:102D00000000000000000000000030180033818047
:102D100000000000000000000000180C00267F00EA
:102D2000000000000000000000001806002D8600D2
:102D300000000000000000000000083F007A38009A
:102D400000000000000000000003FFF300746000BA
:102D5000000000000000000000026503006CC000DD
:102D60000000000000000000000300060071800069
:102D700000000000000000000001FFFC001F000038
:102D80000000000000000000000000000000000043
:102D90000000000000000000000000000000000033
:102DA00000000000000180000000000000000000A2
:102DB000000000018003C0000000000000000000CF
:102DC00000000003C00740000000000000000000F9
:102DD00000000002E006E00000000000000000002B
:102DE00000000007608843000000000000000000B1
:102DF0000000000211F0448000000000000000000C
:102E0000000000020F8648400000000000000000A3
:102E10000000000261BC4847000000000000000004
:102E2000000000023D808848800000000000000093
:102E300000000001018104908000003B8000000040
:102E400000000000817E03108000000FE4000000FD
:102E5000000000007EFFF0110E00007EFE0000006A
:102E60000000000FFF001C0E110000DC3A00000003
:102E700000000038000007002080000FCA0000009A
:102E8000000000E0000001C0208000077300000087
:102E900000000380000000701107E000B380000014
:102EA00000000E000000001C0E0E70CA83C000005F
:102EB0000000380000000007000C30CA8600000047
:102EC0000000E00000000001C01818BF8C000000E6
:102ED0000003800000018000701818800C000000C2
:102EE000000E00018003C0001C1818838E00000033
:102EF00000380003C0074000001818468C0000008E
:102F000000000002E006E00001FFFF3D8F0000002E
:102F10000000000760884000010001064E0000002C
:102F20000000000211F0400001070199CF8000006D
:102F3000000000020F8640000104C7CF48000000D7
:102F40000000000261BC400001032DC0C800000069
:102F5000000000023D808000010199409F000000B8
:102F600000000001018100000087C321F9800000FA
:102F700000000000817E0000008803A10E80000098
:102F8000000000007EFFF000004700D1E980000053
:102F90000000000FFF001C00004180731C80000037
:102FA000000000380000070000371C3A9A8000003B
:102FB000000000E0000001C0000C771E75800000DA
:102FC00000000380000000700003C1C7E3000000A0
:102FD00000000E000000001C000000705780000080
:102FE0000000380000000007000000184E800000BC
:102FF0000000E00000000001C000000E5CC0000006
:10300000000380000000000070000005F140000097
:10301000000E0000000000001C00000E0640000032
:1030200000380000000000000000000988C0000017
:1030300000000000000000000000000C71400000D3
:1030400000000000000000000000000B0240000033
:10305000000000000000000000000008FC4000002C
:1030600000000000000000000000001C00FF000045
:10307000000000000000000000000036E181E000D8
:10308000000000000000000000000063FF002000BE
:103090000000000000000000000001C0E00020006F
:1030A000000000000000000000000700003C2000BD
:1030B000000000000000000000001C0FFFE82000DE
:1030C0000000000000000000000030380008200070
:1030D0000000000000000000000020F000082700B1
:1030E00000000000000000000000202000183F80C9
:1030F0000000000000000000000020300010E08010
:103100000000000000000000000030180033818043
:1031100000000000000000000000180C00267F00E6
:10312000000000000000000000001806002D8600CE
:1031300000000000000000000000083F007A380096
:1031400000000000000000000003FFF300746000B6
:10315000000000000000000000026503006CC000D9
:103160000000000000000000000300060071800065
:1031700000000000000000000001FFFC001F000034
:10318000000000000000000000000000000000003F
:10319000000000000000000000000000000000002F
:1031A000000000000000F02211241FBECFEFDAE083
:1031B000DEBFCDBF11E0A0E0B1E0EEE4FCE402C070
:1031C00005900D92A835B107D9F726E0A8E5B1E042
:1031D00001C01D92A23AB207E1F718E1C4EDD8E1AF
:1031E00004C02197FE010E940426C33DD107C9F700
:1031F0000E945A240C9425260C9400006F927F9212
:103200008F929F92AF92BF92CF92DF92EF92FF92F6
:103210000F931F93CF93DF93FC015B01EA01C6017B
:1032200078E0872E912CB4010E94F02597E0981B3E
:10323000492F60E870E002C0759567959A95E2F7AE
:10324000362F309584918A189B08801A910A01C004
:10325000880F8A94EAF71A2DD701115078F09C91C3
:103260009323682F607870E0042E02C075956795EF
:103270000A94E2F7962B9D93880FEFCFEA0CFB1C84
:10328000CF0101968701DE013C01119700F1F301A6
:103290008490580169E0D62EDA94DD2091F0F50192
:1032A0006081932E9622682D607870E0042E02C013
:1032B000759567950A94E2F7692961935F01880C17
:1032C000EBCF085F1F4FFFEF6F1A7F0ADECFDE01E3
:1032D00053E0AA0FBB1F5A95E1F7AE0DBF1DFC01CD
:1032E000EC0FFD1FE491215078F08C9183236E2F19
:1032F000607870E0042E02C0759567950A94E2F735
:10330000862B8D93EE0FEFCFDF91CF911F910F9111
:10331000FF90EF90DF90CF90BF90AF909F908F90F5
:103320007F906F9008952F923F924F925F926F928D
:103330007F928F929F92AF92BF92CF92DF92EF9245
:10334000FF920F931F93CF93DF93CDB7DEB7A29772
:103350000FB6F894DEBF0FBECDBF09831A832B834F
:103360003C834D835E836F83788789879A87098141
:103370001A8180905A0290905B02D7FEE2C00C192D
:103380001D09712C612C8D819E818C0D9D1DF40178
:10339000881599050CF4FC011E161F060CF07AC165
:1033A000AB80BC8020915C0230915D02F7FECFC003
:1033B000AE18BF081C861B868F8198858E0D9F1DB9
:1033C000821793070CF49C01121613060CF062C1CD
:1033D000E619F7094B855C85241B350BA8E0CA2E3E
:1033E000D12CC801B6010E94F025A601481B590B3B
:1033F0005E874D87E417F5070CF4B0C0CF01800F4E
:10340000911FB6010E94F0259A8B898B1C8A1B8A1A
:103410004D855E85E41BF50B89899A89E81BF90BBC
:10342000F7FD3796AF0173E0559547957A95E1F72B
:103430005E8B4D8BE985FA858081918197FD07969A
:10344000AC0163E0559547956A95E1F7588B4F8736
:1034500017FF02C0095F1F4F43E0159507954A9576
:10346000E1F78F8598898A9D20018B9D500C9A9D4C
:10347000500C1124400E511E04811581400E511E26
:103480008B859C8553E0959587955A95E1F7889DA6
:103490001001899D300C989D300C1124620C731C16
:1034A00020905E0230905F02260C371CE8E0F0E0CE
:1034B000C501BF010E94F0254F01881A990A2815FD
:1034C00039050CF456C0C501820F931FBF010E943D
:1034D000F0259A8F898F28193909498D5A8D241B17
:1034E000350B37FF02C0295F3F4FC90123E0959597
:1034F00087952A95E1F79C8F8B8F2B853C85280D2E
:10350000391D388F2F8BCB84DC8452014F89588D25
:103510004C155D0591F136015FEF651A750A710171
:103520000B891C8929893A894D895E896D857E853B
:10353000C5010E94FE188F859889A80EB91E6301E7
:10354000E5CFC814D9040CF0A5C036011CCFE21693
:10355000F3060CF09FC0FC86EB862ECF8D859E85F2
:103560008E1B9F0B9C8B8B8BFE87ED871A8A198A8B
:103570004FCF49011A8E198EAECF2F853889289DDD
:103580008001299D100D389D100D1124A201400FBE
:10359000511F5C874B8760905A0270905B02260C2B
:1035A000371C93E0220F331F9A95E1F73E8F2D8F42
:1035B0006B8C7C8C4F88588C4A0151E0651A7108DD
:1035C00028F19201285F3F4F38A32F8F62015401E9
:1035D0008F8D98A18C159D0509F44EC096012F5F23
:1035E0003F4F3AA329A371010B891C8929893A8984
:1035F0004D895E896D857E85C5010E94FE184F85C7
:103600005889A40EB51EC9A0DAA0E2CF4D8D5E8DFB
:103610008B8D9C8D489F2001499F500C589F500CCA
:1036200011242B853C85420E531E6C0183E0CC0C8B
:10363000DD1C8A95E1F74F89588DC40ED51EA98CE3
:10364000BA8CAC0CBD1CAC14BD0421F146019FEF3B
:10365000891A990A71010B891C8929893A894D892E
:103660005E896D857E85C2010E94FE182F8538898E
:10367000420E531E6401E7CF58E0450E511C8D8D5C
:103680009E8D880E991E80915A0290915B02280EA1
:10369000391E93CFA2960FB6F894DEBF0FBECDBFF2
:1036A000DF91CF911F910F91FF90EF90DF90CF901E
:1036B000BF90AF909F908F907F906F905F904F9052
:1036C0003F902F900895CF93DF93FC0111821082D9
:1036D00013821282EB0188819981AA81BB81848344
:1036E0009583A683B78371876087DF91CF91089513
:1036F00090E0FC01EA57FE4F249189599E4FFC014E
:103700008491882399F090E0880F991FFC01E75A73
:10371000FE4FA591B491FC01E55BFE4F859194911C
:103720008FB7F894EC91E22BEC938FBF0895FC01D6
:1037300080917B01882311F13FB7F89482E0809358
:10374000E9002091F200822F90E01816190614F477
:1037500081E090E0882339F0289A44E640937A018A
:103760004091F1004083222339F02091F200211191
:1037700003C02BE62093E8003FBF08958FEF9FEF33
:1037800008952FB7F89483E08093E9009091E800C2
:10379000892F807295FF04C09091F20080E4891B0C
:1037A0002FBF08958091720181110DC082E0809336
:1037B0006E0184E080936F0110927101109270018C
:1037C00081E0809372018EE691E008954091680156
:1037D00050916901209166013091670142175307AA
:1037E000B4F49091E8009570E1F39091E80092FDB7
:1037F00019C08093F1008091680190916901019650
:103800008F739927892B19F48EEF8093E8008091AC
:103810006801909169010196909369018093680114
:1038200081E0089580E00895EF92FF920F931F9337
:10383000CF93DF93F82E192FE62E042F81E0860F09
:10384000880F0E94E61B83E00E94E61BCF2DD12F3C
:10385000EC0EFD2EF11CCE15DF05B9F007FF13C0ED
:10386000FE0184910E94E61B182F80E00E94E61B57
:10387000812321968111EFCFDF91CF911F910F917D
:10388000FF90EF9008958881EDCF81E0F5CFDF9232
:10389000EF92FF920F931F93CF93DF93D82E8A015D
:1038A000EB017B01E40EF51ECE15DF0559F0D7FEC6
:1038B00012C0FE0184910E94E61B21968111F4CF73
:1038C0000FEF1FEFC801DF91CF911F910F91FF9074
:1038D000EF90DF9008958881EECF0F931F93CF93E1
:1038E000DF931F92CDB7DEB782E0898342E450E0D8
:1038F0006CEA70E080E80E94471C0E94D21BDC0149
:1039000012960D911C910115110589F0D801ED91C8
:10391000FC910280F381E02DBE016F5F7F4FC801F3
:10392000099597FD04C0F80100851185ECCF8981C8
:103930000F90DF91CF911F910F910895615030F05A
:103940002091F100FC0120830196F8CF289A84E6AB
:1039500080937A010895CF93DF931F92CDB7DEB79E
:103960006983DC01ED91FC910280F381E02D41E05F
:1039700050E0BE016F5F7F4F09950F90DF91CF91AF
:10398000089583E08093E9008091F200882319F084
:103990008AE38093E80008950E94C11B90E0089597
:1039A000CF93DF931F92CDB7DEB7FC018485958559
:1039B00097FD08C02FEF3FEF358724870F90DF91E9
:1039C000CF910895CE0101960E94971B019719F49B
:1039D000898190E0F3CF8FEF9FEFF0CF0F931F938C
:1039E000CF93DF931F92CDB7DEB78C01FC018485A6
:1039F000958597FF0BC0CE0101960E94971B0197FA
:103A000071F4898190E0F80195878487F8018485B5
:103A100095850F90DF91CF911F910F9108958FEFB2
:103A20009FEFF1CFFC018485958597FD0BC09FB773
:103A3000F89482E08093E9008091F2009FBF90E0CB
:103A4000019608959FB7F89482E08093E9008091F1
:103A5000F2009FBF90E0089581508F3008F047C07A
:103A6000E82FF0E0EA5CF24E0C940426531D571D3B
:103A7000451D4B1D4F1D771D771D771D5A1D601D60
:103A8000641D681D6E1D771D721D809180008F77EB
:103A9000809380000895809180008F7DF9CF809180
:103AA0008000877FF5CF84B58F7784BD089584B576
:103AB0008F7DFBCF809190008F7780939000089549
:103AC000809190008F7DF9CF80919000877FF5CF16
:103AD0008091C0008F778093C00008958091C000CE
:103AE0008F7DF9CF8091C200877F8093C2000895B7
:103AF0001F93CF93DF93282F30E0F901E45DFE4F51
:103B00008491F901EA57FE4FD491F901E959FE4F2A
:103B1000C491CC23A9F0162F81110E942C1DEC2FEB
:103B2000F0E0EE0FFF1FE55BFE4FA591B4918FB75C
:103B3000F894EC91111108C0D095DE23DC938FBF6F
:103B4000DF91CF911F910895DE2BF8CF3FB7F89406
:103B500080915D0190915E01A0915F01B091600143
:103B600026B5A89B05C02F3F19F00196A11DB11DD8
:103B70003FBFBA2FA92F982F8827BC01CD01620F14
:103B8000711D811D911D42E0660F771F881F991FCF
:103B90004A95D1F708958F929F92AF92BF92CF929C
:103BA000DF92EF92FF924B015C010E94A61D6B0118
:103BB0007C010E94A61D6C197D098E099F09683E33
:103BC000734081059105A8F321E0821A9108A108AC
:103BD000B10888EEC80E83E0D81EE11CF11C8114E8
:103BE0009104A104B10429F7FF90EF90DF90CF90EA
:103BF000BF90AF909F908F9008958F929F92AF92B9
:103C0000BF92CF92DF92EF92FF920F931F93CF93C9
:103C1000DF936C017B018A0180910B01882309F4F9
:103C20005CC080917B01882309F457C080916C01AE
:103C300080FF05C08091E00082608093E000E80191
:103C4000B12C8AEFA82E93E0892E2AE3922E20979A
:103C500011F4BB20D9F10E94C11B81110AC0AA94A2
:103C6000AA20D9F161E070E080E090E00E94CB1DD5
:103C7000EECF8C171D0611F00CF08C2F9FB7F89427
:103C80008092E9002091E80025FD02C09FBFDFCFB0
:103C9000282F30E0C21BD30BF701815020F0419157
:103CA0004093F100FACFE20EF31EBB2021F0909278
:103CB000E800B12CEBCF8091E80085FDE7CF909232
:103CC000E800BB24B394209709F3F3CF5D9A84E610
:103CD00080936D01101611063CF081E090E0F60132
:103CE0009383828310E000E0C801DF91CF911F91A0
:103CF0000F91FF90EF90DF90CF90BF90AF909F908B
:103D00008F90089508958EBD00000DB407FEFDCF7D
:103D10008EB508958CBD9DBD0895CF93DF93D82FA8
:103D2000C62F60E082E10E94781D8091600690912C
:103D300061060E948A1E8D2F0E94831E8C2FDF91A8
:103D4000CF910C94831ECF93C82F60E082E10E9434
:103D5000781D80916006909161060E948A1E8C2FCA
:103D6000CF910C94831EFC0101900020E9F731975C
:103D7000AF01481B590BBC018CE791E00C94FD1D71
:103D800085E291E00C94B31EFF920F931F93CF93A3
:103D9000DF93CDB7DEB7A1970FB6F894DEBF0FBEA5
:103DA000CDBF8EE291E00E94B31E80E3F82E00E6C4
:103DB00012E019A2F8A2CE0180960E94B31E80E8FC
:103DC0008F0D0E94A31E60E182E00E948D1E61E0C3
:103DD00082E10E94781D80916006909161060E94A8
:103DE0008A1EF80180818EBDD801A158BF4FAE1741
:103DF000BF0741F091810DB407FEFDCF8EB59EBD8A
:103E00008193F5CF0DB407FEFDCF8EB58C9300588E
:103E10001F4FF394F6E000361F0759F6A1960FB630
:103E2000F894DEBF0FBECDBFDF91CF911F910F91F0
:103E3000FF900895CF92DF92EF92FF920F931F931E
:103E40008EE391E00E94B31E20915A0230915B02F2
:103E500080915C0290915D02289FA001299F500DE6
:103E6000389F500D112457FF02C0495F5F4F83E018
:103E7000559547958A95E1F770E060E080915E0284
:103E800090915F020E941E26809165018823C9F0EF
:103E9000C12CD12C760100919206109193062091AD
:103EA0009406309195064091960650919706609140
:103EB00098067091990680919A0690919B060E94AF
:103EC0009319809164018823C9F0C12CD12C76010B
:103ED0000091820610918306209184063091850618
:103EE00040918606509187066091880670918906F8
:103EF00080918A0690918B060E94931980916301AC
:103F00008823C9F0C12CD12C760100917206109142
:103F10007306209174063091750640917606509193
:103F20007706609178067091790680917A06909173
:103F30007B060E949319809162018823C9F0C12CED
:103F4000D12C7601009162061091630620916406DF
:103F5000309165064091660650916706609168064B
:103F60007091690680916A0690916B060E94931980
:103F70001F910F91FF90EF90DF90CF900C94C41E93
:103F80000F931F93CF93DF93EC0170E0FB01E45D8F
:103F9000FE4F8491FB01EA57FE4F049169597E4F11
:103FA000FB011491112301F181110E942C1DE12FBD
:103FB000F0E0EE0FFF1FE25EFE4FA591B491EC9191
:103FC0000E2331E020E009F430E0832F922F288186
:103FD00021110DC0892BA1F481E08883DF91CF915D
:103FE0001F910F910C941A1F90E080E0F0CF892B65
:103FF00039F01882DF91CF911F910F910C94C01E60
:10400000DF91CF911F910F9108951F920F920FB6DC
:104010000F9211248F939F938091E1009091E10082
:10402000937F9093E10083FF0FC01092E90091E02D
:104030009093EB001092EC0092E39093ED001092BD
:104040007B0198E09093F00082FF22C093E0909370
:10405000E9009091F200992319F09AE39093E80017
:1040600090916D01992341F090916D019150909341
:104070006D01911101C05D9890917A01992341F0F1
:1040800090917A01915090937A01911101C02898F2
:1040900084FF18C08091E2008E7E81608093E200F0
:1040A0008091E1008F7E8093E10080916C018E7E93
:1040B000806180936C019F918F910F900FBE0F9044
:1040C0001F90189580FFF7CF8091E2008E7E80616F
:1040D0008093E2008091E1008E7E8093E1008091E8
:1040E0006C018E7E8160E5CF1F920F920FB60F920A
:1040F0001124CF92DF92EF92FF920F931F932F9391
:104100003F934F935F936F937F938F939F93AF935F
:10411000BF93EF93FF93CF93DF93CDB7DEB76C9749
:10412000DEBFCDBF1092E9008091E80083FF25C07B
:1041300068E0CE0145960E949E1C82EF8093E800C5
:104140008D8987FF39C09091E80090FFFCCF982FB0
:10415000907609F034C19E894F89588D2F89F88C4B
:10416000911131C0803861F580916B018093F1002D
:104170001092F1008EEF8093E8006C960FB6F894E1
:10418000DEBF0FBECDBFDF91CF91FF91EF91BF9109
:10419000AF919F918F917F916F915F914F913F91DF
:1041A0002F911F910F91FF90EF90DF90CF900F9084
:1041B0000FBE0F901F9018959EEF9093E800C7CF09
:1041C0001092F100D5CF913059F48111D3CF413005
:1041D000510581F680916B018D7F80936B01CACF71
:1041E000933049F48111C6CF4130510519F68091C1
:1041F0006B018260F2CF953041F48091E80080FF3E
:10420000FCCF20682093E300B5CF963009F0A9C019
:104210000B8D1C8D22E01092E90010926901109222
:104220006801F2122EC010926701109266010E947E
:104230006D1C1F8299E09983FA8291E09E8390EA37
:1042400098879AEF99872091680130916901275FDB
:104250003F4F3C832B838D831092E90010926901BC
:1042600010926801109367010093660149E050E0E5
:10427000BE016F5F7F4F80E00E94471C0E946D1C53
:1042800079CF10936701009366010E94D21BDC0175
:1042900012960D911C910115110509F451C1D80117
:1042A000ED91FC910480F581E02DBE016B5E7F4FA6
:1042B000C8010995009709F03EC1F80100851185F4
:1042C000EACFF3E0FF120EC08F89882309F440C0C3
:1042D000823061F440E86DE080E191E00E94141CBE
:1042E000811148CF81E28093EB0047CF813029F4E0
:1042F00040E86BE084E091E0F1CF833099F70E94D1
:10430000D21BDC011296ED90FC908E010F5F1F4FC7
:104310006801E114F10479F0D701ED91FC91068078
:10432000F781E02DB801C7010995080F111DF701AC
:10433000E084F184EECFD8011C92F60101900020B8
:10434000E9F73197BF016C197D0940E0C601C6CF7E
:104350006EEE70E0FB01449150E080E80E94471C43
:1043600009CF973009F4BECF983021F481E08093D3
:10437000F10000CF993009F0FDCE837009F0B2CF83
:10438000EDE0F1E081E031E096E32191222371F04C
:104390008093E9003093EB00DF0111972C9120937B
:1043A000EC009093ED008F5F873079F78EE7809374
:1043B000EA001092EA008F8980937B01DBCE8B8D1F
:1043C0009C8D1092E90010926901109268019093FF
:1043D000670180936601898D811192C08E899D89C4
:1043E000913A49F4813209F07DCF47E050E064E032
:1043F00071E080E0B3CF913209F074CF833269F479
:104400008F89988DB0E0A0E0809300019093010126
:10441000A0930201B0930301ADCE803269F4809184
:10442000E80082FFFCCF67E084E091E00E949E1CE0
:104430008BEF8093E8009ECE823209F09BCE8F896D
:1044400080930B01EEEFFFE7859194918B3F9C4D9C
:1044500051F1E0E0F8E08091040190910501A09114
:104460000601B0910701803B9440A105B105F1F42C
:1044700080910B0180FD1AC0EE3F8AE0F80789F5B4
:1044800087E797E7918380838091600080936A013A
:1044900088E19BE00FB6F894A895809360000FBE6A
:1044A0009093600067CEEEEFFAE0D5CF80819181E6
:1044B0008737974709F05ECEA895809160008861A4
:1044C0008093600080916A0180936000EE3F2AE053
:1044D000F20789F08091FE0A9091FF0A9183808310
:1044E00049CE808191818737980751F29093FF0AD6
:1044F0008093FE0AC5CF1092FF0A1092FE0A3ACEB0
:104500000E94D21BDC0112960D911C910115110520
:1045100009F4E8CED801ED91FC910190F081E02DF5
:10452000BE016B5E7F4FC8010995811123CEF80152
:1045300000851185EBCF181619060CF41BCED2CED0
:10454000F1E0FF12BECE62EF70E004CF1F920F9237
:104550000FB60F9211242F933F938F939F93AF9396
:10456000BF938091590190915A01A0915B01B09144
:104570005C013091580123E0230F2D3758F5019647
:10458000A11DB11D209358018093590190935A01A8
:10459000A0935B01B0935C0180915D0190915E01FD
:1045A000A0915F01B09160010196A11DB11D8093A2
:1045B0005D0190935E01A0935F01B0936001BF9194
:1045C000AF919F918F913F912F910F900FBE0F90C0
:1045D0001F90189526E8230F0296A11DB11DD2CF7A
:1045E000EF92FF920F931F93CF93DF93CDB7DEB778
:1045F00062970FB6F894DEBF0FBECDBF10927F0159
:1046000010927E0188EE93E0A0E0B0E080938001FC
:1046100090938101A0938201B093830187E191E09F
:1046200090937D0180937C018FEF9FEF90938901A0
:104630008093880180E8E82EF12CF0920702E09246
:10464000060200E410E0109309020093080285EAD4
:104650009DE090930B0280930A0266E072E08CEF7B
:1046600091E00E94631BF092F701E092F601109333
:10467000F9010093F80185EA99E09093FB0180939A
:10468000FA0166EF71E08CEE91E00E94631BF092FC
:10469000E701E092E6011093E9010093E80185EA61
:1046A00095E09093EB018093EA0166EE71E08CED6A
:1046B00091E00E94631BF092D701E092D601109323
:1046C000D9010093D80185EA91E09093DB018093B2
:1046D000DA0166ED71E08CEC91E00E94631BF092D0
:1046E0004702E0924602109349020093480285EA8D
:1046F0009DE190934B0280934A0266E472E08CE362
:1047000092E00E94631BF0923702E092360210930F
:1047100039020093380285EA99E190933B02809335
:104720003A0266E372E08CE292E00E94631BF09230
:104730002702E0922602109329020093280285EABC
:1047400095E190932B0280932A0266E272E08CE15D
:1047500092E00E94631BF0921702E09216021093FF
:1047600019020093180285EA91E190931B0280934D
:104770001A0266E172E08CE092E00E94631BF09204
:104780009D06E0929C0610939F0600939E0685EA84
:104790009DE29093A1068093A0066CE976E082E901
:1047A00096E00E94631BF0928D06E0928C061093B7
:1047B0008F0600938E0685EA99E290939106809386
:1047C00090066CE876E082E896E00E94631BF09227
:1047D0007D06E0927C0610937F0600937E0685EAB4
:1047E00095E290938106809380066CE776E082E7FD
:1047F00096E00E94631BF0926D06E0926C061093A7
:104800006F0600936E0685EA91E29093710680939D
:1048100070066CE676E082E696E00E94631B80E517
:104820008093600681E0809361069091520291111D
:1048300010C0F0924D02E0924C0210934F02009390
:104840004E0220E632E030935102209350028093D2
:10485000520286E0ECE4F2E0DE01119601900D9246
:104860008A95E1F786E0FE013196DE011796019008
:104870000D928A95E1F786E0FE013796DE011D96DE
:1048800001900D928A95E1F786E0FE013D96AAE53A
:10489000B2E001900D928A95E1F762960FB6F89416
:1048A000DEBF0FBECDBFDF91CF911F910F91FF9063
:1048B000EF900895789484B5826084BD84B581605A
:1048C00084BD85B5826085BD85B5816085BD8091DB
:1048D0006E00816080936E00109281008091810053
:1048E000826080938100809181008160809381004B
:1048F000809180008160809380008091910082602F
:1049000080939100809191008160809391008091CB
:1049100090008160809390008091C10084608093BA
:10492000C1008091C10082608093C1008091C1006C
:1049300081608093C1008091C30081608093C30037
:104940008091C00082608093C0008091C20081602D
:104950008093C20080917A00846080937A00809175
:104960007A00826080937A0080917A0081608093DF
:104970007A0080917A00806880937A0010927B019F
:1049800010926B0110926C018091D700816080932E
:10499000D70080EA8093D80089B5806189BD89B548
:1049A000826089BD09B400FEFDCF61E070E080E067
:1049B00090E00E94CB1D8091D8008F7C8061809315
:1049C000D8008091E000807F8093E0008091E1003A
:1049D0008E7E8093E1008DE08093E200559A209ACC
:1049E0005D9828988EE00E94781B82E10E94781BD7
:1049F0008AE00E94781BCFB7F89480916101811101
:104A000024C0E8E7F1E08491E7E9F1E09491E82F30
:104A1000F0E0EE0FFF1FE75AFE4FA591B491EC9125
:104A2000E92321F461E081E10E94781D81E10E9487
:104A3000781B8CB580618CBD8CB580648CBD8FE09B
:104A40000E94781B80E10E94781B809161018F5F3A
:104A500080936101CFBF60E08AE00E94781D61E031
:104A60008EE00E94781D6AE070E080E090E00E9495
:104A7000CB1D60E08EE00E94781D6AE070E080E06F
:104A800090E00E94CB1D61E08EE00E94781D8EEACE
:104A90000E94A31E80E40E94A31E64E681E80E9497
:104AA0008D1E81EA0E94A31E88EC0E94A31E87EA45
:104AB0000E94A31E6FE388EA0E948D1E6BE88DEAB8
:104AC0000E948D1E82E30E94A31E60E083ED0E947F
:104AD0008D1E60E885ED0E948D1E62EF89ED0E94BB
:104AE0008D1E62E18AED0E948D1E60E48BED0E94B6
:104AF0008D1E84EA0E94A31E8FEA0E94A31E64E614
:104B000070E080E090E00E94CB1D64EF71E080E0F7
:104B100090E00E94CB1D61E081E10E94781D61E080
:104B20008EE10E94781D62E084E00E94781D62E0C0
:104B300085E00E94781D62E086E00E94781D62E0B8
:104B400087E00E94781D8FEF9FEF909389018093FB
:104B5000880189E491E00E94B31E20915A023091AD
:104B60005B0280915C0290915D02289FA001299FC9
:104B7000500D389F500D112457FF02C0495F5F4F01
:104B800083E0559547958A95E1F770E060E0809164
:104B90005E0290915F020E941E260E94C41EC0E029
:104BA000D0E064E085E691E00E94C01F65E084E605
:104BB00091E00E94C01F66E083E691E00E94C01F62
:104BC00067E082E691E00E94C01F6AE070E080E04A
:104BD00090E00E94CB1D209721F30E940000E1CFBE
:104BE00097FB072E16F4009407D077FD09D00E949A
:104BF0000A2607FC05D03EF4909581959F4F0895B5
:104C0000709561957F4F0895EE0FFF1F0590F49109
:104C1000E02D0994AA1BBB1B51E107C0AA1FBB1FB3
:104C2000A617B70710F0A61BB70B881F991F5A9538
:104C3000A9F780959095BC01CD010895DC0101C0D4
:0E4C40006D9341505040E0F70895F894FFCF77
:104C4E00FFFFFFFF00E100000000000000C18081B7
:104C5E0000000000000000AB1CFD1DCC1CC11C128E
:104C6E001DD01CEE1C707265737355700A0044697A
:104C7E0073706C61793A3A75706461746500707224
:104C8E00657373446F776E0A004F4C454420457828
:084C9E00616D706C650A0000F5
:00000001FF
