:100000000C941E010C9446010C9446010C9446017C
:100010000C9446010C9446010C9446010C94460144
:100020000C9446010C9446010C9425040C94940401
:100030000C9446010C9446010C9446010C94460124
:100040000C9446010C9446010C9446010C94460114
:100050000C9446010C9446010C9446010C94C6067F
:100060000C9446010C9446010C9446010C944601F4
:100070000C9446010C9446010C9446010C944601E4
:100080000C9446010C9446010C9446010C944601D4
:100090000C9446010C9446010C9446010C944601C4
:1000A0000C9446010C9446010C944601000000009B
:1000B000250028002B002E00310004040404040352
:1000C00004050202020204030202020206060606F8
:1000D000060604040202020404040802011040801F
:1000E000401020408040800802040180402010021F
:1000F00001108010204040200000000200090F0085
:1001000000030401000C00000000000000000000DB
:1001100000000000000000080B00020202000009BD
:100120000400000102020000052400100105240162
:1001300001010424020605240600010705810310BD
:10014000004009040100020A000000070502024005
:1001500000000705830240000004030904120100A7
:1001600002EF0201404123378000010102030141F7
:10017000726475696E6F204C4C43004172647569FE
:100180006E6F204D6963726F00FBFBFFFCA89B2123
:10019000B4ABFFF9FCAA1269A4FFF3F9FC4B6BD7CF
:1001A000E8B89B21B4A926B24CAA126AA45FE392D4
:1001B000E8DFBFF00095E9F00099DDD000DF7DF0C9
:1001C00000300000004838387084444488848482B9
:1001D0008484848284488844443070383800000025
:1001E00000FBFBFFFCA89B21B4ABFFF9FCAA126942
:1001F000A4FFF3F9FC4B6BD7E8B89B21B4A926B256
:100200004CAA126AA45FE392E8DFBFF00095E9F020
:100210000099DDD000DF7DF0003000000048383864
:10022000708444448884848284848482844888449A
:1002300044307038380000000000100711241FBE41
:10024000CFEFDAE0DEBFCDBF11E0A0E0B1E0E0E249
:10025000F1E102C005900D92A433B107D9F721E076
:10026000A4E3B1E001C01D92A33EB207E1F711E0A3
:10027000CEE1D1E004C02197FE010E948808CD3173
:10028000D107C9F70E94B7070C948E080C940000A0
:10029000FC0180915201882311F13FB7F89482E06C
:1002A0008093E9002091F200822F90E01816190641
:1002B00014F481E090E0882339F0289A44E64093D2
:1002C00051014091F1004083222339F02091F20046
:1002D000211103C02BE62093E8003FBF08958FEF64
:1002E0009FEF08952FB7F89483E08093E9009091F1
:1002F000E800892F807295FF04C09091F20080E49D
:10030000891B2FBF08958091490181110DC082E0A2
:100310008093450184E08093460110924801109239
:10032000470181E08093490185E491E0089540917F
:100330003F015091400120913D0130913E01421713
:100340005307B4F49091E8009570E1F39091E800C0
:1003500092FD19C08093F10080913F01909140017E
:1003600001968F739927892B19F48EEF8093E800FB
:1003700080913F01909140010196909340018093BC
:100380003F0181E0089580E00895EF92FF920F937E
:100390001F93CF93DF93F82E192FE62E042F81E0C1
:1003A000860F880F0E94970183E00E949701CF2D4E
:1003B000D12FEC0EFD2EF11CCE15DF05B9F007FF95
:1003C00013C0FE0184910E949701182F80E00E94C3
:1003D0009701812321968111EFCFDF91CF911F915A
:1003E0000F91FF90EF9008958881EDCF81E0F5CFD8
:1003F000DF92EF92FF920F931F93CF93DF93D82E4C
:100400008A01EB017B01E40EF51ECE15DF0559F0E4
:10041000D7FE12C0FE0184910E949701219681119E
:10042000F4CF0FEF1FEFC801DF91CF911F910F9114
:10043000FF90EF90DF9008958881EECF0F931F9388
:10044000CF93DF931F92CDB7DEB782E0898342E47A
:1004500050E067E171E080E80E94F8010E948301AA
:10046000DC0112960D911C910115110589F0D8013E
:10047000ED91FC910280F381E02DBE016F5F7F4F13
:10048000C801099597FD04C0F80100851185ECCFDE
:1004900089810F90DF91CF911F910F910895615045
:1004A00030F02091F100FC0120830196F8CF289ACA
:1004B00084E6809351010895CF93DF931F92CDB7C7
:1004C000DEB76983DC01ED91FC910280F381E02DC0
:1004D00041E050E0BE016F5F7F4F09950F90DF91C3
:1004E000CF91089583E08093E9008091F200882302
:1004F00019F08AE38093E80008950E94720190E069
:100500000895CF93DF931F92CDB7DEB7FC018485AA
:10051000958597FD08C02FEF3FEF358724870F9013
:10052000DF91CF910895CE0101960E944801019775
:1005300019F4898190E0F3CF8FEF9FEFF0CF0F9305
:100540001F93CF93DF931F92CDB7DEB78C01FC01D1
:100550008485958597FF0BC0CE0101960E944801C6
:10056000019771F4898190E0F80195878487F801FB
:10057000848595850F90DF91CF911F910F910895FC
:100580008FEF9FEFF1CFFC018485958597FD0BC020
:100590009FB7F89482E08093E9008091F2009FBFBA
:1005A00090E0019608959FB7F89482E08093E90067
:1005B0008091F2009FBF90E00895282F30E0F9016C
:1005C000E850FF4F9491F901E752FF4F8491265470
:1005D0003F4FF9012491222309F42DC09923E9F01A
:1005E00091509F30D0F4E92FF0E0E750FD4F0C948C
:1005F00088082403280308031C0320030D030D03AC
:100600000D032B033103350339033F030D0343036C
:10061000909180009F7790938000E22FF0E0EE0FA2
:10062000FF1FE455FF4FA591B4919FB7F894EC914B
:10063000E82BEC939FBF0895909180009F7DEBCFB6
:1006400090918000977FE7CF94B59F7794BDE5CFD9
:1006500094B59F7DFBCF909190009F7790939000F1
:10066000DCCF909190009F7DF9CF90919000977F83
:10067000F5CF9091C0009F779093C000CECF90911E
:10068000C0009F7DF9CF9091C200977F9093C200E8
:10069000C4CF3FB7F8948091390190913A01A0916D
:1006A0003B01B0913C0126B5A89B05C02F3F19F036
:1006B0000196A11DB11D3FBFBA2FA92F982F8827E2
:1006C000BC01CD01620F711D811D911D42E0660FBD
:1006D000771F881F991F4A95D1F708958F929F928F
:1006E000AF92BF92CF92DF92EF92FF924B015C01EB
:1006F0000E9449036B017C010E9449036C197D092A
:100700008E099F09683E734081059105A8F321E099
:10071000821A9108A108B10888EEC80E83E0D81E9D
:10072000E11CF11C81149104A104B10429F7FF908C
:10073000EF90DF90CF90BF90AF909F908F900895F3
:100740008F929F92AF92BF92CF92DF92EF92FF92E1
:100750000F931F93CF93DF936C017B018A018091EC
:100760000B01882309F45CC080915201882309F4AD
:1007700057C08091430180FF05C08091E0008260F6
:100780008093E000E801B12C8AEFA82E93E0892E37
:100790002AE3922E209711F4BB20D9F10E94720116
:1007A00081110AC0AA94AA20D9F161E070E080E02A
:1007B00090E00E946E03EECF8C171D0611F00CF036
:1007C0008C2F9FB7F8948092E9002091E80025FDD6
:1007D00002C09FBFDFCF282F30E0C21BD30BF70131
:1007E000815020F041914093F100FACFE20EF31EC8
:1007F000BB2021F09092E800B12CEBCF8091E80073
:1008000085FDE7CF9092E800BB24B394209709F3CD
:10081000F3CF5D9A84E680934401101611063CF0F4
:1008200081E090E0F6019383828310E000E0C8014C
:10083000DF91CF911F910F91FF90EF90DF90CF90BC
:10084000BF90AF909F908F9008951F920F920FB618
:100850000F9211248F939F938091E1009091E1007A
:10086000937F9093E10083FF0FC01092E90091E025
:100870009093EB001092EC0092E39093ED001092B5
:10088000520198E09093F00082FF22C093E0909391
:10089000E9009091F200992319F09AE39093E8000F
:1008A00090914401992341F090914401915090938B
:1008B0004401911101C05D9890915101992341F03B
:1008C00090915101915090935101911101C028983C
:1008D00084FF18C08091E2008E7E81608093E200E8
:1008E0008091E1008F7E8093E100809143018E7EB4
:1008F0008061809343019F918F910F900FBE0F9065
:100900001F90189580FFF7CF8091E2008E7E806166
:100910008093E2008091E1008E7E8093E1008091DF
:1009200043018E7E8160E5CF1F920F920FB60F922A
:100930001124CF92DF92EF92FF920F931F932F9388
:100940003F934F935F936F937F938F939F93AF9357
:10095000BF93EF93FF93CF93DF93CDB7DEB76C9741
:10096000DEBFCDBF1092E9008091E80083FF25C073
:1009700068E0CE0145960E944F0282EF8093E80026
:100980008D8987FF39C09091E80090FFFCCF982FA8
:10099000907609F034C19E894F89588D2F89F88C43
:1009A000911131C0803861F5809142018093F1004E
:1009B0001092F1008EEF8093E8006C960FB6F894D9
:1009C000DEBF0FBECDBFDF91CF91FF91EF91BF9101
:1009D000AF919F918F917F916F915F914F913F91D7
:1009E0002F911F910F91FF90EF90DF90CF900F907C
:1009F0000FBE0F901F9018959EEF9093E800C7CF01
:100A00001092F100D5CF913059F48111D3CF4130FC
:100A1000510581F6809142018D7F80934201CACFBA
:100A2000933049F48111C6CF4130510519F68091B8
:100A300042018260F2CF953041F48091E80080FF5E
:100A4000FCCF20682093E300B5CF963009F0A9C011
:100A50000B8D1C8D22E01092E90010924001109243
:100A60003F01F2122EC010923E0110923D010E94F1
:100A70001E021F8299E09983FA8291E09E8390EA98
:100A800098879AEF998720913F0130914001275F25
:100A90003F4F3C832B838D831092E90010924001DD
:100AA00010923F0110933E0100933D0149E050E058
:100AB000BE016F5F7F4F80E00E94F8010E941E021E
:100AC00079CF10933E0100933D010E948301DC0128
:100AD00012960D911C910115110509F451C1D8010F
:100AE000ED91FC910480F581E02DBE016B5E7F4F9E
:100AF000C8010995009709F03EC1F80100851185EC
:100B0000EACFF3E0FF120EC08F89882309F440C0BA
:100B1000823061F440E86DE08BE791E00E94C5010E
:100B2000811148CF81E28093EB0047CF813029F4D7
:100B300040E86BE08FE691E0F1CF833099F70E94B7
:100B40008301DC011296ED90FC908E010F5F1F4F28
:100B50006801E114F10479F0D701ED91FC91068070
:100B6000F781E02DB801C7010995080F111DF701A4
:100B7000E084F184EECFD8011C92F60101900020B0
:100B8000E9F73197BF016C197D0940E0C601C6CF76
:100B900069E571E0FB01449150E080E80E94F801B2
:100BA00009CF973009F4BECF983021F481E08093CB
:100BB000F10000CF993009F0FDCE837009F0B2CF7B
:100BC000EDE0F1E081E031E096E32191222371F044
:100BD0008093E9003093EB00DF0111972C91209373
:100BE000EC009093ED008F5F873079F78EE780936C
:100BF000EA001092EA008F8980935201DBCE8B8D40
:100C00009C8D1092E9001092400110923F01909348
:100C10003E0180933D01898D811192C08E899D890D
:100C2000913A49F4813209F07DCF47E050E064E029
:100C300071E080E0B3CF913209F074CF833269F470
:100C40008F89988DB0E0A0E080930001909301011E
:100C5000A0930201B0930301ADCE803269F480917C
:100C6000E80082FFFCCF67E084E091E00E944F0241
:100C70008BEF8093E8009ECE823209F09BCE8F8965
:100C800080930B01EEEFFFE7859194918B3F9C4D94
:100C900051F1E0E0F8E08091040190910501A0910C
:100CA0000601B0910701803B9440A105B105F1F424
:100CB00080910B0180FD1AC0EE3F8AE0F80789F5AC
:100CC00087E797E79183808380916000809341015B
:100CD00088E19BE00FB6F894A895809360000FBE62
:100CE0009093600067CEEEEFFAE0D5CF80819181DE
:100CF0008737974709F05ECEA8958091600088619C
:100D0000809360008091410180936000EE3F2AE073
:100D1000F20789F08091FE0A9091FF0A9183808307
:100D200049CE808191818737980751F29093FF0ACD
:100D30008093FE0AC5CF1092FF0A1092FE0A3ACEA7
:100D40000E948301DC0112960D911C910115110581
:100D500009F4E8CED801ED91FC910190F081E02DED
:100D6000BE016B5E7F4FC8010995811123CEF8014A
:100D700000851185EBCF181619060CF41BCED2CEC8
:100D8000F1E0FF12BECE6DE571E004CF1F920F922D
:100D90000FB60F9211242F933F938F939F93AF938E
:100DA000BF938091350190913601A0913701B091A8
:100DB00038013091340123E0230F2D3758F5019687
:100DC000A11DB11D2093340180933501909336010C
:100DD000A0933701B09338018091390190913A0185
:100DE000A0913B01B0913C010196A11DB11D8093E2
:100DF000390190933A01A0933B01B0933C01BF911C
:100E0000AF919F918F913F912F910F900FBE0F90B7
:100E10001F90189526E8230F0296A11DB11DD2CF71
:100E2000CF92DF92EF92FF92E3E5F1E0138212821C
:100E300088EE93E0A0E0B0E084839583A683B78337
:100E400087E191E0918380838FEF9FEF958784877F
:100E5000EDEBF1E080E290E09183808348E050E0A8
:100E60005383428321EC31E035832483A3EBB1E04B
:100E700011961C921E9213961C921E921297C0807D
:100E8000D180E280F3801496CD92DD92ED92FC92B7
:100E900017971996FC93EE931897EDEAF1E091837A
:100EA00080832EE030E03383228369E871E075832C
:100EB0006483A3EAB1E011961C921E9213961C92D1
:100EC0001E921297C080D180E280F3801496CD925A
:100ED000DD92ED92FC9217971996FC93EE9318977A
:100EE000EDEDF1E0918380835383428349E152E049
:100EF00055834483A3EDB1E011961C921E92139684
:100F00001C921E92129740815181628173811496C6
:100F10004D935D936D937C9317971996FC93EE9385
:100F20001897EDECF1E0918380833383228381EE87
:100F300091E095838483A3ECB1E011961C921E92FC
:100F400013961C921E921297408151816281738187
:100F500014964D935D936D937C9317971996FC931C
:100F6000EE931897FF90EF90DF90CF9008957894CC
:100F700084B5826084BD84B5816084BD85B582609E
:100F800085BD85B5816085BD80916E00816080934F
:100F90006E001092810080918100826080938100B8
:100FA00080918100816080938100809180008160C8
:100FB0008093800080919100826080939100809165
:100FC0009100816080939100809190008160809376
:100FD00090008091C10084608093C1008091C10025
:100FE00082608093C1008091C10081608093C100C4
:100FF0008091C30081608093C3008091C0008260B3
:101000008093C0008091C20081608093C200809173
:101010007A00846080937A0080917A008260809365
:101020007A0080917A00816080937A0080917A00C2
:10103000806880937A0010925201109242011092BF
:1010400043018091D70081608093D70080EA80932C
:10105000D80089B5806189BD89B5826089BD09B430
:1010600000FEFDCF61E070E080E090E00E946E0342
:101070008091D8008F7C80618093D8008091E000BF
:10108000807F8093E0008091E1008E7E8093E1007C
:101090008DE08093E200559A209A5D98289864EF3D
:1010A00071E080E090E00E946E0361E081E10E94C7
:1010B000DD0261E08EE10E94DD0262E084E00E94D8
:1010C000DD0262E085E00E94DD0262E086E00E94CF
:1010D000DD0262E087E00E94DD028FEF9FEF9093D8
:1010E000600180935F014DE050E065E271E083E5CF
:1010F00091E00E94A00360ED77E080E090E00E9424
:101100006E03C0E0D0E02097F1F30E940000FBCF17
:10111000EE0FFF1F0590F491E02D0994F894FFCF96
:10112000FFFFFFFF00E100000000000000C1808120
:10113000000000000000005C02A0037D027202C3F8
:101140000281029F024F4C4544204578616D706CCE
:04115000650A00002C
:00000001FF
