:100000000C9458010C9480010C9480010C94800194
:100010000C9480010C9480010C9480010C9480015C
:100020000C9480010C9480010C94DC070C944B0818
:100030000C9480010C9480010C9480010C9480013C
:100040000C9480010C9480010C9480010C9480012C
:100050000C9480010C9480010C9480010C947D0A16
:100060000C9480010C9480010C9480010C9480010C
:100070000C9480010C9480010C9480010C948001FC
:100080000C9480010C9480010C9480010C948001EC
:100090000C9480010C9480010C9480010C948001DC
:1000A0000C9480010C9480010C948001080B0002D8
:1000B0000202000009040000010202000005240001
:1000C0001001052401010104240206052406000193
:1000D0000705810310004009040100020A00000026
:1000E00007050202400000070583024000000403E8
:1000F000090412010002EF02014041233780000190
:100100000102030141726475696E6F204C4C43001B
:1001100041726475696E6F204D6963726F000000F3
:1001200000002300260029002C002F000000000200
:1001300000090F0000030401000C00000000000093
:10014000000000000000000000000000000000258A
:100150000028002B002E00310000000000240027A2
:10016000002A002D003000040404040403040502E6
:100170000202020403020202020606060606060442
:10018000040202020404040802011040804010200E
:10019000408040800802040180402010020110804D
:1001A0001020404020FBFBFFFCA89B21B4ABFFF9D3
:1001B000FCAA1269A4FFF3F9FC4B6BD7E8B89B21AA
:1001C000B4A926B24CAA126AA45FE392E8DFBFF09A
:1001D0000095E9F00099DDD000DF7DF000300000EF
:1001E00000483838708444448884848284848482BB
:1001F00084488844443070383800000000FBFBFF1E
:10020000FCA89B21B4ABFFF9FCAA1269A4FFF3F987
:10021000FC4B6BD7E8B89B21B4A926B24CAA126A52
:10022000A45FE392E8DFBFF00095E9F00099DDD02C
:1002300000DF7DF00030000000483838708444440E
:1002400088848482848484828448884444307038DA
:100250003800000000FBFBFFFCA89B21B4ABFFF9BA
:10026000FCAA1269A4FFF3F9FC4B6BD7E8B89B21F9
:10027000B4A926B24CAA126AA45FE392E8DFBFF0E9
:100280000095E9F00099DDD000DF7DF0003000003E
:10029000004838387084444488848482848484820A
:1002A0008448884444307038380000000000C70A91
:1002B00011241FBECFEFDAE0DEBFCDBF11E0A0E01A
:1002C000B1E0ECEEFBE102C005900D92A835B1075C
:1002D000D9F726E0A8E5B1E001C01D92A234B2072B
:1002E000E1F711E0C8E5D1E004C02197FE010E94CA
:1002F000DA0DC735D107C9F70E944E0C0C94F40DE6
:100300000C9400006F927F928F929F92AF92BF9257
:10031000CF92DF92EF92FF920F931F93CF93DF93D1
:10032000FC015B01EA01C60178E0872E912CB40143
:100330000E94C60D97E0981B492F60E870E002C04C
:10034000759567959A95E2F7362F309584918A18BE
:100350009B08801A910A01C0880F8A94EAF71A2D27
:10036000D701115078F09C919323682F607870E04A
:10037000042E02C0759567950A94E2F7962B9D931B
:10038000880FEFCFEA0CFB1CCF0101968701DE013D
:100390003C01119700F1F3018490580169E0D62ED9
:1003A000DA94DD2091F0F5016081932E9622682D7C
:1003B000607870E0042E02C0759567950A94E2F7A4
:1003C000692961935F01880CEBCF085F1F4FFFEF36
:1003D0006F1A7F0ADECFDE0153E0AA0FBB1F5A95CA
:1003E000E1F7AE0DBF1DFC01EC0FFD1FE4912150A4
:1003F00078F08C9183236E2F607870E0042E02C019
:10040000759567950A94E2F7862B8D93EE0FEFCFE3
:10041000DF91CF911F910F91FF90EF90DF90CF90E0
:10042000BF90AF909F908F907F906F900895E091D4
:100430001E02F0911F0240911A0250911B0220915E
:100440001C0230911D02429FC001439F900D529F9C
:10045000900D112497FD079623E0959587952A9591
:10046000E1F78E0F9F1F21E08E179F0751F010823A
:100470002183128223831482258316822783389650
:10048000F3CF089590E0FC01EA57FE4F249189597B
:100490009E4FFC018491882399F090E0880F991F6A
:1004A000FC01E75AFE4FA591B491FC01E55BFE4FBC
:1004B000859194918FB7F894EC91E22BEC938FBFD8
:1004C0000895FC0180917B01882311F13FB7F894D6
:1004D00082E08093E9002091F200822F90E01816CC
:1004E000190614F481E090E0882339F0289A44E654
:1004F00040937A014091F1004083222339F020910A
:10050000F200211103C02BE62093E8003FBF0895BD
:100510008FEF9FEF08952FB7F89483E08093E90061
:100520009091E800892F807295FF04C09091F200AD
:1005300080E4891B2FBF08958091720181110DC045
:1005400082E080936E0184E080936F0110927101CC
:100550001092700181E0809372018EE691E008951F
:1005600040916801509169012091660130916701C5
:1005700042175307B4F49091E8009570E1F390911D
:10058000E80092FD19C08093F1008091680190917C
:10059000690101968F739927892B19F48EEF809347
:1005A000E80080916801909169010196909369013A
:1005B0008093680181E0089580E00895EF92FF92B2
:1005C0000F931F93CF93DF93F82E192FE62E042F4E
:1005D00081E0860F880F0E94B00283E00E94B00283
:1005E000CF2DD12FEC0EFD2EF11CCE15DF05B9F06D
:1005F00007FF13C0FE0184910E94B002182F80E013
:100600000E94B002812321968111EFCFDF91CF911B
:100610001F910F91FF90EF9008958881EDCF81E0B9
:10062000F5CFDF92EF92FF920F931F93CF93DF935B
:10063000D82E8A01EB017B01E40EF51ECE15DF05F5
:1006400059F0D7FE12C0FE0184910E94B00221969B
:100650008111F4CF0FEF1FEFC801DF91CF911F91F0
:100660000F91FF90EF90DF9008958881EECF0F9368
:100670001F93CF93DF931F92CDB7DEB782E08983BC
:1006800042E450E06CEA70E080E80E9411030E94AE
:100690009C02DC0112960D911C910115110589F047
:1006A000D801ED91FC910280F381E02DBE016F5FD6
:1006B0007F4FC801099597FD04C0F8010085118599
:1006C000ECCF89810F90DF91CF911F910F91089509
:1006D000615030F02091F100FC0120830196F8CFA9
:1006E000289A84E680937A010895CF93DF931F922E
:1006F000CDB7DEB76983DC01ED91FC910280F38117
:10070000E02D41E050E0BE016F5F7F4F09950F90F3
:10071000DF91CF91089583E08093E9008091F2000A
:10072000882319F08AE38093E80008950E948B02E1
:1007300090E00895CF93DF931F92CDB7DEB7FC0111
:100740008485958597FD08C02FEF3FEF3587248777
:100750000F90DF91CF910895CE0101960E94610222
:10076000019719F4898190E0F3CF8FEF9FEFF0CFDD
:100770000F931F93CF93DF931F92CDB7DEB78C01FA
:10078000FC018485958597FF0BC0CE0101960E94E0
:100790006102019771F4898190E0F801958784875F
:1007A000F801848595850F90DF91CF911F910F916E
:1007B00008958FEF9FEFF1CFFC018485958597FD1C
:1007C0000BC09FB7F89482E08093E9008091F2001B
:1007D0009FBF90E0019608959FB7F89482E08093C0
:1007E000E9008091F2009FBF90E0089581508F3022
:1007F00008F047C0E82FF0E0E050FC4F0C94DA0D11
:100800001D0421040F04150419044104410441048A
:1008100024042A042E043204380441043C04809148
:1008200080008F77809380000895809180008F7D75
:10083000F9CF80918000877FF5CF84B58F7784BD15
:10084000089584B58F7DFBCF809190008F77809342
:1008500090000895809190008F7DF9CF8091900055
:10086000877FF5CF8091C0008F778093C000089577
:100870008091C0008F7DF9CF8091C200877F8093E7
:10088000C20008951F93CF93DF93282F30E0F90122
:10089000E45DFE4F8491F901EA57FE4FD491F901CE
:1008A000E959FE4FC491CC23A9F0162F81110E9463
:1008B000F603EC2FF0E0EE0FFF1FE55BFE4FA59176
:1008C000B4918FB7F894EC91111108C0D095DE2344
:1008D000DC938FBFDF91CF911F910895DE2BF8CF6E
:1008E0003FB7F89480915D0190915E01A0915F0106
:1008F000B091600126B5A89B05C02F3F19F0019665
:10090000A11DB11D3FBFBA2FA92F982F8827BC0169
:10091000CD01620F711D811D911D42E0660F771F91
:10092000881F991F4A95D1F708958F929F92AF9291
:10093000BF92CF92DF92EF92FF924B015C010E9437
:1009400070046B017C010E9470046C197D098E0992
:100950009F09683E734081059105A8F321E0821A42
:100960009108A108B10888EEC80E83E0D81EE11CEA
:10097000F11C81149104A104B10429F7FF90EF90B8
:10098000DF90CF90BF90AF909F908F9008958F92FF
:100990009F92AF92BF92CF92DF92EF92FF920F930E
:1009A0001F93CF93DF936C017B018A0180910B0130
:1009B000882309F45CC080917B01882309F457C027
:1009C00080916C0180FF05C08091E000826080937F
:1009D000E000E801B12C8AEFA82E93E0892E2AE3EB
:1009E000922E209711F4BB20D9F10E948B02811125
:1009F0000AC0AA94AA20D9F161E070E080E090E0FA
:100A00000E949504EECF8C171D0611F00CF08C2F70
:100A10009FB7F8948092E9002091E80025FD02C07C
:100A20009FBFDFCF282F30E0C21BD30BF7018150CF
:100A300020F041914093F100FACFE20EF31EBB206B
:100A400021F09092E800B12CEBCF8091E80085FD79
:100A5000E7CF9092E800BB24B394209709F3F3CF3B
:100A60005D9A84E680936D01101611063CF081E0DA
:100A700090E0F6019383828310E000E0C801DF91EB
:100A8000CF911F910F91FF90EF90DF90CF90BF908B
:100A9000AF909F908F90089508958EBD00000DB483
:100AA00007FEFDCF8EB508958CBD9DBD0895CF93F3
:100AB000DF93D82FC62F60E082E10E94420480912C
:100AC0002006909121060E9454058D2F0E944D050D
:100AD0008C2FDF91CF910C944D05CF93C82F60E000
:100AE00082E10E94420480912006909121060E949A
:100AF00054058C2FCF910C944D05FC0101900020E2
:100B0000E9F73197AF01481B590BBC018CE791E025
:100B10000C94C70485E291E00C947D05FF920F933D
:100B20001F93CF93DF93CDB7DEB7A1970FB6F8949D
:100B3000DEBF0FBECDBF8EE291E00E947D0580E357
:100B4000F82E00E212E019A2F8A2CE0180960E94CF
:100B50007D0580E88F0D0E946D0560E182E00E94B6
:100B6000570561E082E10E94420480912006909145
:100B700021060E945405F80180818EBDD801A1583C
:100B8000BF4FAE17BF0741F091810DB407FEFDCFF7
:100B90008EB59EBD8193F5CF0DB407FEFDCF8EB50A
:100BA0008C9300581F4FF394F6E000321F0759F65C
:100BB000A1960FB6F894DEBF0FBECDBFDF91CF91E7
:100BC0001F910F91FF9008952F923F924F925F9245
:100BD0006F927F928F929F92AF92BF92CF92DF924D
:100BE000EF92FF920F931F93CF93DF93CDB7DEB7B2
:100BF00068970FB6F894DEBF0FBECDBF8EE391E0CD
:100C00000E947D050E94170280911A0290911B029A
:100C1000181619060CF071C120913606309137066E
:100C2000821793070CF49C01121613060CF065C191
:100C300080911C0290911D02181619060CF05DC1DE
:100C4000C0903806D09039068C159D050CF46C01C7
:100C50001C141D040CF051C1409132065091330612
:100C600058874F83E8E0F0E0CA01BF010E94C60D3B
:100C70002F01481A590A241535050CF4E9C08F8153
:100C80009885820F931FBF010E94C60D9A838983A6
:100C90001C821B82E0913406F0913506A0913A0641
:100CA000B0913B062419350949815A81241B350B23
:100CB00037FF02C0295F3F4FC90113E09595879523
:100CC0001A95E1F79E838D832D903C90119737FE06
:100CD00003C097E0290E311C73E0359427947A9570
:100CE000E1F72F81388537FF04C0295F3F4F3887F0
:100CF0002F834F81588563E0559547956A95E1F7B5
:100D00002E9EC0012F9E900D3E9E900D1124480FE7
:100D1000591F14968D919C91480F591F5C874B87E2
:100D200060901E0270901F0228E030E0CF01B901F0
:100D30000E94C60D5901A81AB90ACA14DB040CF4A2
:100D400090C0CF018C0D9D1DB9010E94C60D9887E2
:100D50008F83CA18DB088F819885C81AD90AD7FEF5
:100D600003C097E0C90ED11C960143E03595279545
:100D70004A95E1F73A8729878B849C84D12CC12C32
:100D8000A6014F5F5F4F5A8B498B73010B811C810A
:100D900029813A814D815E81B201C4010E948201A4
:100DA000820C931CC988DA88AC14BD0449F72C9CCA
:100DB000C0012D9C900D3C9C900D11242B853C85F1
:100DC000280F391F3E872D87A0901A02B0901B0272
:100DD000A60CB71CA10193E0440F551F9A95E1F7AB
:100DE000588B4F8789859A859C878B873601490167
:100DF0002B853C85215031093C872B872F3F3F4F66
:100E0000A1F1C30108969C8B8B8B6301988E8F8A0E
:100E10002B893C892C153D0509F461C0A6014F5F63
:100E20005F4F5E8B4D8B75010B811C8129813A814F
:100E30004D815E81B2018F89988D0E9482018F89D8
:100E4000988D820D931D988F8F8BCD88DE88E0CF93
:100E5000C201821B930B9C838B8329011A82198206
:100E600019CF560118861F8274CF4F8558898985FE
:100E70009A85489F9001499F300D589F300D11244D
:100E80004D855E85240F351F3C872B876C0183E0E1
:100E9000CC0CDD1C8A95E1F789899A89C80ED91E88
:100EA0006F8078846C0C7D1C6C147D0431F14601DC
:100EB0003FEF831A930A75010B811C8129813A81C6
:100EC0004D815E81B2018B859C850E9482014B859C
:100ED0005C85420D531D5C874B876401E5CF98E02C
:100EE000690E711C2F853889820E931E80911A021B
:100EF00090911B02A80EB91E7BCF68960FB6F8948E
:100F0000DEBF0FBECDBFDF91CF911F910F91FF903C
:100F1000EF90DF90CF90BF90AF909F908F907F9099
:100F20006F905F904F903F902F900C948E050F9391
:100F30001F93CF93DF93EC0170E0FB01E45DFE4F64
:100F40008491FB01EA57FE4F049169597E4FFB01E2
:100F50001491112301F181110E94F603E12FF0E0B9
:100F6000EE0FFF1FE25EFE4FA591B491EC910E23B0
:100F700031E020E009F430E0832F922F2881211105
:100F80000DC0892BA1F481E08883DF91CF911F915F
:100F90000F910C94E40590E080E0F0CF892B39F0BC
:100FA0001882DF91CF911F910F910C948A05DF91E8
:100FB000CF911F910F9108951F920F920FB60F922C
:100FC00011248F939F938091E1009091E100937F92
:100FD0009093E10083FF0FC01092E90091E090939D
:100FE000EB001092EC0092E39093ED0010927B01E5
:100FF00098E09093F00082FF22C093E09093E90084
:101000009091F200992319F09AE39093E80090915F
:101010006D01992341F090916D01915090936D0174
:10102000911101C05D9890917A01992341F09091BE
:101030007A01915090937A01911101C0289884FF10
:1010400018C08091E2008E7E81608093E2008091E2
:10105000E1008F7E8093E10080916C018E7E806143
:1010600080936C019F918F910F900FBE0F901F90F6
:10107000189580FFF7CF8091E2008E7E806180938B
:10108000E2008091E1008E7E8093E10080916C010E
:101090008E7E8160E5CF1F920F920FB60F921124C2
:1010A000CF92DF92EF92FF920F931F932F933F9374
:1010B0004F935F936F937F938F939F93AF93BF9360
:1010C000EF93FF93CF93DF93CDB7DEB76C97DEBF7F
:1010D000CDBF1092E9008091E80083FF25C068E051
:1010E000CE0145960E94680382EF8093E8008D89C7
:1010F00087FF39C09091E80090FFFCCF982F907641
:1011000009F034C19E894F89588D2F89F88C91112F
:1011100031C0803861F580916B018093F1001092AD
:10112000F1008EEF8093E8006C960FB6F894DEBF66
:101130000FBECDBFDF91CF91FF91EF91BF91AF91E6
:101140009F918F917F916F915F914F913F912F91DF
:101150001F910F91FF90EF90DF90CF900F900FBEF7
:101160000F901F9018959EEF9093E800C7CF1092B4
:10117000F100D5CF913059F48111D3CF41305105D1
:1011800081F680916B018D7F80936B01CACF933084
:1011900049F48111C6CF4130510519F680916B0198
:1011A0008260F2CF953041F48091E80080FFFCCF5F
:1011B00020682093E300B5CF963009F0A9C00B8DCD
:1011C0001C8D22E01092E9001092690110926801D2
:1011D000F2122EC010926701109266010E9437032E
:1011E0001F8299E09983FA8291E09E8390EA988722
:1011F0009AEF99872091680130916901275F3F4FED
:101200003C832B838D831092E90010926901109228
:101210006801109367010093660149E050E0BE0148
:101220006F5F7F4F80E00E9411030E94370379CFE8
:1012300010936701009366010E949C02DC011296E4
:101240000D911C910115110509F451C1D801ED91C1
:10125000FC910480F581E02DBE016B5E7F4FC801DB
:101260000995009709F03EC1F80100851185EACF84
:10127000F3E0FF120EC08F89882309F440C082304A
:1012800061F440E86DE080E191E00E94DE028111AE
:1012900048CF81E28093EB0047CF813029F440E8CA
:1012A0006BE084E091E0F1CF833099F70E949C02DB
:1012B000DC011296ED90FC908E010F5F1F4F6801CC
:1012C000E114F10479F0D701ED91FC910680F781EA
:1012D000E02DB801C7010995080F111DF701E08441
:1012E000F184EECFD8011C92F60101900020E9F7BD
:1012F0003197BF016C197D0940E0C601C6CF6EEE83
:1013000070E0FB01449150E080E80E94110309CF96
:10131000973009F4BECF983021F481E08093F1003A
:1013200000CF993009F0FDCE837009F0B2CFEDE027
:10133000F1E081E031E096E32191222371F0809386
:10134000E9003093EB00DF0111972C912093EC0022
:101350009093ED008F5F873079F78EE78093EA00F6
:101360001092EA008F8980937B01DBCE8B8D9C8D60
:101370001092E90010926901109268019093670140
:1013800080936601898D811192C08E899D89913AE1
:1013900049F4813209F07DCF47E050E064E071E02C
:1013A00080E0B3CF913209F074CF833269F48F8932
:1013B000988DB0E0A0E08093000190930101A0938C
:1013C0000201B0930301ADCE803269F48091E80050
:1013D00082FFFCCF67E084E091E00E9468038BEF1E
:1013E0008093E8009ECE823209F09BCE8F89809355
:1013F0000B01EEEFFFE7859194918B3F9C4D51F1EE
:10140000E0E0F8E08091040190910501A0910601CF
:10141000B0910701803B9440A105B105F1F48091A2
:101420000B0180FD1AC0EE3F8AE0F80789F587E7D7
:1014300097E7918380838091600080936A0188E1BF
:101440009BE00FB6F894A895809360000FBE909330
:10145000600067CEEEEFFAE0D5CF808191818737CB
:10146000974709F05ECEA8958091600088618093CF
:10147000600080916A0180936000EE3F2AE0F207ED
:1014800089F08091FE0A9091FF0A9183808349CE72
:10149000808191818737980751F29093FF0A80935A
:1014A000FE0AC5CF1092FF0A1092FE0A3ACE0E94A1
:1014B0009C02DC0112960D911C910115110509F495
:1014C000E8CED801ED91FC910190F081E02DBE01B4
:1014D0006B5E7F4FC8010995811123CEF80100850D
:1014E0001185EBCF181619060CF41BCED2CEF1E005
:1014F000FF12BECE62EF70E004CF1F920F920FB6C4
:101500000F9211242F933F938F939F93AF93BF9389
:101510008091590190915A01A0915B01B0915C01B9
:101520003091580123E0230F2D3758F50196A11D66
:10153000B11D209358018093590190935A01A093B3
:101540005B01B0935C0180915D0190915E01A0917F
:101550005F01B09160010196A11DB11D80935D01F5
:1015600090935E01A0935F01B0936001BF91AF9132
:101570009F918F913F912F910F900FBE0F901F90D1
:10158000189526E8230F0296A11DB11DD2CFCF9248
:10159000DF92EF92FF92CF93DF93CDB7DEB76297E2
:1015A0000FB6F894DEBF0FBECDBF10927F01109230
:1015B0007E0188EE93E0A0E0B0E0809380019093FC
:1015C0008101A0938201B093830187E191E0909320
:1015D0007D0180937C018FEF9FEF90938901809331
:1015E000880180E290E09093E7018093E60148E073
:1015F00050E05093E9014093E8012DED31E0309344
:10160000EB012093EA011092DD011092DC011092AF
:10161000DF011092DE01C090E601D090E701E0907A
:10162000E801F090E901C092E001D092E101E0927E
:10163000E201F092E30126EE31E03093E5012093E0
:10164000E4019093D7018093D6012EE030E03093EF
:10165000D9012093D80165EA71E07093DB016093B2
:10166000DA011092CD011092CC011092CF011092AC
:10167000CE01C090D601D090D701E090D801F09073
:10168000D901C092D001D092D101E092D201F09262
:10169000D30166ED71E07093D5016093D40190930E
:1016A000070280930602509309024093080265E303
:1016B00072E070930B0260930A021092FD01109287
:1016C000FC011092FF011092FE01C0900602D09022
:1016D0000702E0900802F0900902C0920002D09246
:1016E0000102E0920202F092030266E072E070935F
:1016F0000502609304029093F7018093F601309302
:10170000F9012093F8016DEF71E07093FB01609394
:10171000FA011092ED011092EC011092EF0110927B
:10172000EE01C090F601D090F701E090F801F09042
:10173000F901C092F001D092F101E092F201F09231
:10174000F30166EF71E07093F5016093F4019093FB
:101750003D0680933C0650933F0640933E064DE87D
:1017600052E0509341064093400610923306109287
:101770003206109235061092340640913C06509184
:101780003D0660913E0670913F06409336065093A9
:10179000370660933806709339064CE356E0509351
:1017A0003B0640933A0690932D0680932C06309387
:1017B0002F0620932E0685E592E0909331068093C4
:1017C00030061092230610922206109225061092DF
:1017D000240680912C0690912D06A0912E06B091A2
:1017E0002F068093260690932706A0932806B09391
:1017F00029068CE296E090932B0680932A0680E5DA
:101800008093200681E0809321069091120291112D
:1018100014C020E830E030930D0220930C0220E445
:1018200030E030930F0220930E0220E232E030933A
:101830001102209310028093120286E0ECE0F2E0A5
:10184000DE01119601900D928A95E1F786E0FE0186
:101850003196DE01179601900D928A95E1F786E0A8
:10186000FE013796DE011D9601900D928A95E1F7F3
:1018700086E0FE013D96AAE1B2E001900D928A95C4
:10188000E1F762960FB6F894DEBF0FBECDBFDF91D1
:10189000CF91FF90EF90DF90CF900895789484B52A
:1018A000826084BD84B5816084BD85B5826085BD5C
:1018B00085B5816085BD80916E00816080936E00EA
:1018C00010928100809181008260809381008091DC
:1018D000810081608093810080918000816080938D
:1018E00080008091910082608093910080919100AE
:1018F000816080939100809190008160809390003E
:101900008091C10084608093C1008091C100826099
:101910008093C1008091C10081608093C10080915B
:10192000C30081608093C3008091C0008260809377
:10193000C0008091C20081608093C20080917A00D3
:10194000846080937A0080917A00826080937A002C
:1019500080917A00816080937A0080917A0080681B
:1019600080937A0010927B0110926B0110926C01AF
:101970008091D70081608093D70080EA8093D8005F
:1019800089B5806189BD89B5826089BD09B400FED1
:10199000FDCF61E070E080E090E00E9495048091CE
:1019A000D8008F7C80618093D8008091E000807F98
:1019B0008093E0008091E1008E7E8093E1008DE0D5
:1019C0008093E200559A209A5D9828988EE00E94B4
:1019D000420282E10E9442028AE00E944202CFB7A4
:1019E000F89480916101811124C0E8E7F1E08491CD
:1019F000E7E9F1E09491E82FF0E0EE0FFF1FE75ADE
:101A0000FE4FA591B491EC91E92321F461E081E1CD
:101A10000E94420481E10E9442028CB580618CBD2B
:101A20008CB580648CBD8FE00E94420280E10E94F0
:101A30004202809161018F5F80936101CFBF60E0BE
:101A40008AE00E94420461E08EE00E9442046AE063
:101A500070E080E090E00E94950460E08EE00E94DB
:101A600042046AE070E080E090E00E94950461E04A
:101A70008EE00E9442048EEA0E946D0580E40E947E
:101A80006D0564E681E80E94570581EA0E946D05B4
:101A900088EC0E946D0587EA0E946D056FE388EA75
:101AA0000E9457056BE88DEA0E94570582E30E9469
:101AB0006D0560E083ED0E94570560E885ED0E94AA
:101AC000570562EF89ED0E94570562E18AED0E9499
:101AD000570560E48BED0E94570584EA0E946D056E
:101AE0008FEA0E946D0564E670E080E090E00E945D
:101AF000950464EF71E080E090E00E94950461E05D
:101B000081E10E94420461E08EE10E94420462E0B1
:101B100084E00E94420462E085E00E94420462E0A8
:101B200086E00E94420462E087E00E9442048FEF58
:101B30009FEF909389018093880189E491E00E944E
:101B40007D050E9417020E948E05C0E0D0E064E08F
:101B500085E691E00E94970765E084E691E00E94A7
:101B6000970766E083E691E00E94970767E082E6C8
:101B700091E00E9497076AE070E080E090E00E94A8
:101B80009504209721F30E940000E1CF97FB072ED8
:101B900016F4009407D077FD09D00E94E00D07FCF1
:101BA00005D03EF4909581959F4F0895709561956D
:101BB0007F4F0895EE0FFF1F0590F491E02D0994DB
:101BC000AA1BBB1B51E107C0AA1FBB1FA617B70763
:101BD00010F0A61BB70B881F991F5A95A9F780957F
:0C1BE0009095BC01CD010895F894FFCF52
:101BEC00FFFFFFFF00E100000000000000C180814A
:101BFC00000000000000007503C70496038B03DC93
:101C0C00039A03B803707265737355700A004469C4
:101C1C0073706C61793A3A757064617465007072B6
:101C2C00657373446F776E0A004F4C4544204578BA
:081C3C00616D706C650A000087
:00000001FF
