:100000000C94D4080C94FC080C94FC080C94FC0888
:100010000C94FC080C94FC080C94FC080C94FC0850
:100020000C94FC080C94FC080C94490F0C94B80F29
:100030000C94FC080C94FC080C94FC080C94FC0830
:100040000C94FC080C94FC080C94FC080C94FC0820
:100050000C94FC080C94FC080C94FC080C94EA1119
:100060000C94FC080C94FC080C94FC080C94FC0800
:100070000C94FC080C94FC080C94FC080C94FC08F0
:100080000C94FC080C94FC080C94FC080C94FC08E0
:100090000C94FC080C94FC080C94FC080C94FC08D0
:1000A0000C94FC080C94FC080C94FC080000000064
:1000B0002300260029002C002F0000000002000968
:1000C0000F0000030401000C00000000000000000D
:1000D000000000000000000000080B000202020007
:1000E00000090400000102020000052400100105BF
:1000F00024010101042402060524060001070581EC
:100100000310004009040100020A00000007050274
:1001100002400000070583024000000403090412A6
:10012000010002EF02014041233780000101020378
:100130000141726475696E6F204C4C4300417264DA
:1001400075696E6F204D6963726F000000000025B5
:100150000028002B002E00310000000000240027A2
:10016000002A002D003000040404040403040502E6
:100170000202020403020202020606060606060442
:10018000040202020404040802011040804010200E
:10019000408040800802040180402010020110804D
:1001A00010204040200180000000000000000000FE
:1001B000000000018003C0000000000000000000FB
:1001C00000000003C0074000000000000000000025
:1001D00000000002E006E000000000000000000057
:1001E00000000007608843000000000000000000DD
:1001F0000000000211F04480000000000000000038
:10020000000000020F8648400000000000000000CF
:100210000000000261BC4847000000000000000030
:10022000000000023D8088488000000000000000BF
:1002300000000001018104908000003B800000006C
:1002400000000000817E03108000000FE400000029
:10025000000000007EFFF0110E00007EFE00000096
:100260000000000FFF001C0E110000DC3A0000002F
:1002700000000038000007002080000FCA000000C6
:10028000000000E0000001C02080000773000000B3
:1002900000000380000000701107E000B380000040
:1002A00000000E000000001C0E0E70CA83C000008B
:1002B0000000380000000007000C30CA8600000073
:1002C0000000E00000000001C01818BF8C00000012
:1002D0000003800000018000701818800C000000EE
:1002E000000E00018003C0001C1818838E0000005F
:1002F00000380003C0074000001818468C000000BA
:1003000000000002E006E00001FFFF3D8F0000005A
:10031000000000076088400001FFFF064E0000005B
:100320000000000211F0400001FFFF99CF800000A3
:10033000000000020F86400001FCFFCF48000000D3
:100340000000000261BC400001FE3DC0C80000008A
:10035000000000023D80800001FF19409F00000066
:10036000000000010181000000FFC321F9800000AE
:1003700000000000817E000000F803A10E80000054
:10038000000000007EFFF000007F00D1E980000047
:100390000000000FFF001C00007F80731C80000025
:1003A0000000003800000700003F1C3A9A8000005F
:1003B000000000E0000001C0001C7F1E75800000EE
:1003C00000000380000000700007E1C7E3000000A8
:1003D00000000E000000001C0000007057800000AC
:1003E0000000380000000007000000184E800000E8
:1003F0000000E00000000001C000000E5CC0000032
:10040000000380000000000070000005F1400000C3
:10041000000E0000000000001C00000E064000005E
:1004200000380000000000000000000988C0000043
:1004300000000000000000000000000C71400000FF
:1004400000000000000000000000000B024000005F
:10045000000000000000000000000008FC40000058
:1004600000000000000000000000001C00FF000071
:10047000000000000000000000000036E181E00004
:10048000000000000000000000000063FF002000EA
:100490000000000000000000000001C0E00020009B
:1004A000000000000000000000000700003C2000E9
:1004B000000000000000000000001C0FFFE820000A
:1004C000000000000000000000003038000820009C
:1004D0000000000000000000000020F000082700DD
:1004E00000000000000000000000202000183F80F5
:1004F0000000000000000000000020300010E0803C
:10050000000000000000000000003018003381806F
:1005100000000000000000000000180C00267F0012
:10052000000000000000000000001806002D8600FA
:1005300000000000000000000000083F007A3800C2
:1005400000000000000000000003FFF300746000E2
:10055000000000000000000000026503006CC00005
:100560000000000000000000000300060071800091
:1005700000000000000000000001FFFC001F000060
:10058000000000000000000000000000000000006B
:10059000000000000000000000000000000000005B
:1005A00000000000000180000000000000000000CA
:1005B000000000018003C0000000000000000000F7
:1005C00000000003C0074000000000000000000021
:1005D00000000002E006E000000000000000000053
:1005E00000000007608843000000000000000000D9
:1005F0000000000211F04480000000000000000034
:10060000000000020F8648400000000000000000CB
:100610000000000261BC484700000000000000002C
:10062000000000023D8088488000000000000000BB
:1006300000000001018104908000003B8000000068
:1006400000000000817E03108000000FE400000025
:10065000000000007EFFF0110E00007EFE00000092
:100660000000000FFF001C0E110000DC3A0000002B
:1006700000000038000007002080000FCA000000C2
:10068000000000E0000001C02080000773000000AF
:10069000000003800000007011000000B380000023
:1006A00000000E000000001C0E0000C083C000000F
:1006B0000000380000000007000000CA86000000AB
:1006C0000000E00000000001C00000BF8C0000003E
:1006D0000003800000018000700000800C0000001A
:1006E000000E00018003C000180000838E0000008F
:1006F00000380003C0074000000000468C000000E6
:1007000000000002E006E0000000003D8F00000055
:100710000000000760884000000000064E00000056
:100720000000000211F0400000000019CF8000001E
:10073000000000020F8640000000000F480000008B
:100740000000000261BC400000000000C800000082
:10075000000000023D808000000000009F000000BB
:10076000000000010181000000000001F98000008C
:1007700000000000817E0000000000010E800000EB
:10078000000000007EFFF000000F8001E980000003
:100790000000000FFF001C000E1BC0031C800000A7
:1007A0000000003800000700113060069A80000049
:1007B000000000E0000001C020B077077580000055
:1007C000000003800000007020B03F8DC3000000D7
:1007D00000000E000000001C11307EF79780000022
:1007E00000003800000000070E31FE4CCE800000F3
:1007F0000000E00000000001C01BFE705CC00000B3
:100800000003800000000000701F8E007140000097
:10081000000E0000000000001C3FC001C6400000A8
:10082000003800000000000000FFF80708C00000CA
:10083000000000000000000000FFF01C71400000FC
:100840000000000000000000007FE06B024000009C
:100850000000000000000000007F84E8FC40000071
:100860000000000000000000003FF9DC00FF000075
:100870000000000000000000001FF9B6E181E00068
:100880000000000000000000000FF363FF002000E4
:1008900000000000000000000007FDC0E000200094
:1008A00000000000000000000001F700003C2000F4
:1008B000000000000000000000001C0FFFE8200006
:1008C0000000000000000000000030380008200098
:1008D0000000000000000000000020F000082700D9
:1008E00000000000000000000000202000183F80F1
:1008F0000000000000000000000020300010E08038
:10090000000000000000000000003018003381806B
:1009100000000000000000000000180C00267F000E
:10092000000000000000000000001806002D8600F6
:1009300000000000000000000000083F007A3800BE
:1009400000000000000000000003FFF300746000DE
:10095000000000000000000000026503006CC00001
:10096000000000000000000000030006007180008D
:1009700000000000000000000001FFFC001F00005C
:100980000000000000000000000000000000000067
:100990000000000000000000000000000000000057
:1009A00000000000000180000000000000000000C6
:1009B000000000018003C0000000000000000000F3
:1009C00000000003C007400000000000000000001D
:1009D00000000002E006E00000000000000000004F
:1009E00000000007608843000000000000000000D5
:1009F0000000000211F04480000000000000000030
:100A0000000000020F8648400000000000000000C7
:100A10000000000261BC4847000000000000000028
:100A2000000000023D8088488000000000000000B7
:100A300000000001018104908000003B8000000064
:100A400000000000817E03108000000FE400000021
:100A5000000000007EFFF0110E00007EFE0000008E
:100A60000000000FFF001C0E110000DC3A00000027
:100A700000000038000007002080000FCA000000BE
:100A8000000000E0000001C020800007F30000002B
:100A9000000003800000007011000001B38000001E
:100AA00000000E000000001C0E0000CA83C0000001
:100AB0000000380000000007000000CA86000000A7
:100AC0000000E00000000001C00000BF8C0000003A
:100AD0000003800000018000700000800C00000016
:100AE000000E00018003C000180000838E0000008B
:100AF00000380003C0074000000000468C000000E2
:100B000000000002E006E0000000003D8F00000051
:100B10000000000760884000000000064E00000052
:100B20000000000211F0400000000019CF8000001A
:100B3000000000020F8640000000000F4800000087
:100B40000000000261BC400000000000C80000007E
:100B5000000000023D808000000000009F000000B7
:100B6000000000010181000000000001F980000088
:100B700000000000817E0000000000010E800000E7
:100B8000000000007EFFF000000F8001E9800000FF
:100B90000000000FFF001C000E1BC0031C800000A3
:100BA0000000003800000700113060069A80000045
:100BB000000000E0000001C020B0770F7580000049
:100BC000000003800000007020A03BB5C3000000BF
:100BD00000000E000000001C113072E7978000003A
:100BE00000003800000000070E31824CCE8000006B
:100BF0000000E00000000001C01BFE705CC00000AF
:100C00000003800000000000701C8600714000009E
:100C1000000E0000000000001C21C001C6400000C2
:100C2000003800000000000000C0380708C00000C5
:100C300000000000000000000080101C7140000057
:100C400000000000000000000040E06B02400000D7
:100C50000000000000000000004184C8FC400000CB
:100C600000000000000000000020F99C00FF0000D0
:100C70000000000000000000001009B6E181E00063
:100C80000000000000000000000833E3FF00200027
:100C9000000000000000000000061FC0E00020006F
:100CA000000000000000000000018F00003C200058
:100CB000000000000000000000006C0FFFE82000B2
:100CC0000000000000000000000030380008200094
:100CD0000000000000000000000020F000082700D5
:100CE00000000000000000000000202000183F80ED
:100CF0000000000000000000000020300010E08034
:100D00000000000000000000000030180033818067
:100D100000000000000000000000180C00267F000A
:100D2000000000000000000000001806002D8600F2
:100D300000000000000000000000083F007A3800BA
:100D400000000000000000000003FFF300746000DA
:100D5000000000000000000000026503006CC000FD
:100D60000000000000000000000300060071800089
:100D700000000000000000000001FFFC001F000058
:100D80000000000000000000000000000000000063
:100D90000000000000000000000000000000000053
:100DA00000000000000180000000000000000000C2
:100DB000000000018003C0000000000000000000EF
:100DC00000000003C0074000000000000000000019
:100DD00000000002E006E00000000000000000004B
:100DE00000000007608843000000000000000000D1
:100DF0000000000211F0448000000000000000002C
:100E0000000000020F8648400000000000000000C3
:100E10000000000261BC4847000000000000000024
:100E2000000000023D8088488000000000000000B3
:100E300000000001018104908000003B8000000060
:100E400000000000817E03108000000FE40000001D
:100E5000000000007EFFF0110E00007EFE0000008A
:100E60000000000FFF001C0E110000DC3A00000023
:100E700000000038000007002080000FCA000000BA
:100E8000000000E0000001C02080000773000000A7
:100E900000000380000000701107E000B380000034
:100EA00000000E000000001C0E0E70CA83C000007F
:100EB0000000380000000007000C30CA8600000067
:100EC0000000E00000000001C01818BF8C00000006
:100ED0000003800000018000701818800C000000E2
:100EE000000E00018003C0001C1818838E00000053
:100EF00000380003C0074000001818468C000000AE
:100F000000000002E006E00001FFFF3D8F0000004E
:100F10000000000760884000010001064E0000004C
:100F20000000000211F0400001070199CF8000008D
:100F3000000000020F8640000104C7CF48000000F7
:100F40000000000261BC400001032DC0C800000089
:100F5000000000023D808000010199409F000000D8
:100F600000000001018100000087C321F98000001A
:100F700000000000817E0000008803A10E800000B8
:100F8000000000007EFFF000004700D1E980000073
:100F90000000000FFF001C00004180731C80000057
:100FA000000000380000070000371C3A9A8000005B
:100FB000000000E0000001C0000C771E75800000FA
:100FC00000000380000000700003C1C7E3000000C0
:100FD00000000E000000001C0000007057800000A0
:100FE0000000380000000007000000184E800000DC
:100FF0000000E00000000001C000000E5CC0000026
:10100000000380000000000070000005F1400000B7
:10101000000E0000000000001C00000E0640000052
:1010200000380000000000000000000988C0000037
:1010300000000000000000000000000C71400000F3
:1010400000000000000000000000000B0240000053
:10105000000000000000000000000008FC4000004C
:1010600000000000000000000000001C00FF000065
:10107000000000000000000000000036E181E000F8
:10108000000000000000000000000063FF002000DE
:101090000000000000000000000001C0E00020008F
:1010A000000000000000000000000700003C2000DD
:1010B000000000000000000000001C0FFFE82000FE
:1010C0000000000000000000000030380008200090
:1010D0000000000000000000000020F000082700D1
:1010E00000000000000000000000202000183F80E9
:1010F0000000000000000000000020300010E08030
:101100000000000000000000000030180033818063
:1011100000000000000000000000180C00267F0006
:10112000000000000000000000001806002D8600EE
:1011300000000000000000000000083F007A3800B6
:1011400000000000000000000003FFF300746000D6
:10115000000000000000000000026503006CC000F9
:101160000000000000000000000300060071800085
:1011700000000000000000000001FFFC001F000054
:10118000000000000000000000000000000000005F
:10119000000000000000000000000000000000004F
:1011A000000000000000341211241FBECFEFDAE06F
:1011B000DEBFCDBF11E0A0E0B1E0E0E6FAE202C0A0
:1011C00005900D92AC34B107D9F726E0ACE4B1E05C
:1011D00001C01D92A438B207E1F718E0C4EDD8E0D1
:1011E00004C02197FE010E940D15C33DD107C9F728
:1011F0000E94D7120C942E150C94000090E0FC0174
:10120000EA57FE4F249189599E4FFC01849188230F
:1012100099F090E0880F991FFC01E75AFE4FA591C5
:10122000B491FC01E55BFE4F859194918FB7F894E2
:10123000EC91E22BEC938FBF08956F927F928F9287
:101240009F92AF92BF92CF92DF92EF92FF920F9355
:101250001F93CF93DF93FC015B01EA01C60178E0A5
:10126000872E912CB4010E94F91497E0981B492F06
:1012700060E870E002C0759567959A95E2F7362FA1
:10128000309584918A189B08801A910A01C0880FB2
:101290008A94EAF71A2DD701115078F09C91932384
:1012A000682F607870E0042E02C0759567950A94E7
:1012B000E2F7962B9D93880FEFCFEA0CFB1CCF0132
:1012C00001968701DE013C01119700F1F301849042
:1012D000580169E0D62EDA94DD2091F0F5016081A5
:1012E000932E9622682D607870E0042E02C07595CA
:1012F00067950A94E2F7692961935F01880CEBCF47
:10130000085F1F4FFFEF6F1A7F0ADECFDE0153E049
:10131000AA0FBB1F5A95E1F7AE0DBF1DFC01EC0FE4
:10132000FD1FE491215078F08C9183236E2F60781B
:1013300070E0042E02C0759567950A94E2F7862B3B
:101340008D93EE0FEFCFDF91CF911F910F91FF9013
:10135000EF90DF90CF90BF90AF909F908F907F9055
:101360006F9008952F923F924F925F926F927F926B
:101370008F929F92AF92BF92CF92DF92EF92FF92A5
:101380000F931F93CF93DF93CDB7DEB7A2970FB61E
:10139000F894DEBF0FBECDBF09831A832B833C8335
:1013A0004D835E836F83788789879A8709811A8145
:1013B0008090EC059090ED05D7FEE2C00C191D0958
:1013C000712C612C8D819E818C0D9D1DF4018815E1
:1013D00099050CF4FC011E161F060CF07AC1AB80B7
:1013E000BC802091EE053091EF05F7FECFC0AE181E
:1013F000BF081C861B868F8198858E0D9F1D8217C6
:1014000093070CF49C01121613060CF062C1E61946
:10141000F7094B855C85241B350BA8E0CA2ED12C1F
:10142000C801B6010E94F914A601481B590B5E873A
:101430004D87E417F5070CF4B0C0CF01800F911F62
:10144000B6010E94F9149A8B898B1C8A1B8A4D85E0
:101450005E85E41BF50B89899A89E81BF90BF7FD7A
:101460003796AF0173E0559547957A95E1F75E8B16
:101470004D8BE985FA858081918197FD0796AC01B6
:1014800063E0559547956A95E1F7588B4F8717FFAD
:1014900002C0095F1F4F43E0159507954A95E1F794
:1014A0008F8598898A9D20018B9D500C9A9D500CA8
:1014B0001124400E511E04811581400E511E8B8552
:1014C0009C8553E0959587955A95E1F7889D100185
:1014D000899D300C989D300C1124620C731C209057
:1014E000F0053090F105260C371CE8E0F0E0C5016E
:1014F000BF010E94F9144F01881A990A281539056D
:101500000CF456C0C501820F931FBF010E94F9144D
:101510009A8F898F28193909498D5A8D241B350BCB
:1015200037FF02C0295F3F4FC90123E0959587959A
:101530002A95E1F79C8F8B8F2B853C85280D391DD3
:10154000388F2F8BCB84DC8452014F89588D4C15FA
:101550005D0591F136015FEF651A750A71010B891E
:101560001C8929893A894D895E896D857E85C501E9
:101570000E941D098F859889A80EB91E6301E5CFC9
:10158000C814D9040CF0A5C036011CCFE216F3062E
:101590000CF09FC0FC86EB862ECF8D859E858E1B22
:1015A0009F0B9C8B8B8BFE87ED871A8A198A4FCFF6
:1015B00049011A8E198EAECF2F853889289D80015A
:1015C000299D100D389D100D1124A201400F511FAF
:1015D0005C874B876090EC057090ED05260C371CFE
:1015E00093E0220F331F9A95E1F73E8F2D8F6B8C7E
:1015F0007C8C4F88588C4A0151E0651A710828F19B
:101600009201285F3F4F38A32F8F620154018F8DC5
:1016100098A18C159D0509F44EC096012F5F3F4F90
:101620003AA329A371010B891C8929893A894D891B
:101630005E896D857E85C5010E941D094F8558898B
:10164000A40EB51EC9A0DAA0E2CF4D8D5E8D8B8DA4
:101650009C8D489F2001499F500C589F500C11248D
:101660002B853C85420E531E6C0183E0CC0CDD1CA7
:101670008A95E1F74F89588DC40ED51EA98CBA8C76
:10168000AC0CBD1CAC14BD0421F146019FEF891ABE
:10169000990A71010B891C8929893A894D895E89CA
:1016A0006D857E85C2010E941D092F853889420EF5
:1016B000531E6401E7CF58E0450E511C8D8D9E8D61
:1016C000880E991E8091EC059091ED05280E391E2B
:1016D00093CFA2960FB6F894DEBF0FBECDBFDF91B9
:1016E000CF911F910F91FF90EF90DF90CF90BF901F
:1016F000AF909F908F907F906F905F904F903F90B2
:101700002F900895FC018091EB05882311F13FB7DC
:10171000F89482E08093E9002091F200822F90E01B
:101720001816190614F481E090E0882339F0289AFD
:1017300044E64093EA054091F1004083222339F0CA
:101740002091F200211103C02BE62093E8003FBF57
:1017500008958FEF9FEF08952FB7F89483E080935B
:10176000E9009091E800892F807295FF04C0909164
:10177000F20080E4891B2FBF08958091E20581115A
:101780000DC082E08093DE0584E08093DF05109237
:10179000E1051092E00581E08093E2058EED95E091
:1017A00008954091D8055091D9052091D6053091E2
:1017B000D70542175307B4F49091E8009570E1F310
:1017C0009091E80092FD19C08093F1008091D805B6
:1017D0009091D90501968F739927892B19F48EEF73
:1017E0008093E8008091D8059091D9050196909357
:1017F000D9058093D80581E0089580E00895EF929F
:10180000FF920F931F93CF93DF93F82E192FE62E9D
:10181000042F81E0860F880F0E94D10B83E00E9485
:10182000D10BCF2DD12FEC0EFD2EF11CCE15DF05E7
:10183000B9F007FF13C0FE0184910E94D10B182F4D
:1018400080E00E94D10B812321968111EFCFDF919F
:10185000CF911F910F91FF90EF9008958881EDCF68
:1018600081E0F5CFDF92EF92FF920F931F93CF931A
:10187000DF93D82E8A01EB017B01E40EF51ECE1515
:10188000DF0559F0D7FE12C0FE0184910E94D10BF2
:1018900021968111F4CF0FEF1FEFC801DF91CF9197
:1018A0001F910F91FF90EF90DF9008958881EECF08
:1018B0000F931F93CF93DF931F92CDB7DEB782E0D4
:1018C000898342E450E069ED70E080E80E94320CC8
:1018D0000E94BD0BDC0112960D911C9101151105A2
:1018E00089F0D801ED91FC910280F381E02DBE01D9
:1018F0006F5F7F4FC801099597FD04C0F80100850F
:101900001185ECCF89810F90DF91CF911F910F91BD
:101910000895615030F02091F100FC012083019680
:10192000F8CF289A84E68093EA050895CF92DF9253
:10193000EF92FF920F931F93853009F441C048F452
:10194000843021F11F910F91FF90EF90DF90CF90A5
:101950000895863009F44CC08730A1F7C12CD12CF2
:101960007601009142061091430620914406309181
:101970004506409146065091470660914806709191
:10198000490680914A0690914B0617C0C12CD12C74
:1019900076010091720610917306209174063091C1
:1019A00075064091760650917706609178067091A1
:1019B000790680917A0690917B060E94B209C2CF87
:1019C000C12CD12C76010091620610916306209102
:1019D00064063091650640916606509167066091F5
:1019E00068067091690680916A0690916B06E5CF52
:1019F000C12CD12C760100915206109153062091F2
:101A00005406309155064091560650915706609104
:101A100058067091590680915A0690915B06CDCF79
:101A2000CF93DF931F92CDB7DEB76983DC01ED91D1
:101A3000FC910280F381E02D41E050E0BE016F5F38
:101A40007F4F09950F90DF91CF91089583E08093A8
:101A5000E9008091F200882319F08AE38093E8007E
:101A600008950E94AC0B90E00895CF93DF931F92EE
:101A7000CDB7DEB7FC018485958597FD08C02FEFB3
:101A80003FEF358724870F90DF91CF910895CE01E6
:101A900001960E94820B019719F4898190E0F3CF9F
:101AA0008FEF9FEFF0CF0F931F93CF93DF931F9292
:101AB000CDB7DEB78C01FC018485958597FF0BC0FF
:101AC000CE0101960E94820B019771F4898190E00A
:101AD000F80195878487F801848595850F90DF91BB
:101AE000CF911F910F9108958FEF9FEFF1CFFC01E0
:101AF0008485958597FD0BC09FB7F89482E080930D
:101B0000E9008091F2009FBF90E0019608959FB791
:101B1000F89482E08093E9008091F2009FBF90E00A
:101B2000089581508F3008F047C0E82FF0E0E55667
:101B3000F24F0C940D15B80DBC0DAA0DB00DB40DDF
:101B4000DC0DDC0DDC0DBF0DC50DC90DCD0DD30DAC
:101B5000DC0DD70D809180008F77809380000895F1
:101B6000809180008F7DF9CF80918000877FF5CFB5
:101B700084B58F7784BD089584B58F7DFBCF809128
:101B800090008F77809390000895809190008F7DD2
:101B9000F9CF80919000877FF5CF8091C0008F773B
:101BA0008093C00008958091C0008F7DF9CF80910F
:101BB000C200877F8093C20008951F93CF93DF9365
:101BC000282F30E0F901E654FF4F8491F901EA57DC
:101BD000FE4FD491F901E959FE4FC491CC23A9F0ED
:101BE000162F81110E94910DEC2FF0E0EE0FFF1FD8
:101BF000E55BFE4FA591B4918FB7F894EC9111116C
:101C000008C0D095DE23DC938FBFDF91CF911F9169
:101C10000895DE2BF8CF3FB7F8948091D1019091D1
:101C2000D201A091D301B091D40126B5A89B05C0E3
:101C30002F3F19F00196A11DB11D3FBFBA2FA92F4B
:101C4000982F8827BC01CD01620F711D811D911D48
:101C500042E0660F771F881F991F4A95D1F70895B4
:101C60008F929F92AF92BF92CF92DF92EF92FF92AC
:101C70004B015C010E940B0E6B017C010E940B0E5C
:101C80006C197D098E099F09683E73408105910595
:101C9000A8F321E0821A9108A108B10888EEC80EC5
:101CA00083E0D81EE11CF11C81149104A104B1044D
:101CB00029F7FF90EF90DF90CF90BF90AF909F906B
:101CC0008F9008958F929F92AF92BF92CF92DF92A2
:101CD000EF92FF920F931F93CF93DF936C017B01E1
:101CE0008A0180912301882309F45CC08091EB056F
:101CF000882309F457C08091DC0580FF05C08091DE
:101D0000E00082608093E000E801B12C8AEFA82E09
:101D100093E0892E2AE3922E209711F4BB20D9F16B
:101D20000E94AC0B81110AC0AA94AA20D9F161E0EB
:101D300070E080E090E00E94300EEECF8C171D0620
:101D400011F00CF08C2F9FB7F8948092E90020914D
:101D5000E80025FD02C09FBFDFCF282F30E0C21B67
:101D6000D30BF701815020F041914093F100FACF5D
:101D7000E20EF31EBB2021F09092E800B12CEBCFD5
:101D80008091E80085FDE7CF9092E800BB24B394F2
:101D9000209709F3F3CF5D9A84E68093DD05101652
:101DA00011063CF081E090E0F6019383828310E01D
:101DB00000E0C801DF91CF911F910F91FF90EF904C
:101DC000DF90CF90BF90AF909F908F90089508952F
:101DD0008EBD00000DB407FEFDCF8EB508958CBDFD
:101DE0009DBD0895CF93DF93D82FC62F60E082E189
:101DF0000E94DD0D80918206909183060E94EF0E75
:101E00008D2F0E94E80E8C2FDF91CF910C94E80E5D
:101E1000CF93C82F60E082E10E94DD0D80918206A1
:101E2000909183060E94EF0E8C2FCF910C94E80EB8
:101E300090E8FB01ACE4B1E001900D929A95E1F7D6
:101E400080550E94080F60E182E00E94F20E61E07E
:101E500082E10E94DD0D80918206909183060E94AE
:101E6000EF0E80914C018EBDECE4F1E081E0EB3CA3
:101E7000F80741F091810DB407FEFDCF8EB59EBDF0
:101E80008193F4CF0DB407FEFDCF8EB58093CB01C7
:101E900008951F920F920FB60F9211248F939F9364
:101EA0008091E1009091E100937F9093E10083FFA6
:101EB0000FC01092E90091E09093EB001092EC00BB
:101EC00092E39093ED001092EB0598E09093F00070
:101ED00082FF22C093E09093E9009091F200992351
:101EE00019F09AE39093E8009091DD05992341F071
:101EF0009091DD0591509093DD05911101C05D98A1
:101F00009091EA05992341F09091EA0591509093C0
:101F1000EA05911101C0289884FF18C08091E20061
:101F20008E7E81608093E2008091E1008F7E8093BD
:101F3000E1008091DC058E7E80618093DC059F91BD
:101F40008F910F900FBE0F901F90189580FFF7CFC5
:101F50008091E2008E7E80618093E2008091E100BA
:101F60008E7E8093E1008091DC058E7E8160E5CFDE
:101F70001F920F920FB60F921124CF92DF92EF9221
:101F8000FF920F931F932F933F934F935F936F9302
:101F90007F938F939F93AF93BF93EF93FF93CF93D1
:101FA000DF93CDB7DEB76C97DEBFCDBF1092E900EF
:101FB0008091E80083FF25C068E0CE0145960E942D
:101FC000890C82EF8093E8008D8987FF39C090915A
:101FD000E80090FFFCCF982F907609F034C19E89DD
:101FE0004F89588D2F89F88C911131C0803861F557
:101FF0008091DB058093F1001092F1008EEF8093C9
:10200000E8006C960FB6F894DEBF0FBECDBFDF912F
:10201000CF91FF91EF91BF91AF919F918F917F9160
:102020006F915F914F913F912F911F910F91FF9071
:10203000EF90DF90CF900F900FBE0F901F901895EC
:102040009EEF9093E800C7CF1092F100D5CF91306A
:1020500059F48111D3CF4130510581F68091DB05D0
:102060008D7F8093DB05CACF933049F48111C6CFB1
:102070004130510519F68091DB058260F2CF953031
:1020800041F48091E80080FFFCCF20682093E300BA
:10209000B5CF963009F0A9C00B8D1C8D22E01092AF
:1020A000E9001092D9051092D805F2122EC01092B4
:1020B000D7051092D6050E94580C1F8299E099838B
:1020C000FA8291E09E8390EA98879AEF998720910F
:1020D000D8053091D905275F3F4F3C832B838D83F3
:1020E0001092E9001092D9051092D8051093D705E7
:1020F0000093D60549E050E0BE016F5F7F4F80E05E
:102100000E94320C0E94580C79CF1093D70500938F
:10211000D6050E94BD0BDC0112960D911C91011594
:10212000110509F451C1D801ED91FC910480F581AC
:10213000E02DBE016B5E7F4FC8010995009709F045
:102140003EC1F80100851185EACFF3E0FF120EC011
:102150008F89882309F440C0823061F440E86DE043
:102160008DE391E00E94FF0B811148CF81E28093C3
:10217000EB0047CF813029F440E86BE081E391E048
:10218000F1CF833099F70E94BD0BDC011296ED90E0
:10219000FC908E010F5F1F4F6801E114F10479F08C
:1021A000D701ED91FC910680F781E02DB801C701C0
:1021B0000995080F111DF701E084F184EECFD801D5
:1021C0001C92F60101900020E9F73197BF016C19CC
:1021D0007D0940E0C601C6CF6BE171E0FB0144918F
:1021E00050E080E80E94320C09CF973009F4BECF4E
:1021F000983021F481E08093F10000CF993009F00C
:10220000FDCE837009F0B2CFE5E2F1E081E031E08C
:1022100096E32191222371F08093E9003093EB0043
:10222000DF0111972C912093EC009093ED008F5FCC
:10223000873079F78EE78093EA001092EA008F8961
:102240008093EB05DBCE8B8D9C8D1092E900109274
:10225000D9051092D8059093D7058093D605898D1E
:10226000811192C08E899D89913A49F4813209F099
:102270007DCF47E050E06CE171E080E0B3CF913278
:1022800009F074CF833269F48F89988DB0E0A0E0B3
:102290008093180190931901A0931A01B0931B0128
:1022A000ADCE803269F48091E80082FFFCCF67E018
:1022B0008CE191E00E94890C8BEF8093E8009ECE28
:1022C000823209F09BCE8F8980932301EEEFFFE7E6
:1022D000859194918B3F9C4D51F1E0E0F8E0809125
:1022E0001C0190911D01A0911E01B0911F01803B26
:1022F0009440A105B105F1F48091230180FD1AC03D
:10230000EE3F8AE0F80789F587E797E791838083B6
:10231000809160008093DA0588E19BE00FB6F89425
:10232000A895809360000FBE9093600067CEEEEF9B
:10233000FAE0D5CF808191818737974709F05ECE4B
:10234000A895809160008861809360008091DA0593
:1023500080936000EE3F2AE0F20789F08091FE0A48
:102360009091FF0A9183808349CE80819181873744
:10237000980751F29093FF0A8093FE0AC5CF1092FE
:10238000FF0A1092FE0A3ACE0E94BD0BDC011296A3
:102390000D911C910115110509F4E8CED801ED91BC
:1023A000FC910190F081E02DBE016B5E7F4FC80172
:1023B0000995811123CEF80100851185EBCF181600
:1023C00019060CF41BCED2CEF1E0FF12BECE6FE1A7
:1023D00071E004CF1F920F920FB60F9211242F932A
:1023E0003F938F939F93AF93BF938091CD01909133
:1023F000CE01A091CF01B091D0013091CC0123E06A
:10240000230F2D3758F50196A11DB11D2093CC0146
:102410008093CD019093CE01A093CF01B093D001D2
:102420008091D1019091D201A091D301B091D401BA
:102430000196A11DB11D8093D1019093D201A0936B
:10244000D301B093D401BF91AF919F918F913F91F0
:102450002F910F900FBE0F901F90189526E8230F15
:102460000296A11DB11DD2CFE2EFF5E013821282D8
:1024700088EE93E0A0E0B0E084839583A683B783E1
:102480008FE291E0918380838FEF9FEF9587848720
:10249000ECE7F6E020E830E03183208380E490E050
:1024A0009383828345EA5DE055834483A2E7B6E0E7
:1024B00011961C921E9213961C921E9212974081A6
:1024C00051816281738114964D935D936D937C93DA
:1024D00017971996FC93EE931897ECE6F6E0318384
:1024E00020839383828345EA59E055834483A2E69F
:1024F000B6E011961C921E9213961C921E92129791
:10250000408151816281738114964D935D936D93E7
:102510007C9317971996FC93EE931897ECE5F6E0E9
:10252000318320839383828345EA55E05583448336
:10253000A2E5B6E011961C921E9213961C921E9272
:102540001297408151816281738114964D935D93FE
:102550006D937C9317971996FC93EE931897ECE480
:10256000F6E0318320839383828385EA91E095832B
:102570008483A2E4B6E011961C921E9213961C92DC
:102580001E921297408151816281738114964D93FE
:102590005D936D937C9317971996FC93EE93189720
:1025A000E2E8F6E080E5808381E081830895789415
:1025B00084B5826084BD84B5816084BD85B5826048
:1025C00085BD85B5816085BD80916E0081608093F9
:1025D0006E00109281008091810082608093810062
:1025E0008091810081608093810080918000816072
:1025F000809380008091910082608093910080910F
:10260000910081608093910080919000816080931F
:1026100090008091C10084608093C1008091C100CE
:1026200082608093C1008091C10081608093C1006D
:102630008091C30081608093C3008091C00082605C
:102640008093C0008091C20081608093C20080911D
:102650007A00846080937A0080917A00826080930F
:102660007A0080917A00816080937A0080917A006C
:10267000806880937A001092EB051092DB0510922F
:10268000DC058091D70081608093D70080EA809339
:10269000D80089B5806189BD89B5826089BD09B4DA
:1026A00000FEFDCF61E070E080E090E00E94300E1F
:1026B0008091D8008F7C80618093D8008091E00069
:1026C000807F8093E0008091E1008E7E8093E10026
:1026D0008DE08093E200559A209A5D9828988EE0CC
:1026E0000E94FE0882E10E94FE088AE00E94FE0825
:1026F000CFB7F8948091D501811124C0E8E7F1E0CB
:102700008491E7E9F1E09491E82FF0E0EE0FFF1FEC
:10271000E75AFE4FA591B491EC91E92321F461E0D1
:1027200081E10E94DD0D81E10E94FE088CB580618F
:102730008CBD8CB580648CBD8FE00E94FE0880E16A
:102740000E94FE088091D5018F5F8093D501CFBF95
:1027500060E08AE00E94DD0D61E08EE00E94DD0D08
:102760006AE070E080E090E00E94300E60E08EE071
:102770000E94DD0D6AE070E080E090E00E94300E83
:1027800061E08EE00E94DD0D8EEA0E94080F80E479
:102790000E94080F64E681E80E94F20E81EA0E941E
:1027A000080F88EC0E94080F87EA0E94080F6FE369
:1027B00088EA0E94F20E6BE88DEA0E94F20E82E334
:1027C0000E94080F60E083ED0E94F20E60E885ED44
:1027D0000E94F20E62EF89ED0E94F20E62E18AED34
:1027E0000E94F20E60E48BED0E94F20E84EA0E94D9
:1027F000080F8FEA0E94080F64E670E080E090E026
:102800000E94300E64EF71E080E090E00E94300E94
:1028100061E081E10E94DD0D61E08EE10E94DD0D4D
:1028200080E890E09093ED058093EC0580E490E0E3
:102830009093EF058093EE0586ED91E09093F1057E
:102840008093F00584E080930101C6E9DCE0D09339
:102850000301C0930201109205011092040162E08D
:102860000E94DD0D85E080930701D0930901C0939C
:10287000080110920B0110920A0162E00E94DD0D26
:1028800086E080930D01D0930F01C0930E0110924A
:1028900011011092100162E00E94DD0D87E080932B
:1028A0001301D0931501C0931401109217011092D7
:1028B000160162E00E94DD0D8FEF9FEF9093FF0500
:1028C0008093FE054DE050E06DE371E082EF95E00E
:1028D0000E94620E2091EC053091ED058091EE058D
:1028E0009091EF05289FA001299F500D389F500D12
:1028F000112457FF02C0495F5F4F23E0559547956C
:102900002A95E1F770E060E08091F0059091F10583
:102910000E94271580E0C6EDD1E011E0180FBE013E
:102920000E94180FC058DF4F812F1830B1F708E10F
:1029300011E090E0E92E90E0F92EC0E0D1E029818D
:1029400030E0F901E654FF4F8491F901EA57FE4F58
:10295000D490F901E959FE4FC490CC2009F443C04A
:1029600081110E94910DEC2DF0E0EE0FFF1FE45558
:10297000FF4FA591B491EC91DE2231E020E009F403
:1029800030E0832F922F9C0141E024272170388171
:10299000231749F02883892B49F5EA81FB81309779
:1029A00011F08981099526960C171D0709F0C7CFEC
:1029B00080E0C6EDD1E0DD24D394D80EBE010E94A4
:1029C000180FC058DF4F8D2D8830A9F76AE070E0EE
:1029D00080E090E00E94300EE114F10409F4ADCFE4
:1029E0000E940000AACF90E080E0CDCFEC81FD8175
:1029F000D6CF97FB072E16F4009407D077FD09D0A9
:102A00000E94131507FC05D03EF4909581959F4FC9
:102A10000895709561957F4F0895EE0FFF1F059003
:102A2000F491E02D0994AA1BBB1B51E107C0AA1F1A
:102A3000BB1FA617B70710F0A61BB70B881F991F5F
:102A40005A95A9F780959095BC01CD010895DC01B8
:102A500001C06D9341505040E0F70895F894FFCFC6
:102A600000FF0000000000FF0000000000FF000069
:102A7000000000FF00000000FFFFFFFF00E100007A
:102A80000000000000C18081000000000000001074
:102A90000D620E310D260D770D350D530D4F4C4542
:0C2AA00044204578616D706C650A0000F0
:00000001FF
