:100000000C94DD000C9405010C9405010C94050181
:100010000C9405010C9405010C9405010C94050148
:100020000C9405010C9405010C946E040C94DD04F1
:100030000C9405010C9405010C9405010C94050128
:100040000C9405010C9405010C9405010C94050118
:100050000C9405010C9405010C9405010C940F07F8
:100060000C9405010C9405010C9405010C940501F8
:100070000C9405010C9405010C9405010C940501E8
:100080000C9405010C9405010C9405010C940501D8
:100090000C9405010C9405010C9405010C940501C8
:1000A0000C9405010C9405010C940501000000025C
:1000B00000090F0000030401000C00000000000014
:1000C0000000000000000000000000080B00020219
:1000D00002000009040000010202000005240010D3
:1000E000010524010101042402060524060001077C
:1000F00005810310004009040100020A0000000706
:1001000005020240000007058302400000040309C5
:100110000412010002EF0201404123378000010177
:1001200002030141726475696E6F204C4C430041BB
:10013000726475696E6F204D6963726F0000000014
:1001400000250028002B002E0031000000000024B4
:100150000027002A002D00300004040404040304D6
:100160000502020202040302020202060606060655
:100170000604040202020404040802011040804044
:1001800010204080408008020401804020100201BD
:100190001080102040402030000000483838708423
:1001A000444488848482848484828448884444309B
:1001B0007038380000000000590711241FBECFEF2F
:1001C000DAE0DEBFCDBF11E0A0E0B1E0E6EFF2E1A2
:1001D00002C005900D92AC33B107D9F729E0ACE32A
:1001E000B1E001C01D92A23BB207E1F710E0CDEDF6
:1001F000D0E004C02197FE010E947309CC3DD107D5
:10020000C9F70E947E070C9479090C94000090E0D5
:10021000FC01E858FE4F2491875A9E4FFC018491BF
:10022000882399F090E0880F991FFC01E55BFE4F51
:10023000A591B491FC01E35CFE4F859194918FB739
:10024000F894EC91E22BEC938FBF0895FC01809120
:100250005B09882311F13FB7F89482E08093E900AD
:100260002091F200822F90E01816190614F481E014
:1002700090E0882339F0289A44E640935A09409147
:10028000F1004083222339F02091F200211103C0B4
:100290002BE62093E8003FBF08958FEF9FEF08956E
:1002A0002FB7F89483E08093E9009091E800892FBC
:1002B000807295FF04C09091F20080E4891B2FBFEB
:1002C00008958091520981110DC082E080934E09FA
:1002D00084E080934F09109251091092500981E0F7
:1002E000809352098EE499E0089540914809509115
:1002F0004909209146093091470942175307B4F440
:100300009091E8009570E1F39091E80092FD19C09A
:100310008093F100809148099091490901968F736B
:100320009927892B19F48EEF8093E8008091480972
:10033000909149090196909349098093480981E079
:10034000089580E00895EF92FF920F931F93CF934B
:10035000DF93F82E192FE62E042F81E0860F880FE9
:100360000E94750183E00E947501CF2DD12FEC0E04
:10037000FD2EF11CCE15DF05B9F007FF13C0FE01FD
:1003800084910E947501182F80E00E9475018123DD
:1003900021968111EFCFDF91CF911F910F91FF90A7
:1003A000EF9008958881EDCF81E0F5CFDF92EF9255
:1003B000FF920F931F93CF93DF93D82E8A01EB0107
:1003C0007B01E40EF51ECE15DF0559F0D7FE12C0F5
:1003D000FE0184910E94750121968111F4CF0FEFE7
:1003E0001FEFC801DF91CF911F910F91FF90EF9008
:1003F000DF9008958881EECF0F931F93CF93DF9303
:100400001F92CDB7DEB782E0898342E450E06BEC07
:1004100070E080E80E94D6010E946101DC01129622
:100420000D911C910115110589F0D801ED91FC91F8
:100430000280F381E02DBE016F5F7F4FC8010995F7
:1004400097FD04C0F80100851185ECCF89810F90DC
:10045000DF91CF911F910F910895615030F020915D
:10046000F100FC0120830196F8CF289A84E680935E
:100470005A090895CF93DF931F92CDB7DEB76983F2
:10048000DC01ED91FC910280F381E02D41E050E030
:10049000BE016F5F7F4F09950F90DF91CF91089557
:1004A00083E08093E9008091F200882319F08AE3C9
:1004B0008093E80008950E94500190E00895CF9342
:1004C000DF931F92CDB7DEB7FC018485958597FD3C
:1004D00008C02FEF3FEF358724870F90DF91CF9132
:1004E0000895CE0101960E942601019719F4898191
:1004F00090E0F3CF8FEF9FEFF0CF0F931F93CF9349
:10050000DF931F92CDB7DEB78C01FC018485958502
:1005100097FF0BC0CE0101960E942601019771F44E
:10052000898190E0F80195878487F8018485958515
:100530000F90DF91CF911F910F9108958FEF9FEF53
:10054000F1CFFC018485958597FD0BC09FB7F8948A
:1005500082E08093E9008091F2009FBF90E00196D5
:1005600008959FB7F89482E08093E9008091F200AB
:100570009FBF90E00895282F30E0F901E455FF4F28
:100580009491F901E858FE4F8491275A3E4FF901A2
:100590002491222309F430C09923E9F091509F302F
:1005A000D0F4E92FF0E0E952FD4F0C9473090503F4
:1005B0000903E602FD020103EB02EB02EB020C036E
:1005C000120316031A032003EB0224039091800008
:1005D0009F7790938000E22FF0E0EE0FFF1FE35C27
:1005E000FE4FA591B4919FB7F894EC91611132C080
:1005F00080958E238C939FBF0895909180009F7D5E
:10060000E8CF90918000977FE4CF94B59F7794BD19
:10061000E2CF94B59F7DFBCF909190009F77909310
:100620009000D9CF909190009F7DF9CF909190004C
:10063000977FF5CF9091C0009F779093C000CBCF6C
:100640009091C0009F7DF9CF9091C200977F9093C9
:10065000C200C1CF8E2BCECF3FB7F894809141011D
:1006600090914201A0914301B091440126B5A89B0D
:1006700005C02F3F19F00196A11DB11D3FBFBA2F34
:10068000A92F982F8827BC01CD01620F711D811DF4
:10069000911D42E0660F771F881F991F4A95D1F779
:1006A00008958F929F92AF92BF92CF92DF92EF9276
:1006B000FF924B015C010E942C036B017C010E94A4
:1006C0002C036C197D098E099F09683E73408105D2
:1006D0009105A8F321E0821A9108A108B10888EEDB
:1006E000C80E83E0D81EE11CF11C81149104A10402
:1006F000B10429F7FF90EF90DF90CF90BF90AF90BB
:100700009F908F9008958F929F92AF92BF92CF92B9
:10071000DF92EF92FF920F931F93CF93DF936C01C1
:100720007B018A0180910B01882309F45CC08091D0
:100730005B09882309F457C080914C0980FF05C0EC
:100740008091E00082608093E000E801B12C8AEFA4
:10075000A82E93E0892E2AE3922E209711F4BB2035
:10076000D9F10E94500181110AC0AA94AA20D9F19E
:1007700061E070E080E090E00E945103EECF8C17C2
:100780001D0611F00CF08C2F9FB7F8948092E900B1
:100790002091E80025FD02C09FBFDFCF282F30E069
:1007A000C21BD30BF701815020F041914093F1001F
:1007B000FACFE20EF31EBB2021F09092E800B12C9C
:1007C000EBCF8091E80085FDE7CF9092E800BB2455
:1007D000B394209709F3F3CF5D9A84E680934D0993
:1007E000101611063CF081E090E0F60193838283BD
:1007F00010E000E0C801DF91CF911F910F91FF90B1
:10080000EF90DF90CF90BF90AF909F908F90089522
:1008100008958EBD00000DB407FEFDCF8EB508957E
:100820008CBD9DBD0895CF93DF93D82FC62F60E078
:1008300082E10E94BB028091AC099091AD090E94B7
:1008400010048D2F0E9409048C2FDF91CF910C94FE
:100850000904CF93C82F60E082E10E94BB0280911F
:10086000AC099091AD090E9410048C2FCF910C948B
:1008700009041F93CF93DF93EC0110EB812F0E94AB
:10088000290460E182E00E94130461E082E10E9499
:10089000BB028091AC099091AD090E94100488813F
:1008A0008EBDFE01DE01A158BF4FEA17FB0741F0E4
:1008B00091810DB407FEFDCF8EB59EBD8193F5CF1E
:1008C0000DB407FEFDCF8EB58C93C058DF4F1F5F70
:1008D000183BA1F6DF91CF911F9108951F920F92BF
:1008E0000FB60F9211248F939F938091E100909106
:1008F000E100937F9093E10083FF0FC01092E90025
:1009000091E09093EB001092EC0092E39093ED0055
:1009100010925B0998E09093F00082FF22C093E070
:100920009093E9009091F200992319F09AE3909343
:10093000E80090914D09992341F090914D09915013
:1009400090934D09911101C05D9890915A09992396
:1009500041F090915A09915090935A09911101C018
:10096000289884FF18C08091E2008E7E8160809379
:10097000E2008091E1008F7E8093E10080914C093C
:100980008E7E806180934C099F918F910F900FBE56
:100990000F901F90189580FFF7CF8091E2008E7E18
:1009A00080618093E2008091E1008E7E8093E1007F
:1009B00080914C098E7E8160E5CF1F920F920FB619
:1009C0000F921124CF92DF92EF92FF920F931F9319
:1009D0002F933F934F935F936F937F938F939F9347
:1009E000AF93BF93EF93FF93CF93DF93CDB7DEB772
:1009F0006C97DEBFCDBF1092E9008091E80083FFC5
:100A000025C068E0CE0145960E942D0282EF8093BA
:100A1000E8008D8987FF39C09091E80090FFFCCFF6
:100A2000982F907609F034C19E894F89588D2F896F
:100A3000F88C911131C0803861F580914B09809319
:100A4000F1001092F1008EEF8093E8006C960FB6E3
:100A5000F894DEBF0FBECDBFDF91CF91FF91EF9134
:100A6000BF91AF919F918F917F916F915F914F91C6
:100A70003F912F911F910F91FF90EF90DF90CF90BA
:100A80000F900FBE0F901F9018959EEF9093E80067
:100A9000C7CF1092F100D5CF913059F48111D3CF47
:100AA0004130510581F680914B098D7F80934B0930
:100AB000CACF933049F48111C6CF4130510519F6A0
:100AC00080914B098260F2CF953041F48091E8002B
:100AD00080FFFCCF20682093E300B5CF963009F06B
:100AE000A9C00B8D1C8D22E01092E90010924909DB
:100AF00010924809F2122EC010924709109246092E
:100B00000E94FC011F8299E09983FA8291E09E8302
:100B100090EA98879AEF998720914809309149097E
:100B2000275F3F4F3C832B838D831092E900109207
:100B3000490910924809109347090093460949E072
:100B400050E0BE016F5F7F4F80E00E94D6010E949F
:100B5000FC0179CF10934709009346090E94610177
:100B6000DC0112960D911C910115110509F451C17A
:100B7000D801ED91FC910480F581E02DBE016B5E02
:100B80007F4FC8010995009709F03EC1F801008523
:100B90001185EACFF3E0FF120EC08F89882309F494
:100BA00040C0823061F440E86DE08FE291E00E9445
:100BB000A301811148CF81E28093EB0047CF8130C0
:100BC00029F440E86BE083E291E0F1CF833099F7BC
:100BD0000E946101DC011296ED90FC908E010F5F86
:100BE0001F4F6801E114F10479F0D701ED91FC91F8
:100BF0000680F781E02DB801C7010995080F111D86
:100C0000F701E084F184EECFD8011C92F601019047
:100C10000020E9F73197BF016C197D0940E0C6015A
:100C2000C6CF6DE071E0FB01449150E080E80E9486
:100C3000D60109CF973009F4BECF983021F481E076
:100C40008093F10000CF993009F0FDCE837009F058
:100C5000B2CFE5E1F1E081E031E096E3219122239A
:100C600071F08093E9003093EB00DF0111972C9134
:100C70002093EC009093ED008F5F873079F78EE73B
:100C80008093EA001092EA008F8980935B09DBCEA3
:100C90008B8D9C8D1092E9001092490910924809A1
:100CA0009093470980934609898D811192C08E895E
:100CB0009D89913A49F4813209F07DCF47E050E0B7
:100CC00064E071E080E0B3CF913209F074CF8332F9
:100CD00069F48F89988DB0E0A0E080930001909333
:100CE0000101A0930201B0930301ADCE803269F4FB
:100CF0008091E80082FFFCCF67E084E091E00E94F1
:100D00002D028BEF8093E8009ECE823209F09BCEBD
:100D10008F8980930B01EEEFFFE7859194918B3FD4
:100D20009C4D51F1E0E0F8E08091040190910501C3
:100D3000A0910601B0910701803B9440A105B10547
:100D4000F1F480910B0180FD1AC0EE3F8AE0F807B4
:100D500089F587E797E7918380838091600080938E
:100D60004A0988E19BE00FB6F894A895809360004B
:100D70000FBE9093600067CEEEEFFAE0D5CF808192
:100D800091818737974709F05ECEA89580916000E2
:100D900088618093600080914A0980936000EE3FF3
:100DA0002AE0F20789F08091FE0A9091FF0A918370
:100DB000808349CE808191818737980751F2909343
:100DC000FF0A8093FE0AC5CF1092FF0A1092FE0A16
:100DD0003ACE0E946101DC0112960D911C91011521
:100DE000110509F4E8CED801ED91FC910190F08154
:100DF000E02DBE016B5E7F4FC8010995811123CEA6
:100E0000F80100851185EBCF181619060CF41BCEDE
:100E1000D2CEF1E0FF12BECE61E171E004CF1F92AD
:100E20000F920FB60F9211242F933F938F939F939E
:100E3000AF93BF9380913D0190913E01A0913F01FE
:100E4000B091400130913C0123E0230F2D3758F53C
:100E50000196A11DB11D20933C0180933D0190930B
:100E60003E01A0933F01B0934001809141019091D8
:100E70004201A0914301B09144010196A11DB11D11
:100E80008093410190934201A0934301B0934401A8
:100E9000BF91AF919F918F913F912F910F900FBE76
:100EA0000F901F90189526E8230F0296A11DB11DE3
:100EB000D2CFECE5F9E01382128288EE93E0A0E055
:100EC000B0E084839583A683B7838FE191E091831B
:100ED00080838FEF9FEF95878487ECEAF9E080E5C8
:100EE000808381E08183EEEAF9E087E991E09183F4
:100EF000808380E2828388E083830895CF93DF93A9
:100F0000CDB7DEB72B970FB6F894DEBF0FBECDBFBF
:100F1000789484B5826084BD84B5816084BD85B5D4
:100F2000826085BD85B5816085BD80916E008160E0
:100F300080936E0010928100809181008260809386
:100F40008100809181008160809381008091800088
:100F500081608093800080919100826080939100F5
:100F600080919100816080939100809190008160D8
:100F7000809390008091C10084608093C100809133
:100F8000C10082608093C1008091C1008160809324
:100F9000C1008091C30081608093C3008091C00034
:100FA00082608093C0008091C20081608093C20003
:100FB00080917A00846080937A0080917A008260C8
:100FC00080937A0080917A00816080937A0080918A
:100FD0007A00806880937A0010925B0910924B0926
:100FE00010924C098091D70081608093D70080EAED
:100FF0008093D80089B5806189BD89B5826089BD3B
:1010000009B400FEFDCF61E070E080E090E00E9456
:1010100051038091D8008F7C80618093D8008091AB
:10102000E000807F8093E0008091E1008E7E8093DD
:10103000E1008DE08093E200559A209A5D9828980F
:1010400064EF71E080E090E00E94510361E081E193
:101050000E94BB0261E08EE10E94BB0262E084E07C
:101060000E94BB0262E085E00E94BB0262E086E073
:101070000E94BB0262E087E00E94BB028FEF9FEFFD
:1010800090936909809368094DE050E06DE271E04A
:101090008CE599E00E9483038EE00E94070182E1C3
:1010A0000E9407018AE00E9407011FB7F89480910F
:1010B0004501811124C0EAE6F1E08491E9E8F1E01C
:1010C0009491E82FF0E0EE0FFF1FE55BFE4FA59136
:1010D000B491EC91E92321F461E081E10E94BB022B
:1010E00081E10E9407018CB580618CBD8CB5806464
:1010F0008CBD8FE00E94070180E10E940701809172
:1011000045018F5F809345011FBF60E08AE00E9428
:10111000BB0261E08EE00E94BB026AE070E080E00A
:1011200090E00E94510360E08EE00E94BB026AE002
:1011300070E080E090E00E94510361E08EE00E9448
:10114000BB028EEA0E94290480E40E94290464E61E
:1011500081E80E94130481EA0E94290488EC0E941D
:10116000290487EA0E9429046FE388EA0E94130495
:101170006BE88DEA0E94130482E30E94290460E078
:1011800083ED0E94130460E885ED0E94130462EF72
:1011900089ED0E94130462E18AED0E94130460E469
:1011A0008BED0E94130484EA0E9429048FEA0E94B6
:1011B000290464E670E080E090E00E94510382E040
:1011C0000E94290486E495E00E94390460ED77E0EE
:1011D00080E090E00E9451034091B109498720903E
:1011E000B0098090AE099090AF0988E0ECE0F1E0A2
:1011F000DE01119601900D928A95E1F730E020E032
:10120000AA24A394B12C57E0E52EF12C522E598537
:10121000251708F05CC0822F8770F50102C0EE0F21
:10122000FF1F8A95E2F73E2E4E2E4094D90183E0AF
:10123000B595A7958A95E1F7B695BA2FAA27B795E0
:10124000A795AA5BBE4F10E000E0422F4695469559
:101250004695480D592D511D602E0215A8F5FA012D
:10126000E00FF11FE49170E060E08E2F90E09B872B
:101270008A8790E89615E8F0E0E4E515D0F07C90D8
:1012800081E090E08C0F9D1F860F971FFC018081ED
:1012900090E06701C61AD70A02C095958795CA944F
:1012A000E2F7EA85FB858E239F23892B59F073286B
:1012B0007C926F5F7F4F68307105D9F60F5F1F4FCB
:1012C0001196CACF7420F4CF2F5F3F4F9FCF86E493
:1012D00091E00E94390400E010E001151105E9F3E6
:1012E0000E940000FACFEE0FFF1F0590F491E02D51
:0612F0000994F894FFCF01
:1012F600FFFFFFFF00E1000000000000804020101B
:101306000804020100C18081000000000000003ACC
:101316000283035B025002A1025F027D024F4C452D
:0C13260044204578616D706C650A000081
:00000001FF
